{
  "contractName": "LandReg",
  "abi": [
    {
      "inputs": [],
      "stateMutability": "nonpayable",
      "type": "constructor"
    },
    {
      "inputs": [
        {
          "internalType": "address",
          "name": "admin",
          "type": "address"
        },
        {
          "internalType": "string",
          "name": "name",
          "type": "string"
        },
        {
          "internalType": "string",
          "name": "state",
          "type": "string"
        },
        {
          "internalType": "string",
          "name": "district",
          "type": "string"
        }
      ],
      "name": "addAdmin",
      "outputs": [],
      "stateMutability": "nonpayable",
      "type": "function"
    },
    {
      "inputs": [
        {
          "internalType": "string",
          "name": "state",
          "type": "string"
        }
      ],
      "name": "getAdmin",
      "outputs": [
        {
          "internalType": "address",
          "name": "",
          "type": "address"
        }
      ],
      "stateMutability": "view",
      "type": "function",
      "constant": true
    },
    {
      "inputs": [
        {
          "internalType": "string",
          "name": "state",
          "type": "string"
        },
        {
          "internalType": "string",
          "name": "district",
          "type": "string"
        },
        {
          "internalType": "string",
          "name": "cadzone",
          "type": "string"
        },
        {
          "internalType": "uint256",
          "name": "plotNumber",
          "type": "uint256"
        },
        {
          "internalType": "uint256",
          "name": "plotSize",
          "type": "uint256"
        },
        {
          "internalType": "address payable",
          "name": "wAddress",
          "type": "address"
        }
      ],
      "name": "registerLand",
      "outputs": [
        {
          "internalType": "bool",
          "name": "",
          "type": "bool"
        }
      ],
      "stateMutability": "nonpayable",
      "type": "function"
    },
    {
      "inputs": [
        {
          "internalType": "uint256",
          "name": "id",
          "type": "uint256"
        },
        {
          "internalType": "string",
          "name": "cofo",
          "type": "string"
        },
        {
          "internalType": "uint256",
          "name": "cofoDate",
          "type": "uint256"
        },
        {
          "internalType": "string",
          "name": "rofoHash",
          "type": "string"
        },
        {
          "internalType": "uint256",
          "name": "rofoDate",
          "type": "uint256"
        },
        {
          "internalType": "string",
          "name": "stateOfAdmin",
          "type": "string"
        }
      ],
      "name": "editLandDOcuments",
      "outputs": [
        {
          "internalType": "bool",
          "name": "",
          "type": "bool"
        }
      ],
      "stateMutability": "nonpayable",
      "type": "function"
    },
    {
      "inputs": [
        {
          "internalType": "string",
          "name": "name",
          "type": "string"
        },
        {
          "internalType": "string",
          "name": "gender",
          "type": "string"
        },
        {
          "internalType": "uint256",
          "name": "dob",
          "type": "uint256"
        },
        {
          "internalType": "string",
          "name": "ownerAddress",
          "type": "string"
        },
        {
          "internalType": "string",
          "name": "phone1",
          "type": "string"
        },
        {
          "internalType": "string",
          "name": "phone2",
          "type": "string"
        },
        {
          "internalType": "string",
          "name": "NIN",
          "type": "string"
        },
        {
          "internalType": "string",
          "name": "email",
          "type": "string"
        },
        {
          "internalType": "string",
          "name": "stateOfAdmin",
          "type": "string"
        },
        {
          "internalType": "address payable",
          "name": "wAddress",
          "type": "address"
        }
      ],
      "name": "registerOwner",
      "outputs": [
        {
          "internalType": "bool",
          "name": "",
          "type": "bool"
        }
      ],
      "stateMutability": "nonpayable",
      "type": "function"
    },
    {
      "inputs": [
        {
          "internalType": "uint256",
          "name": "id",
          "type": "uint256"
        }
      ],
      "name": "landInfoOwner",
      "outputs": [
        {
          "internalType": "string",
          "name": "",
          "type": "string"
        },
        {
          "internalType": "string",
          "name": "",
          "type": "string"
        },
        {
          "internalType": "string",
          "name": "",
          "type": "string"
        },
        {
          "internalType": "uint256",
          "name": "",
          "type": "uint256"
        },
        {
          "internalType": "uint256",
          "name": "",
          "type": "uint256"
        },
        {
          "internalType": "address",
          "name": "",
          "type": "address"
        },
        {
          "internalType": "uint256",
          "name": "",
          "type": "uint256"
        },
        {
          "internalType": "bool",
          "name": "",
          "type": "bool"
        },
        {
          "internalType": "address",
          "name": "",
          "type": "address"
        },
        {
          "internalType": "enum LandReg.reqStatus",
          "name": "",
          "type": "uint8"
        }
      ],
      "stateMutability": "view",
      "type": "function",
      "constant": true
    },
    {
      "inputs": [
        {
          "internalType": "uint256",
          "name": "id",
          "type": "uint256"
        }
      ],
      "name": "landInfoBuyer",
      "outputs": [
        {
          "internalType": "address",
          "name": "",
          "type": "address"
        },
        {
          "internalType": "uint256",
          "name": "",
          "type": "uint256"
        },
        {
          "internalType": "bool",
          "name": "",
          "type": "bool"
        },
        {
          "internalType": "address",
          "name": "",
          "type": "address"
        },
        {
          "internalType": "enum LandReg.reqStatus",
          "name": "",
          "type": "uint8"
        }
      ],
      "stateMutability": "view",
      "type": "function",
      "constant": true
    },
    {
      "inputs": [
        {
          "internalType": "string",
          "name": "state",
          "type": "string"
        },
        {
          "internalType": "string",
          "name": "district",
          "type": "string"
        },
        {
          "internalType": "string",
          "name": "cadzone",
          "type": "string"
        },
        {
          "internalType": "uint256",
          "name": "plotNumber",
          "type": "uint256"
        }
      ],
      "name": "computeId",
      "outputs": [
        {
          "internalType": "uint256",
          "name": "",
          "type": "uint256"
        }
      ],
      "stateMutability": "pure",
      "type": "function",
      "constant": true
    },
    {
      "inputs": [
        {
          "internalType": "uint256",
          "name": "id",
          "type": "uint256"
        }
      ],
      "name": "requstToLandOwner",
      "outputs": [],
      "stateMutability": "nonpayable",
      "type": "function"
    },
    {
      "inputs": [],
      "name": "viewAssets",
      "outputs": [
        {
          "internalType": "uint256[]",
          "name": "",
          "type": "uint256[]"
        }
      ],
      "stateMutability": "view",
      "type": "function",
      "constant": true
    },
    {
      "inputs": [
        {
          "internalType": "uint256",
          "name": "property",
          "type": "uint256"
        }
      ],
      "name": "viewRequest",
      "outputs": [
        {
          "internalType": "address",
          "name": "",
          "type": "address"
        }
      ],
      "stateMutability": "view",
      "type": "function",
      "constant": true
    },
    {
      "inputs": [
        {
          "internalType": "uint256",
          "name": "property",
          "type": "uint256"
        },
        {
          "internalType": "enum LandReg.reqStatus",
          "name": "status",
          "type": "uint8"
        }
      ],
      "name": "processRequest",
      "outputs": [],
      "stateMutability": "nonpayable",
      "type": "function"
    },
    {
      "inputs": [
        {
          "internalType": "uint256",
          "name": "property",
          "type": "uint256"
        }
      ],
      "name": "makeAvailable",
      "outputs": [],
      "stateMutability": "nonpayable",
      "type": "function"
    },
    {
      "inputs": [
        {
          "internalType": "uint256",
          "name": "property",
          "type": "uint256"
        }
      ],
      "name": "buyProperty",
      "outputs": [],
      "stateMutability": "payable",
      "type": "function",
      "payable": true
    },
    {
      "inputs": [
        {
          "internalType": "uint256",
          "name": "id",
          "type": "uint256"
        },
        {
          "internalType": "address",
          "name": "user",
          "type": "address"
        }
      ],
      "name": "findId",
      "outputs": [
        {
          "internalType": "uint256",
          "name": "",
          "type": "uint256"
        }
      ],
      "stateMutability": "view",
      "type": "function",
      "constant": true
    }
  ],
  "bytecode": "0x608060405234801561001057600080fd5b5033600360006101000a81548173ffffffffffffffffffffffffffffffffffffffff021916908373ffffffffffffffffffffffffffffffffffffffff160217905550600360009054906101000a900473ffffffffffffffffffffffffffffffffffffffff166000806101000a81548173ffffffffffffffffffffffffffffffffffffffff021916908373ffffffffffffffffffffffffffffffffffffffff1602179055506132c8806100c36000396000f3fe6080604052600436106100e85760003560e01c80636fa830a61161008a578063baa39e0511610059578063baa39e051461033e578063de53b45614610367578063e6d218d9146103a4578063fdb10f50146103e1576100e8565b80636fa830a614610267578063886734f71461028357806395d8debb146102c0578063a27664ee14610301576100e8565b806326e85250116100c657806326e852501461017e57806355d61952146101bb5780635e20bd4e146102015780636c5ed9391461023e576100e8565b806303825d6c146100ed5780630d2d5dca146101165780631d50a6c414610141575b600080fd5b3480156100f957600080fd5b50610114600480360381019061010f91906121f1565b61040a565b005b34801561012257600080fd5b5061012b6105cf565b6040516101389190612b09565b60405180910390f35b34801561014d57600080fd5b50610168600480360381019061016391906122f5565b610667565b6040516101759190612c77565b60405180910390f35b34801561018a57600080fd5b506101a560048036038101906101a09190612650565b6106b4565b6040516101b29190612a9b565b60405180910390f35b3480156101c757600080fd5b506101e260048036038101906101dd9190612650565b6106f4565b6040516101f89a99989796959493929190612b46565b60405180910390f35b34801561020d57600080fd5b5061022860048036038101906102239190612491565b610b96565b6040516102359190612b2b565b60405180910390f35b34801561024a57600080fd5b5061026560048036038101906102609190612650565b611152565b005b610281600480360381019061027c9190612650565b611244565b005b34801561028f57600080fd5b506102aa60048036038101906102a591906123b0565b61153f565b6040516102b79190612b2b565b60405180910390f35b3480156102cc57600080fd5b506102e760048036038101906102e29190612650565b6118ba565b6040516102f8959493929190612ab6565b60405180910390f35b34801561030d57600080fd5b506103286004803603810190610323919061267d565b6119a2565b6040516103359190612c77565b60405180910390f35b34801561034a57600080fd5b5061036560048036038101906103609190612650565b611a84565b005b34801561037357600080fd5b5061038e600480360381019061038991906126fd565b611b23565b60405161039b9190612b2b565b60405180910390f35b3480156103b057600080fd5b506103cb60048036038101906103c691906122ac565b611d3f565b6040516103d89190612a9b565b60405180910390f35b3480156103ed57600080fd5b50610408600480360381019061040391906126bd565b611d8a565b005b600360009054906101000a900473ffffffffffffffffffffffffffffffffffffffff1673ffffffffffffffffffffffffffffffffffffffff163373ffffffffffffffffffffffffffffffffffffffff161461046457600080fd5b82600460008673ffffffffffffffffffffffffffffffffffffffff1673ffffffffffffffffffffffffffffffffffffffff16815260200190815260200160002060000190805190602001906104ba92919061208a565b5081600460008673ffffffffffffffffffffffffffffffffffffffff1673ffffffffffffffffffffffffffffffffffffffff168152602001908152602001600020600101908051906020019061051192919061208a565b5080600460008673ffffffffffffffffffffffffffffffffffffffff1673ffffffffffffffffffffffffffffffffffffffff168152602001908152602001600020600201908051906020019061056892919061208a565b508360058360405161057a9190612a42565b908152602001604051809103902060000160006101000a81548173ffffffffffffffffffffffffffffffffffffffff021916908373ffffffffffffffffffffffffffffffffffffffff16021790555050505050565b6060600660003373ffffffffffffffffffffffffffffffffffffffff1673ffffffffffffffffffffffffffffffffffffffff16815260200190815260200160002060000180548060200260200160405190810160405280929190818152602001828054801561065d57602002820191906000526020600020905b815481526020019060010190808311610649575b5050505050905090565b60006509184e72a000858585856040516020016106879493929190612a59565b6040516020818303038152906040528051906020012060001c6106aa9190612f9a565b9050949350505050565b600060016000838152602001908152602001600020600b0160019054906101000a900473ffffffffffffffffffffffffffffffffffffffff169050919050565b6060806060600080600080600080600080600160008d8152602001908152602001600020604051806101e001604052908160008201805461073490612ee4565b80601f016020809104026020016040519081016040528092919081815260200182805461076090612ee4565b80156107ad5780601f10610782576101008083540402835291602001916107ad565b820191906000526020600020905b81548152906001019060200180831161079057829003601f168201915b505050505081526020016001820180546107c690612ee4565b80601f01602080910402602001604051908101604052809291908181526020018280546107f290612ee4565b801561083f5780601f106108145761010080835404028352916020019161083f565b820191906000526020600020905b81548152906001019060200180831161082257829003601f168201915b5050505050815260200160028201805461085890612ee4565b80601f016020809104026020016040519081016040528092919081815260200182805461088490612ee4565b80156108d15780601f106108a6576101008083540402835291602001916108d1565b820191906000526020600020905b8154815290600101906020018083116108b457829003601f168201915b5050505050815260200160038201548152602001600482015481526020016005820160009054906101000a900473ffffffffffffffffffffffffffffffffffffffff1673ffffffffffffffffffffffffffffffffffffffff1673ffffffffffffffffffffffffffffffffffffffff16815260200160068201805461095490612ee4565b80601f016020809104026020016040519081016040528092919081815260200182805461098090612ee4565b80156109cd5780601f106109a2576101008083540402835291602001916109cd565b820191906000526020600020905b8154815290600101906020018083116109b057829003601f168201915b50505050508152602001600782015481526020016008820180546109f090612ee4565b80601f0160208091040260200160405190810160405280929190818152602001828054610a1c90612ee4565b8015610a695780601f10610a3e57610100808354040283529160200191610a69565b820191906000526020600020905b815481529060010190602001808311610a4c57829003601f168201915b5050505050815260200160098201548152602001600a8201548152602001600b820160009054906101000a900460ff16151515158152602001600b820160019054906101000a900473ffffffffffffffffffffffffffffffffffffffff1673ffffffffffffffffffffffffffffffffffffffff1673ffffffffffffffffffffffffffffffffffffffff168152602001600b820160159054906101000a900460ff166003811115610b1c57610b1b613029565b5b6003811115610b2e57610b2d613029565b5b8152602001600c820154815250509050806000015181602001518260400151836060015184608001518560a00151866101400151876101600151886101800151896101a001519a509a509a509a509a509a509a509a509a509a50509193959799509193959799565b6000600360009054906101000a900473ffffffffffffffffffffffffffffffffffffffff1673ffffffffffffffffffffffffffffffffffffffff163373ffffffffffffffffffffffffffffffffffffffff1614610bf257600080fd5b3373ffffffffffffffffffffffffffffffffffffffff16600584604051610c199190612a42565b908152602001604051809103902060000160009054906101000a900473ffffffffffffffffffffffffffffffffffffffff1673ffffffffffffffffffffffffffffffffffffffff161480610cba57503373ffffffffffffffffffffffffffffffffffffffff16600360009054906101000a900473ffffffffffffffffffffffffffffffffffffffff1673ffffffffffffffffffffffffffffffffffffffff16145b610cf9576040517f08c379a0000000000000000000000000000000000000000000000000000000008152600401610cf090612c57565b60405180910390fd5b60007fc5d2460186f7233c927e7db2dcc703c0e500b653ca82273b7bfad8045d85a470905080600760008573ffffffffffffffffffffffffffffffffffffffff1673ffffffffffffffffffffffffffffffffffffffff168152602001908152602001600020600601604051610d6e9190612a2b565b60405180910390201480610dd7575080600760008573ffffffffffffffffffffffffffffffffffffffff1673ffffffffffffffffffffffffffffffffffffffff168152602001908152602001600020600701604051610dcd9190612a2b565b6040518091039020145b610e16576040517f08c379a0000000000000000000000000000000000000000000000000000000008152600401610e0d90612c37565b60405180910390fd5b8b600760008573ffffffffffffffffffffffffffffffffffffffff1673ffffffffffffffffffffffffffffffffffffffff1681526020019081526020016000206000019080519060200190610e6c92919061208a565b508a600760008573ffffffffffffffffffffffffffffffffffffffff1673ffffffffffffffffffffffffffffffffffffffff1681526020019081526020016000206001019080519060200190610ec392919061208a565b5089600760008573ffffffffffffffffffffffffffffffffffffffff1673ffffffffffffffffffffffffffffffffffffffff1681526020019081526020016000206002018190555088600760008573ffffffffffffffffffffffffffffffffffffffff1673ffffffffffffffffffffffffffffffffffffffff1681526020019081526020016000206003019080519060200190610f6192919061208a565b5087600760008573ffffffffffffffffffffffffffffffffffffffff1673ffffffffffffffffffffffffffffffffffffffff1681526020019081526020016000206004019080519060200190610fb892919061208a565b5086600760008573ffffffffffffffffffffffffffffffffffffffff1673ffffffffffffffffffffffffffffffffffffffff168152602001908152602001600020600501908051906020019061100f92919061208a565b5085600760008573ffffffffffffffffffffffffffffffffffffffff1673ffffffffffffffffffffffffffffffffffffffff168152602001908152602001600020600601908051906020019061106692919061208a565b5084600760008573ffffffffffffffffffffffffffffffffffffffff1673ffffffffffffffffffffffffffffffffffffffff16815260200190815260200160002060070190805190602001906110bd92919061208a565b5082600760008573ffffffffffffffffffffffffffffffffffffffff1673ffffffffffffffffffffffffffffffffffffffff16815260200190815260200160002060080160006101000a81548173ffffffffffffffffffffffffffffffffffffffff021916908373ffffffffffffffffffffffffffffffffffffffff16021790555060019150509a9950505050505050505050565b60016000828152602001908152602001600020600b0160009054906101000a900460ff1661117f57600080fd5b3360016000838152602001908152602001600020600b0160016101000a81548173ffffffffffffffffffffffffffffffffffffffff021916908373ffffffffffffffffffffffffffffffffffffffff160217905550600060016000838152602001908152602001600020600b0160006101000a81548160ff0219169083151502179055506001806000838152602001908152602001600020600b0160156101000a81548160ff0219169083600381111561123c5761123b613029565b5b021790555050565b60038081111561125757611256613029565b5b60016000838152602001908152602001600020600b0160159054906101000a900460ff16600381111561128d5761128c613029565b5b1461129757600080fd5b600a60016000838152602001908152602001600020600a01546112ba9190612dbe565b60016000838152602001908152602001600020600a01546112db9190612d68565b3410156112e757600080fd5b6001600082815260200190815260200160002060050160009054906101000a900473ffffffffffffffffffffffffffffffffffffffff1673ffffffffffffffffffffffffffffffffffffffff166108fc60016000848152602001908152602001600020600a01549081150290604051600060405180830381858888f19350505050158015611379573d6000803e3d6000fd5b506113ba6001600083815260200190815260200160002060050160009054906101000a900473ffffffffffffffffffffffffffffffffffffffff1682611efd565b336001600083815260200190815260200160002060050160006101000a81548173ffffffffffffffffffffffffffffffffffffffff021916908373ffffffffffffffffffffffffffffffffffffffff160217905550600060016000838152602001908152602001600020600b0160006101000a81548160ff021916908315150217905550600060016000838152602001908152602001600020600b0160016101000a81548173ffffffffffffffffffffffffffffffffffffffff021916908373ffffffffffffffffffffffffffffffffffffffff160217905550600060016000838152602001908152602001600020600b0160156101000a81548160ff021916908360038111156114ce576114cd613029565b5b0217905550600660003373ffffffffffffffffffffffffffffffffffffffff1673ffffffffffffffffffffffffffffffffffffffff16815260200190815260200160002060000181908060018154018082558091505060019003906000526020600020016000909190919091505550565b60003373ffffffffffffffffffffffffffffffffffffffff166005886040516115689190612a42565b908152602001604051809103902060000160009054906101000a900473ffffffffffffffffffffffffffffffffffffffff1673ffffffffffffffffffffffffffffffffffffffff16148061160957503373ffffffffffffffffffffffffffffffffffffffff16600360009054906101000a900473ffffffffffffffffffffffffffffffffffffffff1673ffffffffffffffffffffffffffffffffffffffff16145b611648576040517f08c379a000000000000000000000000000000000000000000000000000000000815260040161163f90612c57565b60405180910390fd5b600061165688888888610667565b905060006001600083815260200190815260200160002060040154148015611694575060006001600083815260200190815260200160002060030154145b6116d3576040517f08c379a00000000000000000000000000000000000000000000000000000000081526004016116ca90612c17565b60405180910390fd5b876001600083815260200190815260200160002060000190805190602001906116fd92919061208a565b508660016000838152602001908152602001600020600101908051906020019061172892919061208a565b508560016000838152602001908152602001600020600201908051906020019061175392919061208a565b50846001600083815260200190815260200160002060030181905550836001600083815260200190815260200160002060040181905550826001600083815260200190815260200160002060050160006101000a81548173ffffffffffffffffffffffffffffffffffffffff021916908373ffffffffffffffffffffffffffffffffffffffff1602179055508060016000838152602001908152602001600020600c018190555060028860405161180a9190612a42565b9081526020016040518091039020600001819080600181540180825580915050600190039060005260206000200160009091909190915055600660008473ffffffffffffffffffffffffffffffffffffffff1673ffffffffffffffffffffffffffffffffffffffff16815260200190815260200160002060000181908060018154018082558091505060019003906000526020600020016000909190919091505560019150509695505050505050565b60008060008060006001600087815260200190815260200160002060050160009054906101000a900473ffffffffffffffffffffffffffffffffffffffff1660016000888152602001908152602001600020600a015460016000898152602001908152602001600020600b0160009054906101000a900460ff16600160008a8152602001908152602001600020600b0160019054906101000a900473ffffffffffffffffffffffffffffffffffffffff16600160008b8152602001908152602001600020600b0160159054906101000a900460ff169450945094509450945091939590929450565b600080600090505b600660008473ffffffffffffffffffffffffffffffffffffffff1673ffffffffffffffffffffffffffffffffffffffff16815260200190815260200160002060000180549050811015611a795783600660008573ffffffffffffffffffffffffffffffffffffffff1673ffffffffffffffffffffffffffffffffffffffff1681526020019081526020016000206000018281548110611a4c57611a4b6130b6565b5b90600052602060002001541415611a665780915050611a7e565b8080611a7190612f47565b9150506119aa565b809150505b92915050565b3373ffffffffffffffffffffffffffffffffffffffff166001600083815260200190815260200160002060050160009054906101000a900473ffffffffffffffffffffffffffffffffffffffff1673ffffffffffffffffffffffffffffffffffffffff1614611af257600080fd5b6001806000838152602001908152602001600020600b0160006101000a81548160ff02191690831515021790555050565b60003373ffffffffffffffffffffffffffffffffffffffff16600583604051611b4c9190612a42565b908152602001604051809103902060000160009054906101000a900473ffffffffffffffffffffffffffffffffffffffff1673ffffffffffffffffffffffffffffffffffffffff161480611bed57503373ffffffffffffffffffffffffffffffffffffffff16600360009054906101000a900473ffffffffffffffffffffffffffffffffffffffff1673ffffffffffffffffffffffffffffffffffffffff16145b611c2c576040517f08c379a0000000000000000000000000000000000000000000000000000000008152600401611c2390612c57565b60405180910390fd5b6000600160008981526020019081526020016000206004015414158015611c6a57506000600160008981526020019081526020016000206003015414155b611ca9576040517f08c379a0000000000000000000000000000000000000000000000000000000008152600401611ca090612bf7565b60405180910390fd5b85600160008981526020019081526020016000206006019080519060200190611cd392919061208a565b5084600160008981526020019081526020016000206007018190555083600160008981526020019081526020016000206008019080519060200190611d1992919061208a565b508260016000898152602001908152602001600020600901819055509695505050505050565b6000600582604051611d519190612a42565b908152602001604051809103902060000160009054906101000a900473ffffffffffffffffffffffffffffffffffffffff169050919050565b3373ffffffffffffffffffffffffffffffffffffffff166001600084815260200190815260200160002060050160009054906101000a900473ffffffffffffffffffffffffffffffffffffffff1673ffffffffffffffffffffffffffffffffffffffff1614611df857600080fd5b8060016000848152602001908152602001600020600b0160156101000a81548160ff02191690836003811115611e3157611e30613029565b5b021790555060026003811115611e4a57611e49613029565b5b816003811115611e5d57611e5c613029565b5b1415611ef957600060016000848152602001908152602001600020600b0160016101000a81548173ffffffffffffffffffffffffffffffffffffffff021916908373ffffffffffffffffffffffffffffffffffffffff160217905550600060016000848152602001908152602001600020600b0160156101000a81548160ff02191690836003811115611ef357611ef2613029565b5b02179055505b5050565b6000611f0982846119a2565b9050600660008473ffffffffffffffffffffffffffffffffffffffff1673ffffffffffffffffffffffffffffffffffffffff1681526020019081526020016000206000016001600660008673ffffffffffffffffffffffffffffffffffffffff1673ffffffffffffffffffffffffffffffffffffffff16815260200190815260200160002060000180549050611f9f9190612def565b81548110611fb057611faf6130b6565b5b9060005260206000200154600660008573ffffffffffffffffffffffffffffffffffffffff1673ffffffffffffffffffffffffffffffffffffffff168152602001908152602001600020600001828154811061200f5761200e6130b6565b5b9060005260206000200181905550600660008473ffffffffffffffffffffffffffffffffffffffff1673ffffffffffffffffffffffffffffffffffffffff16815260200190815260200160002060000180548061206f5761206e613087565b5b60019003818190600052602060002001600090559055505050565b82805461209690612ee4565b90600052602060002090601f0160209004810192826120b857600085556120ff565b82601f106120d157805160ff19168380011785556120ff565b828001600101855582156120ff579182015b828111156120fe5782518255916020019190600101906120e3565b5b50905061210c9190612110565b5090565b5b80821115612129576000816000905550600101612111565b5090565b600061214061213b84612cb7565b612c92565b90508281526020810184848401111561215c5761215b613119565b5b612167848285612ea2565b509392505050565b60008135905061217e8161323d565b92915050565b60008135905061219381613254565b92915050565b6000813590506121a88161326b565b92915050565b600082601f8301126121c3576121c2613114565b5b81356121d384826020860161212d565b91505092915050565b6000813590506121eb8161327b565b92915050565b6000806000806080858703121561220b5761220a613123565b5b60006122198782880161216f565b945050602085013567ffffffffffffffff81111561223a5761223961311e565b5b612246878288016121ae565b935050604085013567ffffffffffffffff8111156122675761226661311e565b5b612273878288016121ae565b925050606085013567ffffffffffffffff8111156122945761229361311e565b5b6122a0878288016121ae565b91505092959194509250565b6000602082840312156122c2576122c1613123565b5b600082013567ffffffffffffffff8111156122e0576122df61311e565b5b6122ec848285016121ae565b91505092915050565b6000806000806080858703121561230f5761230e613123565b5b600085013567ffffffffffffffff81111561232d5761232c61311e565b5b612339878288016121ae565b945050602085013567ffffffffffffffff81111561235a5761235961311e565b5b612366878288016121ae565b935050604085013567ffffffffffffffff8111156123875761238661311e565b5b612393878288016121ae565b92505060606123a4878288016121dc565b91505092959194509250565b60008060008060008060c087890312156123cd576123cc613123565b5b600087013567ffffffffffffffff8111156123eb576123ea61311e565b5b6123f789828a016121ae565b965050602087013567ffffffffffffffff8111156124185761241761311e565b5b61242489828a016121ae565b955050604087013567ffffffffffffffff8111156124455761244461311e565b5b61245189828a016121ae565b945050606061246289828a016121dc565b935050608061247389828a016121dc565b92505060a061248489828a01612184565b9150509295509295509295565b6000806000806000806000806000806101408b8d0312156124b5576124b4613123565b5b60008b013567ffffffffffffffff8111156124d3576124d261311e565b5b6124df8d828e016121ae565b9a505060208b013567ffffffffffffffff811115612500576124ff61311e565b5b61250c8d828e016121ae565b995050604061251d8d828e016121dc565b98505060608b013567ffffffffffffffff81111561253e5761253d61311e565b5b61254a8d828e016121ae565b97505060808b013567ffffffffffffffff81111561256b5761256a61311e565b5b6125778d828e016121ae565b96505060a08b013567ffffffffffffffff8111156125985761259761311e565b5b6125a48d828e016121ae565b95505060c08b013567ffffffffffffffff8111156125c5576125c461311e565b5b6125d18d828e016121ae565b94505060e08b013567ffffffffffffffff8111156125f2576125f161311e565b5b6125fe8d828e016121ae565b9350506101008b013567ffffffffffffffff8111156126205761261f61311e565b5b61262c8d828e016121ae565b92505061012061263e8d828e01612184565b9150509295989b9194979a5092959850565b60006020828403121561266657612665613123565b5b6000612674848285016121dc565b91505092915050565b6000806040838503121561269457612693613123565b5b60006126a2858286016121dc565b92505060206126b38582860161216f565b9150509250929050565b600080604083850312156126d4576126d3613123565b5b60006126e2858286016121dc565b92505060206126f385828601612199565b9150509250929050565b60008060008060008060c0878903121561271a57612719613123565b5b600061272889828a016121dc565b965050602087013567ffffffffffffffff8111156127495761274861311e565b5b61275589828a016121ae565b955050604061276689828a016121dc565b945050606087013567ffffffffffffffff8111156127875761278661311e565b5b61279389828a016121ae565b93505060806127a489828a016121dc565b92505060a087013567ffffffffffffffff8111156127c5576127c461311e565b5b6127d189828a016121ae565b9150509295509295509295565b60006127ea83836129f6565b60208301905092915050565b6127ff81612e23565b82525050565b600061281082612d0d565b61281a8185612d30565b935061282583612ce8565b8060005b8381101561285657815161283d88826127de565b975061284883612d23565b925050600181019050612829565b5085935050505092915050565b61286c81612e47565b82525050565b6000815461287f81612ee4565b6128898186612d41565b945060018216600081146128a457600181146128b5576128e8565b60ff198316865281860193506128e8565b6128be85612cf8565b60005b838110156128e0578154818901526001820191506020810190506128c1565b838801955050505b50505092915050565b6128fa81612e90565b82525050565b600061290b82612d18565b6129158185612d4c565b9350612925818560208601612eb1565b61292e81613128565b840191505092915050565b600061294482612d18565b61294e8185612d5d565b935061295e818560208601612eb1565b80840191505092915050565b6000612977601c83612d4c565b915061298282613139565b602082019050919050565b600061299a602183612d4c565b91506129a582613162565b604082019050919050565b60006129bd601c83612d4c565b91506129c8826131b1565b602082019050919050565b60006129e0603283612d4c565b91506129eb826131da565b604082019050919050565b6129ff81612e86565b82525050565b612a0e81612e86565b82525050565b612a25612a2082612e86565b612f90565b82525050565b6000612a378284612872565b915081905092915050565b6000612a4e8284612939565b915081905092915050565b6000612a658287612939565b9150612a718286612939565b9150612a7d8285612939565b9150612a898284612a14565b60208201915081905095945050505050565b6000602082019050612ab060008301846127f6565b92915050565b600060a082019050612acb60008301886127f6565b612ad86020830187612a05565b612ae56040830186612863565b612af260608301856127f6565b612aff60808301846128f1565b9695505050505050565b60006020820190508181036000830152612b238184612805565b905092915050565b6000602082019050612b406000830184612863565b92915050565b6000610140820190508181036000830152612b61818d612900565b90508181036020830152612b75818c612900565b90508181036040830152612b89818b612900565b9050612b98606083018a612a05565b612ba56080830189612a05565b612bb260a08301886127f6565b612bbf60c0830187612a05565b612bcc60e0830186612863565b612bda6101008301856127f6565b612be86101208301846128f1565b9b9a5050505050505050505050565b60006020820190508181036000830152612c108161296a565b9050919050565b60006020820190508181036000830152612c308161298d565b9050919050565b60006020820190508181036000830152612c50816129b0565b9050919050565b60006020820190508181036000830152612c70816129d3565b9050919050565b6000602082019050612c8c6000830184612a05565b92915050565b6000612c9c612cad565b9050612ca88282612f16565b919050565b6000604051905090565b600067ffffffffffffffff821115612cd257612cd16130e5565b5b612cdb82613128565b9050602081019050919050565b6000819050602082019050919050565b60008190508160005260206000209050919050565b600081519050919050565b600081519050919050565b6000602082019050919050565b600082825260208201905092915050565b600081905092915050565b600082825260208201905092915050565b600081905092915050565b6000612d7382612e86565b9150612d7e83612e86565b9250827fffffffffffffffffffffffffffffffffffffffffffffffffffffffffffffffff03821115612db357612db2612fcb565b5b828201905092915050565b6000612dc982612e86565b9150612dd483612e86565b925082612de457612de3612ffa565b5b828204905092915050565b6000612dfa82612e86565b9150612e0583612e86565b925082821015612e1857612e17612fcb565b5b828203905092915050565b6000612e2e82612e66565b9050919050565b6000612e4082612e66565b9050919050565b60008115159050919050565b6000819050612e6182613229565b919050565b600073ffffffffffffffffffffffffffffffffffffffff82169050919050565b6000819050919050565b6000612e9b82612e53565b9050919050565b82818337600083830152505050565b60005b83811015612ecf578082015181840152602081019050612eb4565b83811115612ede576000848401525b50505050565b60006002820490506001821680612efc57607f821691505b60208210811415612f1057612f0f613058565b5b50919050565b612f1f82613128565b810181811067ffffffffffffffff82111715612f3e57612f3d6130e5565b5b80604052505050565b6000612f5282612e86565b91507fffffffffffffffffffffffffffffffffffffffffffffffffffffffffffffffff821415612f8557612f84612fcb565b5b600182019050919050565b6000819050919050565b6000612fa582612e86565b9150612fb083612e86565b925082612fc057612fbf612ffa565b5b828206905092915050565b7f4e487b7100000000000000000000000000000000000000000000000000000000600052601160045260246000fd5b7f4e487b7100000000000000000000000000000000000000000000000000000000600052601260045260246000fd5b7f4e487b7100000000000000000000000000000000000000000000000000000000600052602160045260246000fd5b7f4e487b7100000000000000000000000000000000000000000000000000000000600052602260045260246000fd5b7f4e487b7100000000000000000000000000000000000000000000000000000000600052603160045260246000fd5b7f4e487b7100000000000000000000000000000000000000000000000000000000600052603260045260246000fd5b7f4e487b7100000000000000000000000000000000000000000000000000000000600052604160045260246000fd5b600080fd5b600080fd5b600080fd5b600080fd5b6000601f19601f8301169050919050565b7f4e6f206c616e6420776974682074686973204944206578697374732e00000000600082015250565b7f4c616e642077697468207468697320494420616c72656164792065786973747360008201527f2e00000000000000000000000000000000000000000000000000000000000000602082015250565b7f54686973206163636f756e7420616c7265616479206578697374732e00000000600082015250565b7f4f6e6c792061646d696e732061726520616c6c6f77656420746f20706572666f60008201527f726d2074686973206f7065726174696f6e2e0000000000000000000000000000602082015250565b6004811061323a57613239613029565b5b50565b61324681612e23565b811461325157600080fd5b50565b61325d81612e35565b811461326857600080fd5b50565b6004811061327857600080fd5b50565b61328481612e86565b811461328f57600080fd5b5056fea26469706673582212206de299a6335b4ef4520c9603298f97045d3d9c366fa0856c6c2904f3728d9d6664736f6c63430008060033",
  "immutableReferences": {},
  "source": "// SPDX-License-Identifier: MIT\r\n\r\npragma solidity >=0.5.1 <= 0.8.6;\r\n\r\ncontract LandReg{\r\n    address superAdmin;\r\n\r\n    struct landDetails{\r\n        string state;\r\n        string district;\r\n        string cadzone;\r\n        uint256 plotNumber;\r\n        uint256 plotSize;  // * 4 decimal places\r\n        address payable currentOwner;\r\n        // Land Documents\r\n        string cofo;\r\n        uint cofoDate;\r\n        string rofoHash;\r\n        uint rofoDate;\r\n        // Buy and sell\r\n        uint marketValue;\r\n        bool isAvailable;\r\n        address requester;\r\n        reqStatus requestStatus; \r\n        uint id;\r\n    }\r\n\r\n    struct ownerDetails {\r\n        string name;\r\n        string gender;\r\n        uint dob;\r\n        string ownerAddress;\r\n        string phone1;\r\n        string phone2;\r\n        string NIN;\r\n        string email;\r\n        address payable wAddress;\r\n    }\r\n\r\n    struct adminDetails {\r\n        string name;\r\n        string state;\r\n        string district;\r\n    }\r\n    struct adminState {\r\n        address adminAddress;\r\n    }\r\n\r\n    //request status\r\n    enum reqStatus { Default, pending, reject, approved }\r\n\r\n    //profile of a client\r\n    struct profiles{\r\n        uint[] assetList;   \r\n    }\r\n\r\n    struct landState {\r\n        uint[] ids;\r\n    }\r\n\r\n    mapping(uint => landDetails) lands;\r\n    mapping(string => landState) landStates; // Push land ids inside their respestive states\r\n    address owner;\r\n    mapping( address => adminDetails) admins;\r\n    mapping(string => adminState) adminStates;\r\n    mapping( address => profiles) profile;\r\n\r\n    mapping( address => ownerDetails ) owners;\r\n    \r\n    //contract owner\r\n    constructor() {\r\n        owner = msg.sender;\r\n        superAdmin = owner;\r\n    }\r\n\r\n    modifier onlyOwner {\r\n        require(msg.sender == owner);\r\n        _;\r\n    }\r\n    \r\n    //adding region admins\r\n    function addAdmin( address admin, string memory name, string memory state, string memory district ) onlyOwner public {\r\n        admins[admin].name = name;\r\n        admins[admin].state = state;\r\n        admins[admin].district = district;\r\n\r\n        adminStates[state].adminAddress = admin;\r\n    }\r\n\r\n    function getAdmin(string memory state) public view returns(address){\r\n        return adminStates[state].adminAddress;\r\n    }\r\n\r\n    //Registration of land details.\r\n    function registerLand(\r\n        string memory state,\r\n        string memory district,\r\n        string memory cadzone,\r\n        uint plotNumber,\r\n        uint plotSize,\r\n        address payable wAddress\r\n        ) public returns(bool) {\r\n        require(adminStates[state].adminAddress == msg.sender || owner == msg.sender, \"Only admins are allowed to perform this operation.\");\r\n        uint id = computeId(state,district,cadzone,plotNumber);\r\n        require(lands[id].plotSize == 0 && lands[id].plotNumber == 0, \"Land with this ID already exists.\");\r\n        lands[id].state = state;\r\n        lands[id].district = district;\r\n        lands[id].cadzone = cadzone;\r\n        \r\n        lands[id].plotNumber = plotNumber;\r\n        lands[id].plotSize = plotSize;\r\n        lands[id].currentOwner = wAddress;\r\n\r\n        lands[id].id = id;\r\n        landStates[state].ids.push(id);\r\n\r\n        profile[wAddress].assetList.push(id);\r\n        return true;\r\n    }\r\n\r\n    function editLandDOcuments(\r\n        uint id,\r\n        string memory cofo,\r\n        uint cofoDate,\r\n        string memory rofoHash,\r\n        uint  rofoDate,\r\n        string memory stateOfAdmin\r\n    ) public returns (bool) {\r\n        require(adminStates[stateOfAdmin].adminAddress == msg.sender || owner == msg.sender, \"Only admins are allowed to perform this operation.\");\r\n        require(lands[id].plotSize != 0 && lands[id].plotNumber != 0, \"No land with this ID exists.\");\r\n\r\n        lands[id].cofo = cofo;\r\n        lands[id].cofoDate = cofoDate;\r\n        lands[id].rofoHash = rofoHash;\r\n        lands[id].rofoDate = rofoDate;\r\n\r\n\r\n    }\r\n\r\n    function registerOwner(\r\n        string memory name,\r\n        string memory gender,\r\n        uint dob,\r\n        string memory ownerAddress,\r\n        string memory phone1,\r\n        string memory phone2,\r\n        string memory NIN,\r\n        string memory email,\r\n        string memory stateOfAdmin,\r\n        address payable wAddress\r\n    ) onlyOwner public returns (bool){\r\n        require(adminStates[stateOfAdmin].adminAddress == msg.sender || owner == msg.sender, \"Only admins are allowed to perform this operation.\");\r\n        bytes32 emptyHash = keccak256(\"\");\r\n        require( keccak256(bytes(owners[wAddress].NIN)) == emptyHash || keccak256(bytes(owners[wAddress].email)) == emptyHash, \"This account already exists.\");\r\n\r\n        owners[wAddress].name = name;\r\n        owners[wAddress].gender = gender;\r\n        owners[wAddress].dob = dob;\r\n        owners[wAddress].ownerAddress = ownerAddress;\r\n        owners[wAddress].phone1 = phone1;\r\n        owners[wAddress].phone2 = phone2;\r\n        owners[wAddress].NIN = NIN;\r\n        owners[wAddress].email = email;\r\n        owners[wAddress].wAddress = wAddress;\r\n\r\n        return true;\r\n    }\r\n\r\n    //to view details of land for the owner\r\n    function landInfoOwner(uint id) public view returns(string memory,string memory,string memory,uint,uint,address,uint, bool,address,reqStatus){\r\n        landDetails memory lands_local = lands[id];\r\n        return(\r\n            lands_local.state,\r\n            lands_local.district,\r\n            lands_local.cadzone,\r\n            lands_local.plotNumber,\r\n            lands_local.plotSize,\r\n            lands_local.currentOwner,\r\n            lands_local.marketValue,\r\n            lands_local.isAvailable,\r\n            lands_local.requester,\r\n            lands_local.requestStatus\r\n            );\r\n    }\r\n    \r\n    //to view details of land for the buyer\r\n    function landInfoBuyer(uint id) public view returns(address,uint,bool,address,reqStatus){\r\n        return(lands[id].currentOwner, lands[id].marketValue, lands[id].isAvailable, lands[id].requester, lands[id].requestStatus);\r\n    }\r\n\r\n    // to compute id for a land.\r\n    function computeId(string memory state, string memory district, string memory cadzone, uint plotNumber) public pure returns(uint){\r\n        return uint(keccak256(abi.encodePacked(state, district, cadzone, plotNumber)))%10000000000000;\r\n    }\r\n\r\n    //push a request to the land owner\r\n    function requstToLandOwner(uint id) public {\r\n        require(lands[id].isAvailable);\r\n        lands[id].requester = msg.sender;\r\n        lands[id].isAvailable = false;\r\n        lands[id].requestStatus = reqStatus.pending; //changes the status to pending.\r\n    }\r\n    //will show assets of the function caller \r\n    function viewAssets()public view returns(uint[] memory){\r\n        return (profile[msg.sender].assetList);\r\n    }\r\n    //viewing request for the lands\r\n    function viewRequest(uint property)public view returns(address){\r\n        return(lands[property].requester);\r\n    }\r\n    //processing request for the land by accepting or rejecting\r\n    function processRequest(uint property,reqStatus status) public {\r\n        require(lands[property].currentOwner == msg.sender);\r\n        lands[property].requestStatus = status;\r\n        if(status == reqStatus.reject){\r\n            lands[property].requester = address(0);\r\n            lands[property].requestStatus = reqStatus.Default;\r\n        }\r\n    }\r\n    //availing lands for sale.\r\n    function makeAvailable(uint property)public{\r\n        require(lands[property].currentOwner == msg.sender);\r\n        lands[property].isAvailable=true;\r\n    } \r\n\r\n    //buying the approved property\r\n    function buyProperty(uint property)public payable{\r\n        require(lands[property].requestStatus == reqStatus.approved);\r\n        require(msg.value >= (lands[property].marketValue+((lands[property].marketValue)/10)));\r\n        lands[property].currentOwner.transfer(lands[property].marketValue);\r\n        removeOwnership(lands[property].currentOwner,property);\r\n        lands[property].currentOwner=payable(msg.sender);\r\n        lands[property].isAvailable=false;\r\n        lands[property].requester = address(0);\r\n        lands[property].requestStatus = reqStatus.Default;\r\n        profile[msg.sender].assetList.push(property); //adds the property to the asset list of the new owner.\r\n        \r\n    }\r\n    //removing the ownership of seller for the lands. and it is called by the buyProperty function\r\n    function removeOwnership(address previousOwner,uint id)private{\r\n        uint index = findId(id,previousOwner);\r\n        profile[previousOwner].assetList[index]=profile[previousOwner].assetList[profile[previousOwner].assetList.length-1];\r\n        profile[previousOwner].assetList.pop();\r\n    }\r\n    //for finding the index of a perticular id\r\n    function findId(uint id,address user)public view returns(uint){\r\n        uint i;\r\n        for(i=0;i<profile[user].assetList.length;i++){\r\n            if(profile[user].assetList[i] == id)\r\n                return i;\r\n        }\r\n        return i;\r\n    }\r\n}",
  "sourcePath": "C:/Mine/Sources/eth/SanniMSc/begin-real/contracts/LandReg.sol",
  "compiler": {
    "name": "solc",
    "version": "0.8.6+commit.11564f7e.Emscripten.clang"
  },
  "schemaVersion": "3.4.1",
  "updatedAt": "2021-07-18T12:49:14.042Z",
  "networkType": "ethereum",
  "devdoc": {
    "kind": "dev",
    "methods": {},
    "version": 1
  },
  "userdoc": {
    "kind": "user",
    "methods": {},
    "version": 1
  }
}