{
  "contractName": "LandReg",
  "abi": [
    {
      "inputs": [],
      "stateMutability": "nonpayable",
      "type": "constructor"
    },
    {
      "inputs": [
        {
          "internalType": "address",
          "name": "admin",
          "type": "address"
        },
        {
          "internalType": "string",
          "name": "name",
          "type": "string"
        },
        {
          "internalType": "string",
          "name": "state",
          "type": "string"
        },
        {
          "internalType": "string",
          "name": "district",
          "type": "string"
        }
      ],
      "name": "addAdmin",
      "outputs": [],
      "stateMutability": "nonpayable",
      "type": "function"
    },
    {
      "inputs": [
        {
          "internalType": "string",
          "name": "state",
          "type": "string"
        }
      ],
      "name": "getAdmin",
      "outputs": [
        {
          "internalType": "address",
          "name": "",
          "type": "address"
        }
      ],
      "stateMutability": "view",
      "type": "function",
      "constant": true
    },
    {
      "inputs": [
        {
          "internalType": "string",
          "name": "state",
          "type": "string"
        },
        {
          "internalType": "string",
          "name": "district",
          "type": "string"
        },
        {
          "internalType": "string",
          "name": "cadzone",
          "type": "string"
        },
        {
          "internalType": "uint256",
          "name": "plotNumber",
          "type": "uint256"
        },
        {
          "internalType": "uint256",
          "name": "plotSize",
          "type": "uint256"
        },
        {
          "internalType": "address payable",
          "name": "wAddress",
          "type": "address"
        }
      ],
      "name": "registerLand",
      "outputs": [
        {
          "internalType": "bool",
          "name": "",
          "type": "bool"
        }
      ],
      "stateMutability": "nonpayable",
      "type": "function"
    },
    {
      "inputs": [
        {
          "internalType": "string",
          "name": "id",
          "type": "string"
        },
        {
          "internalType": "string",
          "name": "cofo",
          "type": "string"
        },
        {
          "internalType": "uint256",
          "name": "cofoDate",
          "type": "uint256"
        },
        {
          "internalType": "string",
          "name": "rofoHash",
          "type": "string"
        },
        {
          "internalType": "uint256",
          "name": "rofoDate",
          "type": "uint256"
        },
        {
          "internalType": "string",
          "name": "certNumber",
          "type": "string"
        },
        {
          "internalType": "string",
          "name": "stateOfAdmin",
          "type": "string"
        }
      ],
      "name": "editLandDocuments",
      "outputs": [
        {
          "internalType": "bool",
          "name": "",
          "type": "bool"
        }
      ],
      "stateMutability": "nonpayable",
      "type": "function"
    },
    {
      "inputs": [
        {
          "internalType": "string",
          "name": "name",
          "type": "string"
        },
        {
          "internalType": "string",
          "name": "gender",
          "type": "string"
        },
        {
          "internalType": "uint256",
          "name": "dob",
          "type": "uint256"
        },
        {
          "internalType": "string",
          "name": "ownerAddress",
          "type": "string"
        },
        {
          "internalType": "string",
          "name": "phone1",
          "type": "string"
        },
        {
          "internalType": "string",
          "name": "phone2",
          "type": "string"
        },
        {
          "internalType": "string",
          "name": "NIN",
          "type": "string"
        },
        {
          "internalType": "string",
          "name": "email",
          "type": "string"
        },
        {
          "internalType": "string",
          "name": "stateOfAdmin",
          "type": "string"
        },
        {
          "internalType": "address payable",
          "name": "wAddress",
          "type": "address"
        }
      ],
      "name": "registerOwner",
      "outputs": [
        {
          "internalType": "bool",
          "name": "",
          "type": "bool"
        }
      ],
      "stateMutability": "nonpayable",
      "type": "function"
    },
    {
      "inputs": [
        {
          "internalType": "string",
          "name": "id",
          "type": "string"
        }
      ],
      "name": "landInfoFull",
      "outputs": [
        {
          "internalType": "string",
          "name": "state",
          "type": "string"
        },
        {
          "internalType": "string",
          "name": "district",
          "type": "string"
        },
        {
          "internalType": "string",
          "name": "cadzone",
          "type": "string"
        },
        {
          "internalType": "uint256",
          "name": "plotNumber",
          "type": "uint256"
        },
        {
          "internalType": "uint256",
          "name": "plotSize",
          "type": "uint256"
        },
        {
          "internalType": "address",
          "name": "currentOwner",
          "type": "address"
        },
        {
          "internalType": "uint256",
          "name": "marketValue",
          "type": "uint256"
        },
        {
          "internalType": "bool",
          "name": "isAvailable",
          "type": "bool"
        },
        {
          "internalType": "address",
          "name": "requester",
          "type": "address"
        },
        {
          "internalType": "enum LandReg.reqStatus",
          "name": "requestStatus",
          "type": "uint8"
        },
        {
          "internalType": "bool",
          "name": "isCertified",
          "type": "bool"
        }
      ],
      "stateMutability": "view",
      "type": "function",
      "constant": true
    },
    {
      "inputs": [
        {
          "internalType": "address",
          "name": "wAddress",
          "type": "address"
        }
      ],
      "name": "ownerInfo",
      "outputs": [
        {
          "internalType": "string",
          "name": "name",
          "type": "string"
        },
        {
          "internalType": "string",
          "name": "gender",
          "type": "string"
        },
        {
          "internalType": "uint256",
          "name": "dob",
          "type": "uint256"
        },
        {
          "internalType": "string",
          "name": "ownerAddress",
          "type": "string"
        },
        {
          "internalType": "string",
          "name": "phone1",
          "type": "string"
        },
        {
          "internalType": "string",
          "name": "phone2",
          "type": "string"
        },
        {
          "internalType": "string",
          "name": "NIN",
          "type": "string"
        },
        {
          "internalType": "string",
          "name": "email",
          "type": "string"
        }
      ],
      "stateMutability": "view",
      "type": "function",
      "constant": true
    },
    {
      "inputs": [
        {
          "internalType": "string",
          "name": "id",
          "type": "string"
        }
      ],
      "name": "landDocumentsInfo",
      "outputs": [
        {
          "internalType": "string",
          "name": "cofo",
          "type": "string"
        },
        {
          "internalType": "uint256",
          "name": "cofoDate",
          "type": "uint256"
        },
        {
          "internalType": "string",
          "name": "rofoHash",
          "type": "string"
        },
        {
          "internalType": "uint256",
          "name": "rofoDate",
          "type": "uint256"
        },
        {
          "internalType": "string",
          "name": "certNumber",
          "type": "string"
        },
        {
          "internalType": "bool",
          "name": "isCertified",
          "type": "bool"
        }
      ],
      "stateMutability": "view",
      "type": "function",
      "constant": true
    },
    {
      "inputs": [
        {
          "internalType": "string",
          "name": "state",
          "type": "string"
        }
      ],
      "name": "landInfoStates",
      "outputs": [
        {
          "internalType": "string[]",
          "name": "state_ids",
          "type": "string[]"
        }
      ],
      "stateMutability": "view",
      "type": "function",
      "constant": true
    },
    {
      "inputs": [
        {
          "internalType": "string",
          "name": "id",
          "type": "string"
        }
      ],
      "name": "landInfoBuyer",
      "outputs": [
        {
          "internalType": "address",
          "name": "",
          "type": "address"
        },
        {
          "internalType": "uint256",
          "name": "",
          "type": "uint256"
        },
        {
          "internalType": "bool",
          "name": "",
          "type": "bool"
        },
        {
          "internalType": "address",
          "name": "",
          "type": "address"
        },
        {
          "internalType": "enum LandReg.reqStatus",
          "name": "",
          "type": "uint8"
        }
      ],
      "stateMutability": "view",
      "type": "function",
      "constant": true
    },
    {
      "inputs": [
        {
          "internalType": "string",
          "name": "state",
          "type": "string"
        },
        {
          "internalType": "string",
          "name": "district",
          "type": "string"
        },
        {
          "internalType": "string",
          "name": "cadzone",
          "type": "string"
        },
        {
          "internalType": "uint256",
          "name": "plotNumber",
          "type": "uint256"
        }
      ],
      "name": "computeId",
      "outputs": [
        {
          "internalType": "uint256",
          "name": "",
          "type": "uint256"
        }
      ],
      "stateMutability": "pure",
      "type": "function",
      "constant": true
    },
    {
      "inputs": [
        {
          "internalType": "address",
          "name": "wAddress",
          "type": "address"
        }
      ],
      "name": "viewAssets",
      "outputs": [
        {
          "internalType": "string[]",
          "name": "",
          "type": "string[]"
        }
      ],
      "stateMutability": "view",
      "type": "function",
      "constant": true
    },
    {
      "inputs": [
        {
          "internalType": "string",
          "name": "id",
          "type": "string"
        }
      ],
      "name": "requstToLandOwner",
      "outputs": [],
      "stateMutability": "nonpayable",
      "type": "function"
    },
    {
      "inputs": [
        {
          "internalType": "string",
          "name": "property",
          "type": "string"
        }
      ],
      "name": "viewRequest",
      "outputs": [
        {
          "internalType": "address",
          "name": "",
          "type": "address"
        }
      ],
      "stateMutability": "view",
      "type": "function",
      "constant": true
    },
    {
      "inputs": [
        {
          "internalType": "string",
          "name": "property",
          "type": "string"
        },
        {
          "internalType": "enum LandReg.reqStatus",
          "name": "status",
          "type": "uint8"
        }
      ],
      "name": "processRequest",
      "outputs": [],
      "stateMutability": "nonpayable",
      "type": "function"
    },
    {
      "inputs": [
        {
          "internalType": "string",
          "name": "property",
          "type": "string"
        }
      ],
      "name": "makeAvailable",
      "outputs": [],
      "stateMutability": "nonpayable",
      "type": "function"
    },
    {
      "inputs": [
        {
          "internalType": "string",
          "name": "property",
          "type": "string"
        }
      ],
      "name": "buyProperty",
      "outputs": [],
      "stateMutability": "payable",
      "type": "function",
      "payable": true
    },
    {
      "inputs": [
        {
          "internalType": "string",
          "name": "id",
          "type": "string"
        },
        {
          "internalType": "address",
          "name": "user",
          "type": "address"
        }
      ],
      "name": "findId",
      "outputs": [
        {
          "internalType": "uint256",
          "name": "",
          "type": "uint256"
        }
      ],
      "stateMutability": "view",
      "type": "function",
      "constant": true
    },
    {
      "inputs": [
        {
          "internalType": "string",
          "name": "a",
          "type": "string"
        },
        {
          "internalType": "string",
          "name": "b",
          "type": "string"
        }
      ],
      "name": "compareStrings",
      "outputs": [
        {
          "internalType": "bool",
          "name": "",
          "type": "bool"
        }
      ],
      "stateMutability": "pure",
      "type": "function",
      "constant": true
    }
  ],
  "bytecode": "0x608060405234801561001057600080fd5b5033600360006101000a81548173ffffffffffffffffffffffffffffffffffffffff021916908373ffffffffffffffffffffffffffffffffffffffff160217905550600360009054906101000a900473ffffffffffffffffffffffffffffffffffffffff166000806101000a81548173ffffffffffffffffffffffffffffffffffffffff021916908373ffffffffffffffffffffffffffffffffffffffff160217905550614d88806100c36000396000f3fe6080604052600436106101145760003560e01c8063886734f7116100a0578063d1d184b611610064578063d1d184b61461042f578063e6d218d914610476578063e8fc71b0146104b3578063ecbef164146104f0578063f3dd44541461050c57610114565b8063886734f71461030657806399b79dff14610343578063b83e16051461036c578063b9e9ad27146103b0578063bed34bba146103f257610114565b80633f4b8f51116100e75780633f4b8f51146101e557806340c785d2146102265780634ef3eb3c146102635780635e20bd4e1461028c578063623f27c9146102c957610114565b806303825d6c14610119578063086c435f146101425780631d50a6c41461016b578063260d62c3146101a8575b600080fd5b34801561012557600080fd5b50610140600480360381019061013b9190613955565b610549565b005b34801561014e57600080fd5b5061016960048036038101906101649190613ab5565b61070e565b005b34801561017757600080fd5b50610192600480360381019061018d9190613b89565b6108ad565b60405161019f919061465f565b60405180910390f35b3480156101b457600080fd5b506101cf60048036038101906101ca9190613928565b6108fa565b6040516101dc919061439d565b60405180910390f35b3480156101f157600080fd5b5061020c60048036038101906102079190613a10565b610a15565b60405161021d95949392919061434a565b60405180910390f35b34801561023257600080fd5b5061024d60048036038101906102489190613a59565b610b34565b60405161025a919061465f565b60405180910390f35b34801561026f57600080fd5b5061028a60048036038101906102859190613a10565b610ca5565b005b34801561029857600080fd5b506102b360048036038101906102ae9190613d25565b610dc3565b6040516102c091906143bf565b60405180910390f35b3480156102d557600080fd5b506102f060048036038101906102eb9190613a10565b61137f565b6040516102fd919061432f565b60405180910390f35b34801561031257600080fd5b5061032d60048036038101906103289190613c44565b6113ca565b60405161033a91906143bf565b60405180910390f35b34801561034f57600080fd5b5061036a60048036038101906103659190613a10565b6117ec565b005b34801561037857600080fd5b50610393600480360381019061038e9190613928565b6118a1565b6040516103a798979695949392919061449a565b60405180910390f35b3480156103bc57600080fd5b506103d760048036038101906103d29190613a10565b611ec2565b6040516103e996959493929190614549565b60405180910390f35b3480156103fe57600080fd5b5061041960048036038101906104149190613b11565b612513565b60405161042691906143bf565b60405180910390f35b34801561043b57600080fd5b5061045660048036038101906104519190613a10565b61256c565b60405161046d9b9a999897969594939291906143da565b60405180910390f35b34801561048257600080fd5b5061049d60048036038101906104989190613a10565b612bb2565b6040516104aa919061432f565b60405180910390f35b3480156104bf57600080fd5b506104da60048036038101906104d59190613ee4565b612bfd565b6040516104e791906143bf565b60405180910390f35b61050a60048036038101906105059190613a10565b612f4d565b005b34801561051857600080fd5b50610533600480360381019061052e9190613a10565b6132c9565b604051610540919061439d565b60405180910390f35b600360009054906101000a900473ffffffffffffffffffffffffffffffffffffffff1673ffffffffffffffffffffffffffffffffffffffff163373ffffffffffffffffffffffffffffffffffffffff16146105a357600080fd5b82600460008673ffffffffffffffffffffffffffffffffffffffff1673ffffffffffffffffffffffffffffffffffffffff16815260200190815260200160002060000190805190602001906105f99291906136f4565b5081600460008673ffffffffffffffffffffffffffffffffffffffff1673ffffffffffffffffffffffffffffffffffffffff16815260200190815260200160002060010190805190602001906106509291906136f4565b5080600460008673ffffffffffffffffffffffffffffffffffffffff1673ffffffffffffffffffffffffffffffffffffffff16815260200190815260200160002060020190805190602001906106a79291906136f4565b50836005836040516106b991906142d6565b908152602001604051809103902060000160006101000a81548173ffffffffffffffffffffffffffffffffffffffff021916908373ffffffffffffffffffffffffffffffffffffffff16021790555050505050565b3373ffffffffffffffffffffffffffffffffffffffff1660018360405161073591906142d6565b908152602001604051809103902060050160009054906101000a900473ffffffffffffffffffffffffffffffffffffffff1673ffffffffffffffffffffffffffffffffffffffff161461078757600080fd5b8060018360405161079891906142d6565b9081526020016040518091039020600c0160156101000a81548160ff021916908360038111156107cb576107ca614ac0565b5b0217905550600260038111156107e4576107e3614ac0565b5b8160038111156107f7576107f6614ac0565b5b14156108a957600060018360405161080f91906142d6565b9081526020016040518091039020600c0160016101000a81548173ffffffffffffffffffffffffffffffffffffffff021916908373ffffffffffffffffffffffffffffffffffffffff160217905550600060018360405161087091906142d6565b9081526020016040518091039020600c0160156101000a81548160ff021916908360038111156108a3576108a2614ac0565b5b02179055505b5050565b60006509184e72a000858585856040516020016108cd94939291906142ed565b6040516020818303038152906040528051906020012060001c6108f09190614a31565b9050949350505050565b6060600660008373ffffffffffffffffffffffffffffffffffffffff1673ffffffffffffffffffffffffffffffffffffffff168152602001908152602001600020600001805480602002602001604051908101604052809291908181526020016000905b82821015610a0a57838290600052602060002001805461097d9061497b565b80601f01602080910402602001604051908101604052809291908181526020018280546109a99061497b565b80156109f65780601f106109cb576101008083540402835291602001916109f6565b820191906000526020600020905b8154815290600101906020018083116109d957829003601f168201915b50505050508152602001906001019061095e565b505050509050919050565b6000806000806000600186604051610a2d91906142d6565b908152602001604051809103902060050160009054906101000a900473ffffffffffffffffffffffffffffffffffffffff16600187604051610a6f91906142d6565b9081526020016040518091039020600b0154600188604051610a9191906142d6565b9081526020016040518091039020600c0160009054906101000a900460ff16600189604051610ac091906142d6565b9081526020016040518091039020600c0160019054906101000a900473ffffffffffffffffffffffffffffffffffffffff1660018a604051610b0291906142d6565b9081526020016040518091039020600c0160159054906101000a900460ff169450945094509450945091939590929450565b600080600090505b600660008473ffffffffffffffffffffffffffffffffffffffff1673ffffffffffffffffffffffffffffffffffffffff16815260200190815260200160002060000180549050811015610c9a57610c79600660008573ffffffffffffffffffffffffffffffffffffffff1673ffffffffffffffffffffffffffffffffffffffff1681526020019081526020016000206000018281548110610be057610bdf614b4d565b5b906000526020600020018054610bf59061497b565b80601f0160208091040260200160405190810160405280929190818152602001828054610c219061497b565b8015610c6e5780601f10610c4357610100808354040283529160200191610c6e565b820191906000526020600020905b815481529060010190602001808311610c5157829003601f168201915b505050505085612513565b15610c875780915050610c9f565b8080610c92906149de565b915050610b3c565b809150505b92915050565b600181604051610cb591906142d6565b9081526020016040518091039020600c0160009054906101000a900460ff16610cdd57600080fd5b33600182604051610cee91906142d6565b9081526020016040518091039020600c0160016101000a81548173ffffffffffffffffffffffffffffffffffffffff021916908373ffffffffffffffffffffffffffffffffffffffff1602179055506000600182604051610d4f91906142d6565b9081526020016040518091039020600c0160006101000a81548160ff02191690831515021790555060018082604051610d8891906142d6565b9081526020016040518091039020600c0160156101000a81548160ff02191690836003811115610dbb57610dba614ac0565b5b021790555050565b6000600360009054906101000a900473ffffffffffffffffffffffffffffffffffffffff1673ffffffffffffffffffffffffffffffffffffffff163373ffffffffffffffffffffffffffffffffffffffff1614610e1f57600080fd5b3373ffffffffffffffffffffffffffffffffffffffff16600584604051610e4691906142d6565b908152602001604051809103902060000160009054906101000a900473ffffffffffffffffffffffffffffffffffffffff1673ffffffffffffffffffffffffffffffffffffffff161480610ee757503373ffffffffffffffffffffffffffffffffffffffff16600360009054906101000a900473ffffffffffffffffffffffffffffffffffffffff1673ffffffffffffffffffffffffffffffffffffffff16145b610f26576040517f08c379a0000000000000000000000000000000000000000000000000000000008152600401610f1d9061463f565b60405180910390fd5b60007fc5d2460186f7233c927e7db2dcc703c0e500b653ca82273b7bfad8045d85a470905080600760008573ffffffffffffffffffffffffffffffffffffffff1673ffffffffffffffffffffffffffffffffffffffff168152602001908152602001600020600601604051610f9b91906142bf565b60405180910390201480611004575080600760008573ffffffffffffffffffffffffffffffffffffffff1673ffffffffffffffffffffffffffffffffffffffff168152602001908152602001600020600701604051610ffa91906142bf565b6040518091039020145b611043576040517f08c379a000000000000000000000000000000000000000000000000000000000815260040161103a9061461f565b60405180910390fd5b8b600760008573ffffffffffffffffffffffffffffffffffffffff1673ffffffffffffffffffffffffffffffffffffffff16815260200190815260200160002060000190805190602001906110999291906136f4565b508a600760008573ffffffffffffffffffffffffffffffffffffffff1673ffffffffffffffffffffffffffffffffffffffff16815260200190815260200160002060010190805190602001906110f09291906136f4565b5089600760008573ffffffffffffffffffffffffffffffffffffffff1673ffffffffffffffffffffffffffffffffffffffff1681526020019081526020016000206002018190555088600760008573ffffffffffffffffffffffffffffffffffffffff1673ffffffffffffffffffffffffffffffffffffffff168152602001908152602001600020600301908051906020019061118e9291906136f4565b5087600760008573ffffffffffffffffffffffffffffffffffffffff1673ffffffffffffffffffffffffffffffffffffffff16815260200190815260200160002060040190805190602001906111e59291906136f4565b5086600760008573ffffffffffffffffffffffffffffffffffffffff1673ffffffffffffffffffffffffffffffffffffffff168152602001908152602001600020600501908051906020019061123c9291906136f4565b5085600760008573ffffffffffffffffffffffffffffffffffffffff1673ffffffffffffffffffffffffffffffffffffffff16815260200190815260200160002060060190805190602001906112939291906136f4565b5084600760008573ffffffffffffffffffffffffffffffffffffffff1673ffffffffffffffffffffffffffffffffffffffff16815260200190815260200160002060070190805190602001906112ea9291906136f4565b5082600760008573ffffffffffffffffffffffffffffffffffffffff1673ffffffffffffffffffffffffffffffffffffffff16815260200190815260200160002060080160006101000a81548173ffffffffffffffffffffffffffffffffffffffff021916908373ffffffffffffffffffffffffffffffffffffffff16021790555060019150509a9950505050505050505050565b600060018260405161139191906142d6565b9081526020016040518091039020600c0160019054906101000a900473ffffffffffffffffffffffffffffffffffffffff169050919050565b60003373ffffffffffffffffffffffffffffffffffffffff166005886040516113f391906142d6565b908152602001604051809103902060000160009054906101000a900473ffffffffffffffffffffffffffffffffffffffff1673ffffffffffffffffffffffffffffffffffffffff16148061149457503373ffffffffffffffffffffffffffffffffffffffff16600360009054906101000a900473ffffffffffffffffffffffffffffffffffffffff1673ffffffffffffffffffffffffffffffffffffffff16145b6114d3576040517f08c379a00000000000000000000000000000000000000000000000000000000081526004016114ca9061463f565b60405180910390fd5b60006114e1888888886108ad565b905060006114ee826133c3565b9050600060018260405161150291906142d6565b9081526020016040518091039020600401541480156115425750600060018260405161152e91906142d6565b908152602001604051809103902060030154145b611581576040517f08c379a0000000000000000000000000000000000000000000000000000000008152600401611578906145ff565b60405180910390fd5b8860018260405161159291906142d6565b908152602001604051809103902060000190805190602001906115b69291906136f4565b50876001826040516115c891906142d6565b908152602001604051809103902060010190805190602001906115ec9291906136f4565b50866001826040516115fe91906142d6565b908152602001604051809103902060020190805190602001906116229291906136f4565b508560018260405161163491906142d6565b9081526020016040518091039020600301819055508460018260405161165a91906142d6565b9081526020016040518091039020600401819055508360018260405161168091906142d6565b908152602001604051809103902060050160006101000a81548173ffffffffffffffffffffffffffffffffffffffff021916908373ffffffffffffffffffffffffffffffffffffffff160217905550806001826040516116e091906142d6565b9081526020016040518091039020600d0190805190602001906117049291906136f4565b5060028960405161171591906142d6565b90815260200160405180910390206000018190806001815401808255809150506001900390600052602060002001600090919091909150908051906020019061175f9291906136f4565b50600660008573ffffffffffffffffffffffffffffffffffffffff1673ffffffffffffffffffffffffffffffffffffffff168152602001908152602001600020600001819080600181540180825580915050600190039060005260206000200160009091909190915090805190602001906117db9291906136f4565b506001925050509695505050505050565b3373ffffffffffffffffffffffffffffffffffffffff1660018260405161181391906142d6565b908152602001604051809103902060050160009054906101000a900473ffffffffffffffffffffffffffffffffffffffff1673ffffffffffffffffffffffffffffffffffffffff161461186557600080fd5b6001808260405161187691906142d6565b9081526020016040518091039020600c0160006101000a81548160ff02191690831515021790555050565b60608060006060806060806060611991600760008b73ffffffffffffffffffffffffffffffffffffffff1673ffffffffffffffffffffffffffffffffffffffff16815260200190815260200160002060070180546118fe9061497b565b80601f016020809104026020016040519081016040528092919081815260200182805461192a9061497b565b80156119775780601f1061194c57610100808354040283529160200191611977565b820191906000526020600020905b81548152906001019060200180831161195a57829003601f168201915b505050505060405180602001604052806000815250612513565b156119d1576040517f08c379a00000000000000000000000000000000000000000000000000000000081526004016119c8906145bf565b60405180910390fd5b6000600760008b73ffffffffffffffffffffffffffffffffffffffff1673ffffffffffffffffffffffffffffffffffffffff16815260200190815260200160002060405180610120016040529081600082018054611a2e9061497b565b80601f0160208091040260200160405190810160405280929190818152602001828054611a5a9061497b565b8015611aa75780601f10611a7c57610100808354040283529160200191611aa7565b820191906000526020600020905b815481529060010190602001808311611a8a57829003601f168201915b50505050508152602001600182018054611ac09061497b565b80601f0160208091040260200160405190810160405280929190818152602001828054611aec9061497b565b8015611b395780601f10611b0e57610100808354040283529160200191611b39565b820191906000526020600020905b815481529060010190602001808311611b1c57829003601f168201915b5050505050815260200160028201548152602001600382018054611b5c9061497b565b80601f0160208091040260200160405190810160405280929190818152602001828054611b889061497b565b8015611bd55780601f10611baa57610100808354040283529160200191611bd5565b820191906000526020600020905b815481529060010190602001808311611bb857829003601f168201915b50505050508152602001600482018054611bee9061497b565b80601f0160208091040260200160405190810160405280929190818152602001828054611c1a9061497b565b8015611c675780601f10611c3c57610100808354040283529160200191611c67565b820191906000526020600020905b815481529060010190602001808311611c4a57829003601f168201915b50505050508152602001600582018054611c809061497b565b80601f0160208091040260200160405190810160405280929190818152602001828054611cac9061497b565b8015611cf95780601f10611cce57610100808354040283529160200191611cf9565b820191906000526020600020905b815481529060010190602001808311611cdc57829003601f168201915b50505050508152602001600682018054611d129061497b565b80601f0160208091040260200160405190810160405280929190818152602001828054611d3e9061497b565b8015611d8b5780601f10611d6057610100808354040283529160200191611d8b565b820191906000526020600020905b815481529060010190602001808311611d6e57829003601f168201915b50505050508152602001600782018054611da49061497b565b80601f0160208091040260200160405190810160405280929190818152602001828054611dd09061497b565b8015611e1d5780601f10611df257610100808354040283529160200191611e1d565b820191906000526020600020905b815481529060010190602001808311611e0057829003601f168201915b505050505081526020016008820160009054906101000a900473ffffffffffffffffffffffffffffffffffffffff1673ffffffffffffffffffffffffffffffffffffffff1673ffffffffffffffffffffffffffffffffffffffff1681525050905080600001519850806020015197508060400151965080606001519550806080015194508060a0015193508060c0015192508060e00151915050919395975091939597565b60606000606060006060600080600188604051611edf91906142d6565b90815260200160405180910390206004015414158015611f2157506000600188604051611f0c91906142d6565b90815260200160405180910390206003015414155b611f60576040517f08c379a0000000000000000000000000000000000000000000000000000000008152600401611f57906145df565b60405180910390fd5b6000600188604051611f7291906142d6565b908152602001604051809103902060405180610220016040529081600082018054611f9c9061497b565b80601f0160208091040260200160405190810160405280929190818152602001828054611fc89061497b565b80156120155780601f10611fea57610100808354040283529160200191612015565b820191906000526020600020905b815481529060010190602001808311611ff857829003601f168201915b5050505050815260200160018201805461202e9061497b565b80601f016020809104026020016040519081016040528092919081815260200182805461205a9061497b565b80156120a75780601f1061207c576101008083540402835291602001916120a7565b820191906000526020600020905b81548152906001019060200180831161208a57829003601f168201915b505050505081526020016002820180546120c09061497b565b80601f01602080910402602001604051908101604052809291908181526020018280546120ec9061497b565b80156121395780601f1061210e57610100808354040283529160200191612139565b820191906000526020600020905b81548152906001019060200180831161211c57829003601f168201915b5050505050815260200160038201548152602001600482015481526020016005820160009054906101000a900473ffffffffffffffffffffffffffffffffffffffff1673ffffffffffffffffffffffffffffffffffffffff1673ffffffffffffffffffffffffffffffffffffffff1681526020016005820160149054906101000a900460ff161515151581526020016006820180546121d79061497b565b80601f01602080910402602001604051908101604052809291908181526020018280546122039061497b565b80156122505780601f1061222557610100808354040283529160200191612250565b820191906000526020600020905b81548152906001019060200180831161223357829003601f168201915b50505050508152602001600782015481526020016008820180546122739061497b565b80601f016020809104026020016040519081016040528092919081815260200182805461229f9061497b565b80156122ec5780601f106122c1576101008083540402835291602001916122ec565b820191906000526020600020905b8154815290600101906020018083116122cf57829003601f168201915b5050505050815260200160098201548152602001600a8201805461230f9061497b565b80601f016020809104026020016040519081016040528092919081815260200182805461233b9061497b565b80156123885780601f1061235d57610100808354040283529160200191612388565b820191906000526020600020905b81548152906001019060200180831161236b57829003601f168201915b50505050508152602001600b8201548152602001600c820160009054906101000a900460ff16151515158152602001600c820160019054906101000a900473ffffffffffffffffffffffffffffffffffffffff1673ffffffffffffffffffffffffffffffffffffffff1673ffffffffffffffffffffffffffffffffffffffff168152602001600c820160159054906101000a900460ff16600381111561243157612430614ac0565b5b600381111561244357612442614ac0565b5b8152602001600d820180546124579061497b565b80601f01602080910402602001604051908101604052809291908181526020018280546124839061497b565b80156124d05780601f106124a5576101008083540402835291602001916124d0565b820191906000526020600020905b8154815290600101906020018083116124b357829003601f168201915b50505050508152505090508060e00151965080610100015195508061012001519450806101400151935080610160015192508060c0015191505091939550919395565b60008160405160200161252691906142d6565b604051602081830303815290604052805190602001208360405160200161254d91906142d6565b6040516020818303038152906040528051906020012014905092915050565b6060806060600080600080600080600080600060018d60405161258f91906142d6565b9081526020016040518091039020604051806102200160405290816000820180546125b99061497b565b80601f01602080910402602001604051908101604052809291908181526020018280546125e59061497b565b80156126325780601f1061260757610100808354040283529160200191612632565b820191906000526020600020905b81548152906001019060200180831161261557829003601f168201915b5050505050815260200160018201805461264b9061497b565b80601f01602080910402602001604051908101604052809291908181526020018280546126779061497b565b80156126c45780601f10612699576101008083540402835291602001916126c4565b820191906000526020600020905b8154815290600101906020018083116126a757829003601f168201915b505050505081526020016002820180546126dd9061497b565b80601f01602080910402602001604051908101604052809291908181526020018280546127099061497b565b80156127565780601f1061272b57610100808354040283529160200191612756565b820191906000526020600020905b81548152906001019060200180831161273957829003601f168201915b5050505050815260200160038201548152602001600482015481526020016005820160009054906101000a900473ffffffffffffffffffffffffffffffffffffffff1673ffffffffffffffffffffffffffffffffffffffff1673ffffffffffffffffffffffffffffffffffffffff1681526020016005820160149054906101000a900460ff161515151581526020016006820180546127f49061497b565b80601f01602080910402602001604051908101604052809291908181526020018280546128209061497b565b801561286d5780601f106128425761010080835404028352916020019161286d565b820191906000526020600020905b81548152906001019060200180831161285057829003601f168201915b50505050508152602001600782015481526020016008820180546128909061497b565b80601f01602080910402602001604051908101604052809291908181526020018280546128bc9061497b565b80156129095780601f106128de57610100808354040283529160200191612909565b820191906000526020600020905b8154815290600101906020018083116128ec57829003601f168201915b5050505050815260200160098201548152602001600a8201805461292c9061497b565b80601f01602080910402602001604051908101604052809291908181526020018280546129589061497b565b80156129a55780601f1061297a576101008083540402835291602001916129a5565b820191906000526020600020905b81548152906001019060200180831161298857829003601f168201915b50505050508152602001600b8201548152602001600c820160009054906101000a900460ff16151515158152602001600c820160019054906101000a900473ffffffffffffffffffffffffffffffffffffffff1673ffffffffffffffffffffffffffffffffffffffff1673ffffffffffffffffffffffffffffffffffffffff168152602001600c820160159054906101000a900460ff166003811115612a4e57612a4d614ac0565b5b6003811115612a6057612a5f614ac0565b5b8152602001600d82018054612a749061497b565b80601f0160208091040260200160405190810160405280929190818152602001828054612aa09061497b565b8015612aed5780601f10612ac257610100808354040283529160200191612aed565b820191906000526020600020905b815481529060010190602001808311612ad057829003601f168201915b50505050508152505090506000816080015114158015612b1257506000816060015114155b612b51576040517f08c379a0000000000000000000000000000000000000000000000000000000008152600401612b48906145df565b60405180910390fd5b80600001519b5080602001519a508060400151995080606001519850806080015197508060a0015196508061018001519550806101a001519450806101c001519350806101e0015192508060c0015191505091939597999b90929496989a50565b6000600582604051612bc491906142d6565b908152602001604051809103902060000160009054906101000a900473ffffffffffffffffffffffffffffffffffffffff169050919050565b60003373ffffffffffffffffffffffffffffffffffffffff16600583604051612c2691906142d6565b908152602001604051809103902060000160009054906101000a900473ffffffffffffffffffffffffffffffffffffffff1673ffffffffffffffffffffffffffffffffffffffff161480612cc757503373ffffffffffffffffffffffffffffffffffffffff16600360009054906101000a900473ffffffffffffffffffffffffffffffffffffffff1673ffffffffffffffffffffffffffffffffffffffff16145b612d06576040517f08c379a0000000000000000000000000000000000000000000000000000000008152600401612cfd9061463f565b60405180910390fd5b6000600189604051612d1891906142d6565b90815260200160405180910390206004015414158015612d5a57506000600189604051612d4591906142d6565b90815260200160405180910390206003015414155b612d99576040517f08c379a0000000000000000000000000000000000000000000000000000000008152600401612d90906145df565b60405180910390fd5b86600189604051612daa91906142d6565b90815260200160405180910390206006019080519060200190612dce9291906136f4565b5085600189604051612de091906142d6565b90815260200160405180910390206007018190555084600189604051612e0691906142d6565b90815260200160405180910390206008019080519060200190612e2a9291906136f4565b5083600189604051612e3c91906142d6565b90815260200160405180910390206009018190555082600189604051612e6291906142d6565b9081526020016040518091039020600a019080519060200190612e869291906136f4565b50612ea08760405180602001604052806000815250612513565b8015612ec15750612ec08560405180602001604052806000815250612513565b5b612f035760018089604051612ed691906142d6565b908152602001604051809103902060050160146101000a81548160ff021916908315150217905550612f3e565b6000600189604051612f1591906142d6565b908152602001604051809103902060050160146101000a81548160ff0219169083151502179055505b60019050979650505050505050565b600380811115612f6057612f5f614ac0565b5b600182604051612f7091906142d6565b9081526020016040518091039020600c0160159054906101000a900460ff166003811115612fa157612fa0614ac0565b5b14612fab57600080fd5b600a600182604051612fbd91906142d6565b9081526020016040518091039020600b0154612fd991906147ee565b600182604051612fe991906142d6565b9081526020016040518091039020600b01546130059190614761565b34101561301157600080fd5b60018160405161302191906142d6565b908152602001604051809103902060050160009054906101000a900473ffffffffffffffffffffffffffffffffffffffff1673ffffffffffffffffffffffffffffffffffffffff166108fc60018360405161307c91906142d6565b9081526020016040518091039020600b01549081150290604051600060405180830381858888f193505050501580156130b9573d6000803e3d6000fd5b506131056001826040516130cd91906142d6565b908152602001604051809103902060050160009054906101000a900473ffffffffffffffffffffffffffffffffffffffff168261354c565b3360018260405161311691906142d6565b908152602001604051809103902060050160006101000a81548173ffffffffffffffffffffffffffffffffffffffff021916908373ffffffffffffffffffffffffffffffffffffffff160217905550600060018260405161317791906142d6565b9081526020016040518091039020600c0160006101000a81548160ff02191690831515021790555060006001826040516131b191906142d6565b9081526020016040518091039020600c0160016101000a81548173ffffffffffffffffffffffffffffffffffffffff021916908373ffffffffffffffffffffffffffffffffffffffff160217905550600060018260405161321291906142d6565b9081526020016040518091039020600c0160156101000a81548160ff0219169083600381111561324557613244614ac0565b5b0217905550600660003373ffffffffffffffffffffffffffffffffffffffff1673ffffffffffffffffffffffffffffffffffffffff168152602001908152602001600020600001819080600181540180825580915050600190039060005260206000200160009091909190915090805190602001906132c59291906136f4565b5050565b60606002826040516132db91906142d6565b9081526020016040518091039020600001805480602002602001604051908101604052809291908181526020016000905b828210156133b857838290600052602060002001805461332b9061497b565b80601f01602080910402602001604051908101604052809291908181526020018280546133579061497b565b80156133a45780601f10613379576101008083540402835291602001916133a4565b820191906000526020600020905b81548152906001019060200180831161338757829003601f168201915b50505050508152602001906001019061330c565b505050509050919050565b6060600082141561340b576040518060400160405280600181526020017f30000000000000000000000000000000000000000000000000000000000000008152509050613547565b600082905060005b6000821461343d578080613426906149de565b915050600a8261343691906147ee565b9150613413565b60008167ffffffffffffffff81111561345957613458614b7c565b5b6040519080825280601f01601f19166020018201604052801561348b5781602001600182028036833780820191505090505b50905060008290505b6000861461353f576001816134a99190614879565b90506000600a80886134bb91906147ee565b6134c5919061481f565b876134d09190614879565b60306134dc91906147b7565b905060008160f81b9050808484815181106134fa576134f9614b4d565b5b60200101907effffffffffffffffffffffffffffffffffffffffffffffffffffffffffffff1916908160001a905350600a8861353691906147ee565b97505050613494565b819450505050505b919050565b60006135588284610b34565b9050600660008473ffffffffffffffffffffffffffffffffffffffff1673ffffffffffffffffffffffffffffffffffffffff1681526020019081526020016000206000016001600660008673ffffffffffffffffffffffffffffffffffffffff1673ffffffffffffffffffffffffffffffffffffffff168152602001908152602001600020600001805490506135ee9190614879565b815481106135ff576135fe614b4d565b5b90600052602060002001600660008573ffffffffffffffffffffffffffffffffffffffff1673ffffffffffffffffffffffffffffffffffffffff168152602001908152602001600020600001828154811061365d5761365c614b4d565b5b906000526020600020019080546136739061497b565b61367e92919061377a565b50600660008473ffffffffffffffffffffffffffffffffffffffff1673ffffffffffffffffffffffffffffffffffffffff1681526020019081526020016000206000018054806136d1576136d0614b1e565b5b6001900381819060005260206000200160006136ed9190613807565b9055505050565b8280546137009061497b565b90600052602060002090601f0160209004810192826137225760008555613769565b82601f1061373b57805160ff1916838001178555613769565b82800160010185558215613769579182015b8281111561376857825182559160200191906001019061374d565b5b5090506137769190613847565b5090565b8280546137869061497b565b90600052602060002090601f0160209004810192826137a857600085556137f6565b82601f106137b957805485556137f6565b828001600101855582156137f657600052602060002091601f016020900482015b828111156137f55782548255916001019190600101906137da565b5b5090506138039190613847565b5090565b5080546138139061497b565b6000825580601f106138255750613844565b601f0160209004906000526020600020908101906138439190613847565b5b50565b5b80821115613860576000816000905550600101613848565b5090565b60006138776138728461469f565b61467a565b90508281526020810184848401111561389357613892614bb0565b5b61389e848285614939565b509392505050565b6000813590506138b581614cfd565b92915050565b6000813590506138ca81614d14565b92915050565b6000813590506138df81614d2b565b92915050565b600082601f8301126138fa576138f9614bab565b5b813561390a848260208601613864565b91505092915050565b60008135905061392281614d3b565b92915050565b60006020828403121561393e5761393d614bba565b5b600061394c848285016138a6565b91505092915050565b6000806000806080858703121561396f5761396e614bba565b5b600061397d878288016138a6565b945050602085013567ffffffffffffffff81111561399e5761399d614bb5565b5b6139aa878288016138e5565b935050604085013567ffffffffffffffff8111156139cb576139ca614bb5565b5b6139d7878288016138e5565b925050606085013567ffffffffffffffff8111156139f8576139f7614bb5565b5b613a04878288016138e5565b91505092959194509250565b600060208284031215613a2657613a25614bba565b5b600082013567ffffffffffffffff811115613a4457613a43614bb5565b5b613a50848285016138e5565b91505092915050565b60008060408385031215613a7057613a6f614bba565b5b600083013567ffffffffffffffff811115613a8e57613a8d614bb5565b5b613a9a858286016138e5565b9250506020613aab858286016138a6565b9150509250929050565b60008060408385031215613acc57613acb614bba565b5b600083013567ffffffffffffffff811115613aea57613ae9614bb5565b5b613af6858286016138e5565b9250506020613b07858286016138d0565b9150509250929050565b60008060408385031215613b2857613b27614bba565b5b600083013567ffffffffffffffff811115613b4657613b45614bb5565b5b613b52858286016138e5565b925050602083013567ffffffffffffffff811115613b7357613b72614bb5565b5b613b7f858286016138e5565b9150509250929050565b60008060008060808587031215613ba357613ba2614bba565b5b600085013567ffffffffffffffff811115613bc157613bc0614bb5565b5b613bcd878288016138e5565b945050602085013567ffffffffffffffff811115613bee57613bed614bb5565b5b613bfa878288016138e5565b935050604085013567ffffffffffffffff811115613c1b57613c1a614bb5565b5b613c27878288016138e5565b9250506060613c3887828801613913565b91505092959194509250565b60008060008060008060c08789031215613c6157613c60614bba565b5b600087013567ffffffffffffffff811115613c7f57613c7e614bb5565b5b613c8b89828a016138e5565b965050602087013567ffffffffffffffff811115613cac57613cab614bb5565b5b613cb889828a016138e5565b955050604087013567ffffffffffffffff811115613cd957613cd8614bb5565b5b613ce589828a016138e5565b9450506060613cf689828a01613913565b9350506080613d0789828a01613913565b92505060a0613d1889828a016138bb565b9150509295509295509295565b6000806000806000806000806000806101408b8d031215613d4957613d48614bba565b5b60008b013567ffffffffffffffff811115613d6757613d66614bb5565b5b613d738d828e016138e5565b9a505060208b013567ffffffffffffffff811115613d9457613d93614bb5565b5b613da08d828e016138e5565b9950506040613db18d828e01613913565b98505060608b013567ffffffffffffffff811115613dd257613dd1614bb5565b5b613dde8d828e016138e5565b97505060808b013567ffffffffffffffff811115613dff57613dfe614bb5565b5b613e0b8d828e016138e5565b96505060a08b013567ffffffffffffffff811115613e2c57613e2b614bb5565b5b613e388d828e016138e5565b95505060c08b013567ffffffffffffffff811115613e5957613e58614bb5565b5b613e658d828e016138e5565b94505060e08b013567ffffffffffffffff811115613e8657613e85614bb5565b5b613e928d828e016138e5565b9350506101008b013567ffffffffffffffff811115613eb457613eb3614bb5565b5b613ec08d828e016138e5565b925050610120613ed28d828e016138bb565b9150509295989b9194979a5092959850565b600080600080600080600060e0888a031215613f0357613f02614bba565b5b600088013567ffffffffffffffff811115613f2157613f20614bb5565b5b613f2d8a828b016138e5565b975050602088013567ffffffffffffffff811115613f4e57613f4d614bb5565b5b613f5a8a828b016138e5565b9650506040613f6b8a828b01613913565b955050606088013567ffffffffffffffff811115613f8c57613f8b614bb5565b5b613f988a828b016138e5565b9450506080613fa98a828b01613913565b93505060a088013567ffffffffffffffff811115613fca57613fc9614bb5565b5b613fd68a828b016138e5565b92505060c088013567ffffffffffffffff811115613ff757613ff6614bb5565b5b6140038a828b016138e5565b91505092959891949750929550565b600061401e8383614147565b905092915050565b61402f816148ad565b82525050565b6000614040826146f5565b61404a8185614718565b93508360208202850161405c856146d0565b8060005b8581101561409857848403895281516140798582614012565b94506140848361470b565b925060208a01995050600181019050614060565b50829750879550505050505092915050565b6140b3816148d1565b82525050565b600081546140c68161497b565b6140d08186614729565b945060018216600081146140eb57600181146140fc5761412f565b60ff1983168652818601935061412f565b614105856146e0565b60005b8381101561412757815481890152600182019150602081019050614108565b838801955050505b50505092915050565b61414181614927565b82525050565b600061415282614700565b61415c8185614734565b935061416c818560208601614948565b61417581614bbf565b840191505092915050565b600061418b82614700565b6141958185614745565b93506141a5818560208601614948565b6141ae81614bbf565b840191505092915050565b60006141c482614700565b6141ce8185614756565b93506141de818560208601614948565b80840191505092915050565b60006141f7601a83614745565b915061420282614bd0565b602082019050919050565b600061421a601c83614745565b915061422582614bf9565b602082019050919050565b600061423d602183614745565b915061424882614c22565b604082019050919050565b6000614260601c83614745565b915061426b82614c71565b602082019050919050565b6000614283603283614745565b915061428e82614c9a565b604082019050919050565b6142a281614910565b82525050565b6142b96142b482614910565b614a27565b82525050565b60006142cb82846140b9565b915081905092915050565b60006142e282846141b9565b915081905092915050565b60006142f982876141b9565b915061430582866141b9565b915061431182856141b9565b915061431d82846142a8565b60208201915081905095945050505050565b60006020820190506143446000830184614026565b92915050565b600060a08201905061435f6000830188614026565b61436c6020830187614299565b61437960408301866140aa565b6143866060830185614026565b6143936080830184614138565b9695505050505050565b600060208201905081810360008301526143b78184614035565b905092915050565b60006020820190506143d460008301846140aa565b92915050565b60006101608201905081810360008301526143f5818e614180565b90508181036020830152614409818d614180565b9050818103604083015261441d818c614180565b905061442c606083018b614299565b614439608083018a614299565b61444660a0830189614026565b61445360c0830188614299565b61446060e08301876140aa565b61446e610100830186614026565b61447c610120830185614138565b61448a6101408301846140aa565b9c9b505050505050505050505050565b60006101008201905081810360008301526144b5818b614180565b905081810360208301526144c9818a614180565b90506144d86040830189614299565b81810360608301526144ea8188614180565b905081810360808301526144fe8187614180565b905081810360a08301526145128186614180565b905081810360c08301526145268185614180565b905081810360e083015261453a8184614180565b90509998505050505050505050565b600060c08201905081810360008301526145638189614180565b90506145726020830188614299565b81810360408301526145848187614180565b90506145936060830186614299565b81810360808301526145a58185614180565b90506145b460a08301846140aa565b979650505050505050565b600060208201905081810360008301526145d8816141ea565b9050919050565b600060208201905081810360008301526145f88161420d565b9050919050565b6000602082019050818103600083015261461881614230565b9050919050565b6000602082019050818103600083015261463881614253565b9050919050565b6000602082019050818103600083015261465881614276565b9050919050565b60006020820190506146746000830184614299565b92915050565b6000614684614695565b905061469082826149ad565b919050565b6000604051905090565b600067ffffffffffffffff8211156146ba576146b9614b7c565b5b6146c382614bbf565b9050602081019050919050565b6000819050602082019050919050565b60008190508160005260206000209050919050565b600081519050919050565b600081519050919050565b6000602082019050919050565b600082825260208201905092915050565b600081905092915050565b600082825260208201905092915050565b600082825260208201905092915050565b600081905092915050565b600061476c82614910565b915061477783614910565b9250827fffffffffffffffffffffffffffffffffffffffffffffffffffffffffffffffff038211156147ac576147ab614a62565b5b828201905092915050565b60006147c28261491a565b91506147cd8361491a565b92508260ff038211156147e3576147e2614a62565b5b828201905092915050565b60006147f982614910565b915061480483614910565b92508261481457614813614a91565b5b828204905092915050565b600061482a82614910565b915061483583614910565b9250817fffffffffffffffffffffffffffffffffffffffffffffffffffffffffffffffff048311821515161561486e5761486d614a62565b5b828202905092915050565b600061488482614910565b915061488f83614910565b9250828210156148a2576148a1614a62565b5b828203905092915050565b60006148b8826148f0565b9050919050565b60006148ca826148f0565b9050919050565b60008115159050919050565b60008190506148eb82614ce9565b919050565b600073ffffffffffffffffffffffffffffffffffffffff82169050919050565b6000819050919050565b600060ff82169050919050565b6000614932826148dd565b9050919050565b82818337600083830152505050565b60005b8381101561496657808201518184015260208101905061494b565b83811115614975576000848401525b50505050565b6000600282049050600182168061499357607f821691505b602082108114156149a7576149a6614aef565b5b50919050565b6149b682614bbf565b810181811067ffffffffffffffff821117156149d5576149d4614b7c565b5b80604052505050565b60006149e982614910565b91507fffffffffffffffffffffffffffffffffffffffffffffffffffffffffffffffff821415614a1c57614a1b614a62565b5b600182019050919050565b6000819050919050565b6000614a3c82614910565b9150614a4783614910565b925082614a5757614a56614a91565b5b828206905092915050565b7f4e487b7100000000000000000000000000000000000000000000000000000000600052601160045260246000fd5b7f4e487b7100000000000000000000000000000000000000000000000000000000600052601260045260246000fd5b7f4e487b7100000000000000000000000000000000000000000000000000000000600052602160045260246000fd5b7f4e487b7100000000000000000000000000000000000000000000000000000000600052602260045260246000fd5b7f4e487b7100000000000000000000000000000000000000000000000000000000600052603160045260246000fd5b7f4e487b7100000000000000000000000000000000000000000000000000000000600052603260045260246000fd5b7f4e487b7100000000000000000000000000000000000000000000000000000000600052604160045260246000fd5b600080fd5b600080fd5b600080fd5b600080fd5b6000601f19601f8301169050919050565b7f54686973206f776e657220646f6573206e6f742065786973742e000000000000600082015250565b7f4e6f206c616e6420776974682074686973204944206578697374732e00000000600082015250565b7f4c616e642077697468207468697320494420616c72656164792065786973747360008201527f2e00000000000000000000000000000000000000000000000000000000000000602082015250565b7f54686973206163636f756e7420616c7265616479206578697374732e00000000600082015250565b7f4f6e6c792061646d696e732061726520616c6c6f77656420746f20706572666f60008201527f726d2074686973206f7065726174696f6e2e0000000000000000000000000000602082015250565b60048110614cfa57614cf9614ac0565b5b50565b614d06816148ad565b8114614d1157600080fd5b50565b614d1d816148bf565b8114614d2857600080fd5b50565b60048110614d3857600080fd5b50565b614d4481614910565b8114614d4f57600080fd5b5056fea26469706673582212204a79d63da8e45438462ceca460490a4d2af91021d469a8cbbf2f1016ce9b5af464736f6c63430008060033",
  "immutableReferences": {},
  "source": "// SPDX-License-Identifier: MIT\r\n\r\npragma solidity >=0.5.1 <= 0.8.6;\r\n\r\ncontract LandReg{\r\n    address superAdmin;\r\n\r\n    struct landDetails{\r\n        string state;\r\n        string district;\r\n        string cadzone;\r\n        uint256 plotNumber;\r\n        uint256 plotSize;  // * 4 decimal places\r\n        address payable currentOwner;\r\n        bool isCertified;\r\n        // Land Documents\r\n        string cofo;\r\n        uint cofoDate;\r\n        string rofoHash;\r\n        uint rofoDate;\r\n        string certNumber;\r\n        // Buy and sell\r\n        uint marketValue;\r\n        bool isAvailable;\r\n        address requester;\r\n        reqStatus requestStatus; \r\n        string id;\r\n    }\r\n\r\n    struct ownerDetails {\r\n        string name;\r\n        string gender;\r\n        uint dob;\r\n        string ownerAddress;\r\n        string phone1;\r\n        string phone2;\r\n        string NIN;\r\n        string email;\r\n        address payable wAddress;\r\n    }\r\n\r\n    struct adminDetails {\r\n        string name;\r\n        string state;\r\n        string district;\r\n    }\r\n    struct adminState {\r\n        address adminAddress;\r\n    }\r\n\r\n    //request status\r\n    enum reqStatus { Default, pending, reject, approved }\r\n\r\n    //profile of a client\r\n    struct profiles{\r\n        string[] assetList;   \r\n    }\r\n\r\n    struct landState {\r\n        string[] ids;\r\n    }\r\n\r\n    mapping(string => landDetails) lands;\r\n    mapping(string => landState) landStates; // Push land ids inside their respestive states\r\n    address owner;\r\n    mapping( address => adminDetails) admins;\r\n    mapping(string => adminState) adminStates;\r\n    mapping( address => profiles) profile;\r\n\r\n    mapping( address => ownerDetails ) owners;\r\n    \r\n    //contract owner\r\n    constructor() {\r\n        owner = msg.sender;\r\n        superAdmin = owner;\r\n    }\r\n\r\n    modifier onlyOwner {\r\n        require(msg.sender == owner);\r\n        _;\r\n    }\r\n    \r\n    //adding region admins\r\n    function addAdmin( address admin, string memory name, string memory state, string memory district ) onlyOwner public {\r\n        admins[admin].name = name;\r\n        admins[admin].state = state;\r\n        admins[admin].district = district;\r\n\r\n        adminStates[state].adminAddress = admin;\r\n    }\r\n\r\n    function getAdmin(string memory state) public view returns(address){\r\n        return adminStates[state].adminAddress;\r\n    }\r\n\r\n    //Registration of land details.\r\n    function registerLand(\r\n        string memory state,\r\n        string memory district,\r\n        string memory cadzone,\r\n        uint plotNumber,\r\n        uint plotSize,\r\n        address payable wAddress\r\n        ) public returns(bool) {\r\n        require(adminStates[state].adminAddress == msg.sender || owner == msg.sender, \"Only admins are allowed to perform this operation.\");\r\n        uint id_uint = computeId(state,district,cadzone,plotNumber);\r\n        string memory id = uint2str(id_uint);\r\n        // require(adminStates[state].adminAddress != msg.sender && owner != msg.sender, \"Only admins are allowed to perform this operation.\");\r\n        require(lands[id].plotSize == 0 && lands[id].plotNumber == 0, \"Land with this ID already exists.\");\r\n        lands[id].state = state;\r\n        lands[id].district = district;\r\n        lands[id].cadzone = cadzone;\r\n        \r\n        lands[id].plotNumber = plotNumber;\r\n        lands[id].plotSize = plotSize;\r\n        lands[id].currentOwner = wAddress;\r\n\r\n        lands[id].id = id;\r\n        landStates[state].ids.push(id);\r\n\r\n        profile[wAddress].assetList.push(id);\r\n        return true;\r\n    }\r\n\r\n    function uint2str(uint _i) internal pure returns (string memory _uintAsString) { \r\n        if (_i == 0) {\r\n            return \"0\";\r\n        }\r\n        uint j = _i;\r\n        uint len;\r\n        while (j != 0) {\r\n            len++;\r\n            j /= 10;\r\n        }\r\n        bytes memory bstr = new bytes(len);\r\n        uint k = len;\r\n        while (_i != 0) {\r\n            k = k-1;\r\n            uint8 temp = (48 + uint8(_i - _i / 10 * 10));\r\n            bytes1 b1 = bytes1(temp);\r\n            bstr[k] = b1;\r\n            _i /= 10;\r\n        }\r\n        return string(bstr);\r\n    }\r\n\r\n    function editLandDocuments(\r\n        string memory id,\r\n        string memory cofo,\r\n        uint cofoDate,\r\n        string memory rofoHash,\r\n        uint  rofoDate,\r\n        string memory certNumber,\r\n        string memory stateOfAdmin\r\n    ) public returns (bool) {\r\n        require(adminStates[stateOfAdmin].adminAddress == msg.sender || owner == msg.sender, \"Only admins are allowed to perform this operation.\");\r\n        require(lands[id].plotSize != 0 && lands[id].plotNumber != 0, \"No land with this ID exists.\");\r\n\r\n        lands[id].cofo = cofo;\r\n        lands[id].cofoDate = cofoDate;\r\n        lands[id].rofoHash = rofoHash;\r\n        lands[id].rofoDate = rofoDate;\r\n        lands[id].certNumber = certNumber;\r\n\r\n        if(!(compareStrings(cofo, \"\") && compareStrings(rofoHash, \"\"))){\r\n            lands[id].isCertified = true;\r\n        }\r\n        else{\r\n            lands[id].isCertified = false;\r\n        }\r\n\r\n        return true;\r\n    }\r\n\r\n    function registerOwner(\r\n        string memory name,\r\n        string memory gender,\r\n        uint dob,\r\n        string memory ownerAddress,\r\n        string memory phone1,\r\n        string memory phone2,\r\n        string memory NIN,\r\n        string memory email,\r\n        string memory stateOfAdmin,\r\n        address payable wAddress\r\n    ) onlyOwner public returns (bool){\r\n        require(adminStates[stateOfAdmin].adminAddress == msg.sender || owner == msg.sender, \"Only admins are allowed to perform this operation.\");\r\n        bytes32 emptyHash = keccak256(\"\");\r\n        require( keccak256(bytes(owners[wAddress].NIN)) == emptyHash || keccak256(bytes(owners[wAddress].email)) == emptyHash, \"This account already exists.\");\r\n\r\n        owners[wAddress].name = name;\r\n        owners[wAddress].gender = gender;\r\n        owners[wAddress].dob = dob;\r\n        owners[wAddress].ownerAddress = ownerAddress;\r\n        owners[wAddress].phone1 = phone1;\r\n        owners[wAddress].phone2 = phone2;\r\n        owners[wAddress].NIN = NIN;\r\n        owners[wAddress].email = email;\r\n        owners[wAddress].wAddress = wAddress;\r\n\r\n        return true;\r\n    }\r\n\r\n    //to view details of land for the owner\r\n    function landInfoFull(string memory id) public view returns(\r\n        string memory state,\r\n        string memory district,\r\n        string memory cadzone,\r\n        uint plotNumber,\r\n        uint plotSize,\r\n        address currentOwner,\r\n        uint marketValue,\r\n        bool isAvailable,\r\n        address requester,\r\n        reqStatus requestStatus,\r\n        bool isCertified ){\r\n        landDetails memory lands_local = lands[id];\r\n        require(lands_local.plotSize != 0 && lands_local.plotNumber != 0, \"No land with this ID exists.\");\r\n        \r\n        state = lands_local.state;\r\n        district = lands_local.district;\r\n        cadzone = lands_local.cadzone;\r\n        plotNumber = lands_local.plotNumber;\r\n        plotSize = lands_local.plotSize;\r\n        currentOwner = lands_local.currentOwner;\r\n        marketValue = lands_local.marketValue;\r\n        isAvailable = lands_local.isAvailable;\r\n        requester = lands_local.requester;\r\n        requestStatus = lands_local.requestStatus;\r\n        isCertified = lands_local.isCertified;\r\n            \r\n    }\r\n\r\n    function ownerInfo(address wAddress) public view returns(\r\n        string memory name,\r\n        string memory gender,\r\n        uint dob,\r\n        string memory ownerAddress,\r\n        string memory phone1,\r\n        string memory phone2,\r\n        string memory NIN,\r\n        string memory email\r\n    ) {\r\n        require(!compareStrings(owners[wAddress].email, \"\"), \"This owner does not exist.\");\r\n        ownerDetails memory tmpOwner = owners[wAddress];\r\n        name = tmpOwner.name;\r\n        gender = tmpOwner.gender;\r\n        dob = tmpOwner.dob;\r\n        ownerAddress = tmpOwner.ownerAddress;\r\n        phone1 = tmpOwner.phone1;\r\n        phone2 = tmpOwner.phone2;\r\n        NIN = tmpOwner.NIN;\r\n        email = tmpOwner.email;\r\n\r\n    }\r\n\r\n    function landDocumentsInfo(\r\n        string memory id\r\n    ) public view returns (\r\n        string memory cofo,\r\n        uint cofoDate,\r\n        string memory rofoHash,\r\n        uint  rofoDate,\r\n        string memory certNumber,\r\n        bool isCertified\r\n        ) {\r\n        require(lands[id].plotSize != 0 && lands[id].plotNumber != 0, \"No land with this ID exists.\");\r\n\r\n        landDetails memory lands_local = lands[id];\r\n\r\n        // id = id;\r\n        cofo = lands_local.cofo;\r\n        cofoDate = lands_local.cofoDate;\r\n        rofoHash = lands_local.rofoHash;\r\n        rofoDate = lands_local.rofoDate;\r\n        certNumber = lands_local.certNumber;\r\n        isCertified = lands_local.isCertified;\r\n\r\n    }\r\n\r\n    function landInfoStates(string memory state) public view returns(string[] memory state_ids){\r\n        state_ids = landStates[state].ids;\r\n    }\r\n    \r\n    //to view details of land for the buyer\r\n    function landInfoBuyer(string memory id) public view returns(address,uint,bool,address,reqStatus){\r\n        return(lands[id].currentOwner, lands[id].marketValue, lands[id].isAvailable, lands[id].requester, lands[id].requestStatus);\r\n    }\r\n\r\n    // to compute id for a land.\r\n    function computeId(string memory state, string memory district, string memory cadzone, uint plotNumber) public pure returns(uint){\r\n        return uint(keccak256(abi.encodePacked(state, district, cadzone, plotNumber)))%10000000000000;\r\n    }\r\n\r\n    // view the assets of the owner represented by this address\r\n    function viewAssets(address wAddress)public view returns(string[] memory){\r\n        return (profile[wAddress].assetList);\r\n    }\r\n\r\n    //push a request to the land owner\r\n    function requstToLandOwner(string memory id) public {\r\n        require(lands[id].isAvailable);\r\n        lands[id].requester = msg.sender;\r\n        lands[id].isAvailable = false;\r\n        lands[id].requestStatus = reqStatus.pending; //changes the status to pending.\r\n    }\r\n\r\n    //viewing request for the lands\r\n    function viewRequest(string memory property)public view returns(address){\r\n        return(lands[property].requester);\r\n    }\r\n    //processing request for the land by accepting or rejecting\r\n    function processRequest(string memory property,reqStatus status) public {\r\n        require(lands[property].currentOwner == msg.sender);\r\n        lands[property].requestStatus = status;\r\n        if(status == reqStatus.reject){\r\n            lands[property].requester = address(0);\r\n            lands[property].requestStatus = reqStatus.Default;\r\n        }\r\n    }\r\n    //availing lands for sale.\r\n    function makeAvailable(string memory property)public{\r\n        require(lands[property].currentOwner == msg.sender);\r\n        lands[property].isAvailable=true;\r\n    } \r\n\r\n    //buying the approved property\r\n    function buyProperty(string memory property)public payable{\r\n        require(lands[property].requestStatus == reqStatus.approved);\r\n        require(msg.value >= (lands[property].marketValue+((lands[property].marketValue)/10)));\r\n        lands[property].currentOwner.transfer(lands[property].marketValue);\r\n        removeOwnership(lands[property].currentOwner,property);\r\n        lands[property].currentOwner=payable(msg.sender);\r\n        lands[property].isAvailable=false;\r\n        lands[property].requester = address(0);\r\n        lands[property].requestStatus = reqStatus.Default;\r\n        profile[msg.sender].assetList.push(property); //adds the property to the asset list of the new owner.\r\n        \r\n    }\r\n    //removing the ownership of seller for the lands. and it is called by the buyProperty function\r\n    function removeOwnership(address previousOwner,string memory id)private{\r\n        uint index = findId(id,previousOwner);\r\n        profile[previousOwner].assetList[index]=profile[previousOwner].assetList[profile[previousOwner].assetList.length-1];\r\n        profile[previousOwner].assetList.pop();\r\n    }\r\n    //for finding the index of a perticular id\r\n    function findId(string memory id,address user)public view returns(uint){\r\n        uint i;\r\n        for(i=0;i<profile[user].assetList.length;i++){\r\n            // if(profile[user].assetList[i] == id)\r\n            if(compareStrings(profile[user].assetList[i], id))\r\n                return i;\r\n        }\r\n        return i;\r\n    }\r\n\r\n    function compareStrings(string memory a, string memory b) public pure returns (bool) {\r\n        return (keccak256(abi.encodePacked((a))) == keccak256(abi.encodePacked((b))));\r\n    }\r\n}",
  "sourcePath": "C:/Mine/Sources/eth/SanniMSc/begin-real/contracts/LandReg.sol",
  "compiler": {
    "name": "solc",
    "version": "0.8.6+commit.11564f7e.Emscripten.clang"
  },
  "schemaVersion": "3.4.1",
  "updatedAt": "2021-09-02T12:00:44.746Z",
  "networkType": "ethereum",
  "devdoc": {
    "kind": "dev",
    "methods": {},
    "version": 1
  },
  "userdoc": {
    "kind": "user",
    "methods": {},
    "version": 1
  }
}