{
  "contractName": "LandReg",
  "abi": [
    {
      "inputs": [],
      "stateMutability": "nonpayable",
      "type": "constructor"
    },
    {
      "inputs": [
        {
          "internalType": "address",
          "name": "admin",
          "type": "address"
        },
        {
          "internalType": "string",
          "name": "name",
          "type": "string"
        },
        {
          "internalType": "string",
          "name": "state",
          "type": "string"
        },
        {
          "internalType": "string",
          "name": "district",
          "type": "string"
        }
      ],
      "name": "addAdmin",
      "outputs": [],
      "stateMutability": "nonpayable",
      "type": "function"
    },
    {
      "inputs": [
        {
          "internalType": "string",
          "name": "state",
          "type": "string"
        },
        {
          "internalType": "string",
          "name": "district",
          "type": "string"
        },
        {
          "internalType": "string",
          "name": "cadzone",
          "type": "string"
        },
        {
          "internalType": "uint256",
          "name": "plotNumber",
          "type": "uint256"
        },
        {
          "internalType": "uint256",
          "name": "plotSize",
          "type": "uint256"
        },
        {
          "internalType": "address payable",
          "name": "wAddress",
          "type": "address"
        }
      ],
      "name": "registerLand",
      "outputs": [
        {
          "internalType": "bool",
          "name": "",
          "type": "bool"
        }
      ],
      "stateMutability": "nonpayable",
      "type": "function"
    },
    {
      "inputs": [
        {
          "internalType": "string",
          "name": "name",
          "type": "string"
        },
        {
          "internalType": "string",
          "name": "gender",
          "type": "string"
        },
        {
          "internalType": "uint256",
          "name": "dob",
          "type": "uint256"
        },
        {
          "internalType": "string",
          "name": "ownerAddress",
          "type": "string"
        },
        {
          "internalType": "string",
          "name": "phone1",
          "type": "string"
        },
        {
          "internalType": "string",
          "name": "phone2",
          "type": "string"
        },
        {
          "internalType": "string",
          "name": "NIN",
          "type": "string"
        },
        {
          "internalType": "string",
          "name": "email",
          "type": "string"
        },
        {
          "internalType": "string",
          "name": "stateOfAdmin",
          "type": "string"
        },
        {
          "internalType": "address payable",
          "name": "wAddress",
          "type": "address"
        }
      ],
      "name": "registerOwner",
      "outputs": [
        {
          "internalType": "bool",
          "name": "",
          "type": "bool"
        }
      ],
      "stateMutability": "nonpayable",
      "type": "function"
    },
    {
      "inputs": [
        {
          "internalType": "uint256",
          "name": "id",
          "type": "uint256"
        }
      ],
      "name": "landInfoOwner",
      "outputs": [
        {
          "internalType": "string",
          "name": "",
          "type": "string"
        },
        {
          "internalType": "string",
          "name": "",
          "type": "string"
        },
        {
          "internalType": "string",
          "name": "",
          "type": "string"
        },
        {
          "internalType": "uint256",
          "name": "",
          "type": "uint256"
        },
        {
          "internalType": "uint256",
          "name": "",
          "type": "uint256"
        },
        {
          "internalType": "address",
          "name": "",
          "type": "address"
        },
        {
          "internalType": "uint256",
          "name": "",
          "type": "uint256"
        },
        {
          "internalType": "bool",
          "name": "",
          "type": "bool"
        },
        {
          "internalType": "address",
          "name": "",
          "type": "address"
        },
        {
          "internalType": "enum LandReg.reqStatus",
          "name": "",
          "type": "uint8"
        }
      ],
      "stateMutability": "view",
      "type": "function",
      "constant": true
    },
    {
      "inputs": [
        {
          "internalType": "uint256",
          "name": "id",
          "type": "uint256"
        }
      ],
      "name": "landInfoBuyer",
      "outputs": [
        {
          "internalType": "address",
          "name": "",
          "type": "address"
        },
        {
          "internalType": "uint256",
          "name": "",
          "type": "uint256"
        },
        {
          "internalType": "bool",
          "name": "",
          "type": "bool"
        },
        {
          "internalType": "address",
          "name": "",
          "type": "address"
        },
        {
          "internalType": "enum LandReg.reqStatus",
          "name": "",
          "type": "uint8"
        }
      ],
      "stateMutability": "view",
      "type": "function",
      "constant": true
    },
    {
      "inputs": [
        {
          "internalType": "string",
          "name": "state",
          "type": "string"
        },
        {
          "internalType": "string",
          "name": "district",
          "type": "string"
        },
        {
          "internalType": "string",
          "name": "cadzone",
          "type": "string"
        },
        {
          "internalType": "uint256",
          "name": "plotNumber",
          "type": "uint256"
        }
      ],
      "name": "computeId",
      "outputs": [
        {
          "internalType": "uint256",
          "name": "",
          "type": "uint256"
        }
      ],
      "stateMutability": "pure",
      "type": "function",
      "constant": true
    },
    {
      "inputs": [
        {
          "internalType": "uint256",
          "name": "id",
          "type": "uint256"
        }
      ],
      "name": "requstToLandOwner",
      "outputs": [],
      "stateMutability": "nonpayable",
      "type": "function"
    },
    {
      "inputs": [],
      "name": "viewAssets",
      "outputs": [
        {
          "internalType": "uint256[]",
          "name": "",
          "type": "uint256[]"
        }
      ],
      "stateMutability": "view",
      "type": "function",
      "constant": true
    },
    {
      "inputs": [
        {
          "internalType": "uint256",
          "name": "property",
          "type": "uint256"
        }
      ],
      "name": "viewRequest",
      "outputs": [
        {
          "internalType": "address",
          "name": "",
          "type": "address"
        }
      ],
      "stateMutability": "view",
      "type": "function",
      "constant": true
    },
    {
      "inputs": [
        {
          "internalType": "uint256",
          "name": "property",
          "type": "uint256"
        },
        {
          "internalType": "enum LandReg.reqStatus",
          "name": "status",
          "type": "uint8"
        }
      ],
      "name": "processRequest",
      "outputs": [],
      "stateMutability": "nonpayable",
      "type": "function"
    },
    {
      "inputs": [
        {
          "internalType": "uint256",
          "name": "property",
          "type": "uint256"
        }
      ],
      "name": "makeAvailable",
      "outputs": [],
      "stateMutability": "nonpayable",
      "type": "function"
    },
    {
      "inputs": [
        {
          "internalType": "uint256",
          "name": "property",
          "type": "uint256"
        }
      ],
      "name": "buyProperty",
      "outputs": [],
      "stateMutability": "payable",
      "type": "function",
      "payable": true
    },
    {
      "inputs": [
        {
          "internalType": "uint256",
          "name": "id",
          "type": "uint256"
        },
        {
          "internalType": "address",
          "name": "user",
          "type": "address"
        }
      ],
      "name": "findId",
      "outputs": [
        {
          "internalType": "uint256",
          "name": "",
          "type": "uint256"
        }
      ],
      "stateMutability": "view",
      "type": "function",
      "constant": true
    }
  ],
  "bytecode": "0x608060405234801561001057600080fd5b5033600360006101000a81548173ffffffffffffffffffffffffffffffffffffffff021916908373ffffffffffffffffffffffffffffffffffffffff160217905550600360009054906101000a900473ffffffffffffffffffffffffffffffffffffffff166000806101000a81548173ffffffffffffffffffffffffffffffffffffffff021916908373ffffffffffffffffffffffffffffffffffffffff160217905550612cf1806100c36000396000f3fe6080604052600436106100c25760003560e01c80636c5ed9391161007f57806395d8debb1161005957806395d8debb1461029a578063a27664ee146102db578063baa39e0514610318578063fdb10f5014610341576100c2565b80636c5ed939146102185780636fa830a614610241578063886734f71461025d576100c2565b806303825d6c146100c75780630d2d5dca146100f05780631d50a6c41461011b57806326e852501461015857806355d61952146101955780635e20bd4e146101db575b600080fd5b3480156100d357600080fd5b506100ee60048036038101906100e99190611db0565b61036a565b005b3480156100fc57600080fd5b5061010561052f565b604051610112919061257b565b60405180910390f35b34801561012757600080fd5b50610142600480360381019061013d9190611e6b565b6105c7565b60405161014f91906126c9565b60405180910390f35b34801561016457600080fd5b5061017f600480360381019061017a91906121c6565b610614565b60405161018c919061250d565b60405180910390f35b3480156101a157600080fd5b506101bc60048036038101906101b791906121c6565b610654565b6040516101d29a999897969594939291906125b8565b60405180910390f35b3480156101e757600080fd5b5061020260048036038101906101fd9190612007565b6109bc565b60405161020f919061259d565b60405180910390f35b34801561022457600080fd5b5061023f600480360381019061023a91906121c6565b610f78565b005b61025b600480360381019061025691906121c6565b61106a565b005b34801561026957600080fd5b50610284600480360381019061027f9190611f26565b611365565b604051610291919061259d565b60405180910390f35b3480156102a657600080fd5b506102c160048036038101906102bc91906121c6565b6116e0565b6040516102d2959493929190612528565b60405180910390f35b3480156102e757600080fd5b5061030260048036038101906102fd91906121f3565b6117c8565b60405161030f91906126c9565b60405180910390f35b34801561032457600080fd5b5061033f600480360381019061033a91906121c6565b6118aa565b005b34801561034d57600080fd5b5061036860048036038101906103639190612233565b611949565b005b600360009054906101000a900473ffffffffffffffffffffffffffffffffffffffff1673ffffffffffffffffffffffffffffffffffffffff163373ffffffffffffffffffffffffffffffffffffffff16146103c457600080fd5b82600460008673ffffffffffffffffffffffffffffffffffffffff1673ffffffffffffffffffffffffffffffffffffffff168152602001908152602001600020600001908051906020019061041a929190611c49565b5081600460008673ffffffffffffffffffffffffffffffffffffffff1673ffffffffffffffffffffffffffffffffffffffff1681526020019081526020016000206001019080519060200190610471929190611c49565b5080600460008673ffffffffffffffffffffffffffffffffffffffff1673ffffffffffffffffffffffffffffffffffffffff16815260200190815260200160002060020190805190602001906104c8929190611c49565b50836005836040516104da91906124b4565b908152602001604051809103902060000160006101000a81548173ffffffffffffffffffffffffffffffffffffffff021916908373ffffffffffffffffffffffffffffffffffffffff16021790555050505050565b6060600660003373ffffffffffffffffffffffffffffffffffffffff1673ffffffffffffffffffffffffffffffffffffffff1681526020019081526020016000206000018054806020026020016040519081016040528092919081815260200182805480156105bd57602002820191906000526020600020905b8154815260200190600101908083116105a9575b5050505050905090565b60006509184e72a000858585856040516020016105e794939291906124cb565b6040516020818303038152906040528051906020012060001c61060a91906129ec565b9050949350505050565b60006001600083815260200190815260200160002060070160019054906101000a900473ffffffffffffffffffffffffffffffffffffffff169050919050565b6060806060600080600080600080600080600160008d81526020019081526020016000206040518061016001604052908160008201805461069490612936565b80601f01602080910402602001604051908101604052809291908181526020018280546106c090612936565b801561070d5780601f106106e25761010080835404028352916020019161070d565b820191906000526020600020905b8154815290600101906020018083116106f057829003601f168201915b5050505050815260200160018201805461072690612936565b80601f016020809104026020016040519081016040528092919081815260200182805461075290612936565b801561079f5780601f106107745761010080835404028352916020019161079f565b820191906000526020600020905b81548152906001019060200180831161078257829003601f168201915b505050505081526020016002820180546107b890612936565b80601f01602080910402602001604051908101604052809291908181526020018280546107e490612936565b80156108315780601f1061080657610100808354040283529160200191610831565b820191906000526020600020905b81548152906001019060200180831161081457829003601f168201915b5050505050815260200160038201548152602001600482015481526020016005820160009054906101000a900473ffffffffffffffffffffffffffffffffffffffff1673ffffffffffffffffffffffffffffffffffffffff1673ffffffffffffffffffffffffffffffffffffffff168152602001600682015481526020016007820160009054906101000a900460ff161515151581526020016007820160019054906101000a900473ffffffffffffffffffffffffffffffffffffffff1673ffffffffffffffffffffffffffffffffffffffff1673ffffffffffffffffffffffffffffffffffffffff1681526020016007820160159054906101000a900460ff16600381111561094457610943612a7b565b5b600381111561095657610955612a7b565b5b81526020016008820154815250509050806000015181602001518260400151836060015184608001518560a001518660c001518760e001518861010001518961012001519a509a509a509a509a509a509a509a509a509a50509193959799509193959799565b6000600360009054906101000a900473ffffffffffffffffffffffffffffffffffffffff1673ffffffffffffffffffffffffffffffffffffffff163373ffffffffffffffffffffffffffffffffffffffff1614610a1857600080fd5b3373ffffffffffffffffffffffffffffffffffffffff16600584604051610a3f91906124b4565b908152602001604051809103902060000160009054906101000a900473ffffffffffffffffffffffffffffffffffffffff1673ffffffffffffffffffffffffffffffffffffffff161480610ae057503373ffffffffffffffffffffffffffffffffffffffff16600360009054906101000a900473ffffffffffffffffffffffffffffffffffffffff1673ffffffffffffffffffffffffffffffffffffffff16145b610b1f576040517f08c379a0000000000000000000000000000000000000000000000000000000008152600401610b16906126a9565b60405180910390fd5b60007fc5d2460186f7233c927e7db2dcc703c0e500b653ca82273b7bfad8045d85a470905080600760008573ffffffffffffffffffffffffffffffffffffffff1673ffffffffffffffffffffffffffffffffffffffff168152602001908152602001600020600601604051610b94919061249d565b60405180910390201480610bfd575080600760008573ffffffffffffffffffffffffffffffffffffffff1673ffffffffffffffffffffffffffffffffffffffff168152602001908152602001600020600701604051610bf3919061249d565b6040518091039020145b610c3c576040517f08c379a0000000000000000000000000000000000000000000000000000000008152600401610c3390612689565b60405180910390fd5b8b600760008573ffffffffffffffffffffffffffffffffffffffff1673ffffffffffffffffffffffffffffffffffffffff1681526020019081526020016000206000019080519060200190610c92929190611c49565b508a600760008573ffffffffffffffffffffffffffffffffffffffff1673ffffffffffffffffffffffffffffffffffffffff1681526020019081526020016000206001019080519060200190610ce9929190611c49565b5089600760008573ffffffffffffffffffffffffffffffffffffffff1673ffffffffffffffffffffffffffffffffffffffff1681526020019081526020016000206002018190555088600760008573ffffffffffffffffffffffffffffffffffffffff1673ffffffffffffffffffffffffffffffffffffffff1681526020019081526020016000206003019080519060200190610d87929190611c49565b5087600760008573ffffffffffffffffffffffffffffffffffffffff1673ffffffffffffffffffffffffffffffffffffffff1681526020019081526020016000206004019080519060200190610dde929190611c49565b5086600760008573ffffffffffffffffffffffffffffffffffffffff1673ffffffffffffffffffffffffffffffffffffffff1681526020019081526020016000206005019080519060200190610e35929190611c49565b5085600760008573ffffffffffffffffffffffffffffffffffffffff1673ffffffffffffffffffffffffffffffffffffffff1681526020019081526020016000206006019080519060200190610e8c929190611c49565b5084600760008573ffffffffffffffffffffffffffffffffffffffff1673ffffffffffffffffffffffffffffffffffffffff1681526020019081526020016000206007019080519060200190610ee3929190611c49565b5082600760008573ffffffffffffffffffffffffffffffffffffffff1673ffffffffffffffffffffffffffffffffffffffff16815260200190815260200160002060080160006101000a81548173ffffffffffffffffffffffffffffffffffffffff021916908373ffffffffffffffffffffffffffffffffffffffff16021790555060019150509a9950505050505050505050565b6001600082815260200190815260200160002060070160009054906101000a900460ff16610fa557600080fd5b336001600083815260200190815260200160002060070160016101000a81548173ffffffffffffffffffffffffffffffffffffffff021916908373ffffffffffffffffffffffffffffffffffffffff16021790555060006001600083815260200190815260200160002060070160006101000a81548160ff021916908315150217905550600180600083815260200190815260200160002060070160156101000a81548160ff0219169083600381111561106257611061612a7b565b5b021790555050565b60038081111561107d5761107c612a7b565b5b6001600083815260200190815260200160002060070160159054906101000a900460ff1660038111156110b3576110b2612a7b565b5b146110bd57600080fd5b600a60016000838152602001908152602001600020600601546110e09190612810565b600160008381526020019081526020016000206006015461110191906127ba565b34101561110d57600080fd5b6001600082815260200190815260200160002060050160009054906101000a900473ffffffffffffffffffffffffffffffffffffffff1673ffffffffffffffffffffffffffffffffffffffff166108fc60016000848152602001908152602001600020600601549081150290604051600060405180830381858888f1935050505015801561119f573d6000803e3d6000fd5b506111e06001600083815260200190815260200160002060050160009054906101000a900473ffffffffffffffffffffffffffffffffffffffff1682611abc565b336001600083815260200190815260200160002060050160006101000a81548173ffffffffffffffffffffffffffffffffffffffff021916908373ffffffffffffffffffffffffffffffffffffffff16021790555060006001600083815260200190815260200160002060070160006101000a81548160ff02191690831515021790555060006001600083815260200190815260200160002060070160016101000a81548173ffffffffffffffffffffffffffffffffffffffff021916908373ffffffffffffffffffffffffffffffffffffffff16021790555060006001600083815260200190815260200160002060070160156101000a81548160ff021916908360038111156112f4576112f3612a7b565b5b0217905550600660003373ffffffffffffffffffffffffffffffffffffffff1673ffffffffffffffffffffffffffffffffffffffff16815260200190815260200160002060000181908060018154018082558091505060019003906000526020600020016000909190919091505550565b60003373ffffffffffffffffffffffffffffffffffffffff1660058860405161138e91906124b4565b908152602001604051809103902060000160009054906101000a900473ffffffffffffffffffffffffffffffffffffffff1673ffffffffffffffffffffffffffffffffffffffff16148061142f57503373ffffffffffffffffffffffffffffffffffffffff16600360009054906101000a900473ffffffffffffffffffffffffffffffffffffffff1673ffffffffffffffffffffffffffffffffffffffff16145b61146e576040517f08c379a0000000000000000000000000000000000000000000000000000000008152600401611465906126a9565b60405180910390fd5b600061147c888888886105c7565b9050600060016000838152602001908152602001600020600401541480156114ba575060006001600083815260200190815260200160002060030154145b6114f9576040517f08c379a00000000000000000000000000000000000000000000000000000000081526004016114f090612669565b60405180910390fd5b87600160008381526020019081526020016000206000019080519060200190611523929190611c49565b508660016000838152602001908152602001600020600101908051906020019061154e929190611c49565b5085600160008381526020019081526020016000206002019080519060200190611579929190611c49565b50846001600083815260200190815260200160002060030181905550836001600083815260200190815260200160002060040181905550826001600083815260200190815260200160002060050160006101000a81548173ffffffffffffffffffffffffffffffffffffffff021916908373ffffffffffffffffffffffffffffffffffffffff16021790555080600160008381526020019081526020016000206008018190555060028860405161163091906124b4565b9081526020016040518091039020600001819080600181540180825580915050600190039060005260206000200160009091909190915055600660008473ffffffffffffffffffffffffffffffffffffffff1673ffffffffffffffffffffffffffffffffffffffff16815260200190815260200160002060000181908060018154018082558091505060019003906000526020600020016000909190919091505560019150509695505050505050565b60008060008060006001600087815260200190815260200160002060050160009054906101000a900473ffffffffffffffffffffffffffffffffffffffff1660016000888152602001908152602001600020600601546001600089815260200190815260200160002060070160009054906101000a900460ff16600160008a815260200190815260200160002060070160019054906101000a900473ffffffffffffffffffffffffffffffffffffffff16600160008b815260200190815260200160002060070160159054906101000a900460ff169450945094509450945091939590929450565b600080600090505b600660008473ffffffffffffffffffffffffffffffffffffffff1673ffffffffffffffffffffffffffffffffffffffff1681526020019081526020016000206000018054905081101561189f5783600660008573ffffffffffffffffffffffffffffffffffffffff1673ffffffffffffffffffffffffffffffffffffffff168152602001908152602001600020600001828154811061187257611871612b08565b5b9060005260206000200154141561188c57809150506118a4565b808061189790612999565b9150506117d0565b809150505b92915050565b3373ffffffffffffffffffffffffffffffffffffffff166001600083815260200190815260200160002060050160009054906101000a900473ffffffffffffffffffffffffffffffffffffffff1673ffffffffffffffffffffffffffffffffffffffff161461191857600080fd5b600180600083815260200190815260200160002060070160006101000a81548160ff02191690831515021790555050565b3373ffffffffffffffffffffffffffffffffffffffff166001600084815260200190815260200160002060050160009054906101000a900473ffffffffffffffffffffffffffffffffffffffff1673ffffffffffffffffffffffffffffffffffffffff16146119b757600080fd5b806001600084815260200190815260200160002060070160156101000a81548160ff021916908360038111156119f0576119ef612a7b565b5b021790555060026003811115611a0957611a08612a7b565b5b816003811115611a1c57611a1b612a7b565b5b1415611ab85760006001600084815260200190815260200160002060070160016101000a81548173ffffffffffffffffffffffffffffffffffffffff021916908373ffffffffffffffffffffffffffffffffffffffff16021790555060006001600084815260200190815260200160002060070160156101000a81548160ff02191690836003811115611ab257611ab1612a7b565b5b02179055505b5050565b6000611ac882846117c8565b9050600660008473ffffffffffffffffffffffffffffffffffffffff1673ffffffffffffffffffffffffffffffffffffffff1681526020019081526020016000206000016001600660008673ffffffffffffffffffffffffffffffffffffffff1673ffffffffffffffffffffffffffffffffffffffff16815260200190815260200160002060000180549050611b5e9190612841565b81548110611b6f57611b6e612b08565b5b9060005260206000200154600660008573ffffffffffffffffffffffffffffffffffffffff1673ffffffffffffffffffffffffffffffffffffffff1681526020019081526020016000206000018281548110611bce57611bcd612b08565b5b9060005260206000200181905550600660008473ffffffffffffffffffffffffffffffffffffffff1673ffffffffffffffffffffffffffffffffffffffff168152602001908152602001600020600001805480611c2e57611c2d612ad9565b5b60019003818190600052602060002001600090559055505050565b828054611c5590612936565b90600052602060002090601f016020900481019282611c775760008555611cbe565b82601f10611c9057805160ff1916838001178555611cbe565b82800160010185558215611cbe579182015b82811115611cbd578251825591602001919060010190611ca2565b5b509050611ccb9190611ccf565b5090565b5b80821115611ce8576000816000905550600101611cd0565b5090565b6000611cff611cfa84612709565b6126e4565b905082815260208101848484011115611d1b57611d1a612b6b565b5b611d268482856128f4565b509392505050565b600081359050611d3d81612c66565b92915050565b600081359050611d5281612c7d565b92915050565b600081359050611d6781612c94565b92915050565b600082601f830112611d8257611d81612b66565b5b8135611d92848260208601611cec565b91505092915050565b600081359050611daa81612ca4565b92915050565b60008060008060808587031215611dca57611dc9612b75565b5b6000611dd887828801611d2e565b945050602085013567ffffffffffffffff811115611df957611df8612b70565b5b611e0587828801611d6d565b935050604085013567ffffffffffffffff811115611e2657611e25612b70565b5b611e3287828801611d6d565b925050606085013567ffffffffffffffff811115611e5357611e52612b70565b5b611e5f87828801611d6d565b91505092959194509250565b60008060008060808587031215611e8557611e84612b75565b5b600085013567ffffffffffffffff811115611ea357611ea2612b70565b5b611eaf87828801611d6d565b945050602085013567ffffffffffffffff811115611ed057611ecf612b70565b5b611edc87828801611d6d565b935050604085013567ffffffffffffffff811115611efd57611efc612b70565b5b611f0987828801611d6d565b9250506060611f1a87828801611d9b565b91505092959194509250565b60008060008060008060c08789031215611f4357611f42612b75565b5b600087013567ffffffffffffffff811115611f6157611f60612b70565b5b611f6d89828a01611d6d565b965050602087013567ffffffffffffffff811115611f8e57611f8d612b70565b5b611f9a89828a01611d6d565b955050604087013567ffffffffffffffff811115611fbb57611fba612b70565b5b611fc789828a01611d6d565b9450506060611fd889828a01611d9b565b9350506080611fe989828a01611d9b565b92505060a0611ffa89828a01611d43565b9150509295509295509295565b6000806000806000806000806000806101408b8d03121561202b5761202a612b75565b5b60008b013567ffffffffffffffff81111561204957612048612b70565b5b6120558d828e01611d6d565b9a505060208b013567ffffffffffffffff81111561207657612075612b70565b5b6120828d828e01611d6d565b99505060406120938d828e01611d9b565b98505060608b013567ffffffffffffffff8111156120b4576120b3612b70565b5b6120c08d828e01611d6d565b97505060808b013567ffffffffffffffff8111156120e1576120e0612b70565b5b6120ed8d828e01611d6d565b96505060a08b013567ffffffffffffffff81111561210e5761210d612b70565b5b61211a8d828e01611d6d565b95505060c08b013567ffffffffffffffff81111561213b5761213a612b70565b5b6121478d828e01611d6d565b94505060e08b013567ffffffffffffffff81111561216857612167612b70565b5b6121748d828e01611d6d565b9350506101008b013567ffffffffffffffff81111561219657612195612b70565b5b6121a28d828e01611d6d565b9250506101206121b48d828e01611d43565b9150509295989b9194979a5092959850565b6000602082840312156121dc576121db612b75565b5b60006121ea84828501611d9b565b91505092915050565b6000806040838503121561220a57612209612b75565b5b600061221885828601611d9b565b925050602061222985828601611d2e565b9150509250929050565b6000806040838503121561224a57612249612b75565b5b600061225885828601611d9b565b925050602061226985828601611d58565b9150509250929050565b600061227f8383612468565b60208301905092915050565b61229481612875565b82525050565b60006122a58261275f565b6122af8185612782565b93506122ba8361273a565b8060005b838110156122eb5781516122d28882612273565b97506122dd83612775565b9250506001810190506122be565b5085935050505092915050565b61230181612899565b82525050565b6000815461231481612936565b61231e8186612793565b94506001821660008114612339576001811461234a5761237d565b60ff1983168652818601935061237d565b6123538561274a565b60005b8381101561237557815481890152600182019150602081019050612356565b838801955050505b50505092915050565b61238f816128e2565b82525050565b60006123a08261276a565b6123aa818561279e565b93506123ba818560208601612903565b6123c381612b7a565b840191505092915050565b60006123d98261276a565b6123e381856127af565b93506123f3818560208601612903565b80840191505092915050565b600061240c60218361279e565b915061241782612b8b565b604082019050919050565b600061242f601c8361279e565b915061243a82612bda565b602082019050919050565b600061245260328361279e565b915061245d82612c03565b604082019050919050565b612471816128d8565b82525050565b612480816128d8565b82525050565b612497612492826128d8565b6129e2565b82525050565b60006124a98284612307565b915081905092915050565b60006124c082846123ce565b915081905092915050565b60006124d782876123ce565b91506124e382866123ce565b91506124ef82856123ce565b91506124fb8284612486565b60208201915081905095945050505050565b6000602082019050612522600083018461228b565b92915050565b600060a08201905061253d600083018861228b565b61254a6020830187612477565b61255760408301866122f8565b612564606083018561228b565b6125716080830184612386565b9695505050505050565b60006020820190508181036000830152612595818461229a565b905092915050565b60006020820190506125b260008301846122f8565b92915050565b60006101408201905081810360008301526125d3818d612395565b905081810360208301526125e7818c612395565b905081810360408301526125fb818b612395565b905061260a606083018a612477565b6126176080830189612477565b61262460a083018861228b565b61263160c0830187612477565b61263e60e08301866122f8565b61264c61010083018561228b565b61265a610120830184612386565b9b9a5050505050505050505050565b60006020820190508181036000830152612682816123ff565b9050919050565b600060208201905081810360008301526126a281612422565b9050919050565b600060208201905081810360008301526126c281612445565b9050919050565b60006020820190506126de6000830184612477565b92915050565b60006126ee6126ff565b90506126fa8282612968565b919050565b6000604051905090565b600067ffffffffffffffff82111561272457612723612b37565b5b61272d82612b7a565b9050602081019050919050565b6000819050602082019050919050565b60008190508160005260206000209050919050565b600081519050919050565b600081519050919050565b6000602082019050919050565b600082825260208201905092915050565b600081905092915050565b600082825260208201905092915050565b600081905092915050565b60006127c5826128d8565b91506127d0836128d8565b9250827fffffffffffffffffffffffffffffffffffffffffffffffffffffffffffffffff0382111561280557612804612a1d565b5b828201905092915050565b600061281b826128d8565b9150612826836128d8565b92508261283657612835612a4c565b5b828204905092915050565b600061284c826128d8565b9150612857836128d8565b92508282101561286a57612869612a1d565b5b828203905092915050565b6000612880826128b8565b9050919050565b6000612892826128b8565b9050919050565b60008115159050919050565b60008190506128b382612c52565b919050565b600073ffffffffffffffffffffffffffffffffffffffff82169050919050565b6000819050919050565b60006128ed826128a5565b9050919050565b82818337600083830152505050565b60005b83811015612921578082015181840152602081019050612906565b83811115612930576000848401525b50505050565b6000600282049050600182168061294e57607f821691505b6020821081141561296257612961612aaa565b5b50919050565b61297182612b7a565b810181811067ffffffffffffffff821117156129905761298f612b37565b5b80604052505050565b60006129a4826128d8565b91507fffffffffffffffffffffffffffffffffffffffffffffffffffffffffffffffff8214156129d7576129d6612a1d565b5b600182019050919050565b6000819050919050565b60006129f7826128d8565b9150612a02836128d8565b925082612a1257612a11612a4c565b5b828206905092915050565b7f4e487b7100000000000000000000000000000000000000000000000000000000600052601160045260246000fd5b7f4e487b7100000000000000000000000000000000000000000000000000000000600052601260045260246000fd5b7f4e487b7100000000000000000000000000000000000000000000000000000000600052602160045260246000fd5b7f4e487b7100000000000000000000000000000000000000000000000000000000600052602260045260246000fd5b7f4e487b7100000000000000000000000000000000000000000000000000000000600052603160045260246000fd5b7f4e487b7100000000000000000000000000000000000000000000000000000000600052603260045260246000fd5b7f4e487b7100000000000000000000000000000000000000000000000000000000600052604160045260246000fd5b600080fd5b600080fd5b600080fd5b600080fd5b6000601f19601f8301169050919050565b7f4c616e642077697468207468697320494420616c72656164792065786973747360008201527f2e00000000000000000000000000000000000000000000000000000000000000602082015250565b7f54686973206163636f756e7420616c7265616479206578697374732e00000000600082015250565b7f4f6e6c792061646d696e732061726520616c6c6f77656420746f20706572666f60008201527f726d2074686973206f7065726174696f6e2e0000000000000000000000000000602082015250565b60048110612c6357612c62612a7b565b5b50565b612c6f81612875565b8114612c7a57600080fd5b50565b612c8681612887565b8114612c9157600080fd5b50565b60048110612ca157600080fd5b50565b612cad816128d8565b8114612cb857600080fd5b5056fea2646970667358221220c3db0f2d4840b8f606e2b724910e709c6191717ae8112b05ece052a086ddae0f64736f6c63430008060033",
  "immutableReferences": {},
  "source": "// SPDX-License-Identifier: MIT\r\n\r\npragma solidity >=0.5.1 <= 0.8.6;\r\n\r\ncontract LandReg{\r\n    address superAdmin;\r\n\r\n    struct landDetails{\r\n        string state;\r\n        string district;\r\n        string cadzone;\r\n        uint256 plotNumber;\r\n        uint256 plotSize;  // * 4 decimal places\r\n        address payable currentOwner;\r\n        uint marketValue;\r\n        bool isAvailable;\r\n        address requester;\r\n        reqStatus requestStatus; \r\n        uint id;\r\n    }\r\n\r\n    struct ownerDetails {\r\n        string name;\r\n        string gender;\r\n        uint dob;\r\n        string ownerAddress;\r\n        string phone1;\r\n        string phone2;\r\n        string NIN;\r\n        string email;\r\n        address payable wAddress;\r\n    }\r\n\r\n    struct adminDetails {\r\n        string name;\r\n        string state;\r\n        string district;\r\n    }\r\n    struct adminState {\r\n        address adminAddress;\r\n    }\r\n\r\n    //request status\r\n    enum reqStatus { Default, pending, reject, approved }\r\n\r\n    //profile of a client\r\n    struct profiles{\r\n        uint[] assetList;   \r\n    }\r\n\r\n    struct landState {\r\n        uint[] ids;\r\n    }\r\n\r\n    mapping(uint => landDetails) lands;\r\n    mapping(string => landState) landStates; // Push land ids inside their respestive states\r\n    address owner;\r\n    mapping( address => adminDetails) admins;\r\n    mapping(string => adminState) adminStates;\r\n    mapping( address => profiles) profile;\r\n\r\n    mapping( address => ownerDetails ) owners;\r\n    \r\n    //contract owner\r\n    constructor() {\r\n        owner = msg.sender;\r\n        superAdmin = owner;\r\n    }\r\n\r\n    modifier onlyOwner {\r\n        require(msg.sender == owner);\r\n        _;\r\n    }\r\n    \r\n    //adding region admins\r\n    function addAdmin( address admin, string memory name, string memory state, string memory district ) onlyOwner public {\r\n        admins[admin].name = name;\r\n        admins[admin].state = state;\r\n        admins[admin].district = district;\r\n\r\n        adminStates[state].adminAddress = admin;\r\n    }\r\n    //Registration of land details.\r\n    function registerLand(\r\n        string memory state,\r\n        string memory district,\r\n        string memory cadzone,\r\n        uint plotNumber,\r\n        uint plotSize,\r\n        address payable wAddress\r\n        ) public returns(bool) {\r\n        require(adminStates[state].adminAddress == msg.sender || owner == msg.sender, \"Only admins are allowed to perform this operation.\");\r\n        uint id = computeId(state,district,cadzone,plotNumber);\r\n        require(lands[id].plotSize == 0 && lands[id].plotNumber == 0, \"Land with this ID already exists.\");\r\n        lands[id].state = state;\r\n        lands[id].district = district;\r\n        lands[id].cadzone = cadzone;\r\n        \r\n        lands[id].plotNumber = plotNumber;\r\n        lands[id].plotSize = plotSize;\r\n        lands[id].currentOwner = wAddress;\r\n\r\n        lands[id].id = id;\r\n        landStates[state].ids.push(id);\r\n\r\n        profile[wAddress].assetList.push(id);\r\n        return true;\r\n    }\r\n\r\n    function registerOwner(\r\n        string memory name,\r\n        string memory gender,\r\n        uint dob,\r\n        string memory ownerAddress,\r\n        string memory phone1,\r\n        string memory phone2,\r\n        string memory NIN,\r\n        string memory email,\r\n        string memory stateOfAdmin,\r\n        address payable wAddress\r\n    ) onlyOwner public returns (bool){\r\n        require(adminStates[stateOfAdmin].adminAddress == msg.sender || owner == msg.sender, \"Only admins are allowed to perform this operation.\");\r\n        bytes32 emptyHash = keccak256(\"\");\r\n        require( keccak256(bytes(owners[wAddress].NIN)) == emptyHash || keccak256(bytes(owners[wAddress].email)) == emptyHash, \"This account already exists.\");\r\n\r\n        owners[wAddress].name = name;\r\n        owners[wAddress].gender = gender;\r\n        owners[wAddress].dob = dob;\r\n        owners[wAddress].ownerAddress = ownerAddress;\r\n        owners[wAddress].phone1 = phone1;\r\n        owners[wAddress].phone2 = phone2;\r\n        owners[wAddress].NIN = NIN;\r\n        owners[wAddress].email = email;\r\n        owners[wAddress].wAddress = wAddress;\r\n\r\n        return true;\r\n    }\r\n\r\n    //to view details of land for the owner\r\n    function landInfoOwner(uint id) public view returns(string memory,string memory,string memory,uint,uint,address,uint, bool,address,reqStatus){\r\n        landDetails memory lands_local = lands[id];\r\n        return(\r\n            lands_local.state,\r\n            lands_local.district,\r\n            lands_local.cadzone,\r\n            lands_local.plotNumber,\r\n            lands_local.plotSize,\r\n            lands_local.currentOwner,\r\n            lands_local.marketValue,\r\n            lands_local.isAvailable,\r\n            lands_local.requester,\r\n            lands_local.requestStatus\r\n            );\r\n    }\r\n    \r\n    //to view details of land for the buyer\r\n    function landInfoBuyer(uint id) public view returns(address,uint,bool,address,reqStatus){\r\n        return(lands[id].currentOwner, lands[id].marketValue, lands[id].isAvailable, lands[id].requester, lands[id].requestStatus);\r\n    }\r\n\r\n    // to compute id for a land.\r\n    function computeId(string memory state, string memory district, string memory cadzone, uint plotNumber) public pure returns(uint){\r\n        return uint(keccak256(abi.encodePacked(state, district, cadzone, plotNumber)))%10000000000000;\r\n    }\r\n\r\n    //push a request to the land owner\r\n    function requstToLandOwner(uint id) public {\r\n        require(lands[id].isAvailable);\r\n        lands[id].requester = msg.sender;\r\n        lands[id].isAvailable = false;\r\n        lands[id].requestStatus = reqStatus.pending; //changes the status to pending.\r\n    }\r\n    //will show assets of the function caller \r\n    function viewAssets()public view returns(uint[] memory){\r\n        return (profile[msg.sender].assetList);\r\n    }\r\n    //viewing request for the lands\r\n    function viewRequest(uint property)public view returns(address){\r\n        return(lands[property].requester);\r\n    }\r\n    //processing request for the land by accepting or rejecting\r\n    function processRequest(uint property,reqStatus status) public {\r\n        require(lands[property].currentOwner == msg.sender);\r\n        lands[property].requestStatus = status;\r\n        if(status == reqStatus.reject){\r\n            lands[property].requester = address(0);\r\n            lands[property].requestStatus = reqStatus.Default;\r\n        }\r\n    }\r\n    //availing lands for sale.\r\n    function makeAvailable(uint property)public{\r\n        require(lands[property].currentOwner == msg.sender);\r\n        lands[property].isAvailable=true;\r\n    } \r\n\r\n    //buying the approved property\r\n    function buyProperty(uint property)public payable{\r\n        require(lands[property].requestStatus == reqStatus.approved);\r\n        require(msg.value >= (lands[property].marketValue+((lands[property].marketValue)/10)));\r\n        lands[property].currentOwner.transfer(lands[property].marketValue);\r\n        removeOwnership(lands[property].currentOwner,property);\r\n        lands[property].currentOwner=payable(msg.sender);\r\n        lands[property].isAvailable=false;\r\n        lands[property].requester = address(0);\r\n        lands[property].requestStatus = reqStatus.Default;\r\n        profile[msg.sender].assetList.push(property); //adds the property to the asset list of the new owner.\r\n        \r\n    }\r\n    //removing the ownership of seller for the lands. and it is called by the buyProperty function\r\n    function removeOwnership(address previousOwner,uint id)private{\r\n        uint index = findId(id,previousOwner);\r\n        profile[previousOwner].assetList[index]=profile[previousOwner].assetList[profile[previousOwner].assetList.length-1];\r\n        profile[previousOwner].assetList.pop();\r\n    }\r\n    //for finding the index of a perticular id\r\n    function findId(uint id,address user)public view returns(uint){\r\n        uint i;\r\n        for(i=0;i<profile[user].assetList.length;i++){\r\n            if(profile[user].assetList[i] == id)\r\n                return i;\r\n        }\r\n        return i;\r\n    }\r\n}",
  "sourcePath": "C:/Mine/Sources/eth/SanniMSc/begin-real/contracts/LandReg.sol",
  "compiler": {
    "name": "solc",
    "version": "0.8.6+commit.11564f7e.Emscripten.clang"
  },
  "schemaVersion": "3.4.1",
  "updatedAt": "2021-07-14T10:28:13.420Z",
  "networkType": "ethereum",
  "devdoc": {
    "kind": "dev",
    "methods": {},
    "version": 1
  },
  "userdoc": {
    "kind": "user",
    "methods": {},
    "version": 1
  }
}