{
  "contractName": "LandReg",
  "abi": [
    {
      "inputs": [],
      "stateMutability": "nonpayable",
      "type": "constructor"
    },
    {
      "inputs": [
        {
          "internalType": "address",
          "name": "admin",
          "type": "address"
        },
        {
          "internalType": "string",
          "name": "name",
          "type": "string"
        },
        {
          "internalType": "string",
          "name": "state",
          "type": "string"
        },
        {
          "internalType": "string",
          "name": "district",
          "type": "string"
        }
      ],
      "name": "addAdmin",
      "outputs": [],
      "stateMutability": "nonpayable",
      "type": "function"
    },
    {
      "inputs": [
        {
          "internalType": "string",
          "name": "state",
          "type": "string"
        }
      ],
      "name": "getAdmin",
      "outputs": [
        {
          "internalType": "address",
          "name": "",
          "type": "address"
        }
      ],
      "stateMutability": "view",
      "type": "function",
      "constant": true
    },
    {
      "inputs": [
        {
          "internalType": "string",
          "name": "state",
          "type": "string"
        },
        {
          "internalType": "string",
          "name": "district",
          "type": "string"
        },
        {
          "internalType": "string",
          "name": "cadzone",
          "type": "string"
        },
        {
          "internalType": "uint256",
          "name": "plotNumber",
          "type": "uint256"
        },
        {
          "internalType": "uint256",
          "name": "plotSize",
          "type": "uint256"
        },
        {
          "internalType": "address payable",
          "name": "wAddress",
          "type": "address"
        }
      ],
      "name": "registerLand",
      "outputs": [
        {
          "internalType": "bool",
          "name": "",
          "type": "bool"
        }
      ],
      "stateMutability": "nonpayable",
      "type": "function"
    },
    {
      "inputs": [
        {
          "internalType": "uint256",
          "name": "id",
          "type": "uint256"
        },
        {
          "internalType": "string",
          "name": "cofo",
          "type": "string"
        },
        {
          "internalType": "uint256",
          "name": "cofoDate",
          "type": "uint256"
        },
        {
          "internalType": "string",
          "name": "rofoHash",
          "type": "string"
        },
        {
          "internalType": "uint256",
          "name": "rofoDate",
          "type": "uint256"
        },
        {
          "internalType": "string",
          "name": "stateOfAdmin",
          "type": "string"
        }
      ],
      "name": "editLandDOcuments",
      "outputs": [
        {
          "internalType": "bool",
          "name": "",
          "type": "bool"
        }
      ],
      "stateMutability": "nonpayable",
      "type": "function"
    },
    {
      "inputs": [
        {
          "internalType": "string",
          "name": "name",
          "type": "string"
        },
        {
          "internalType": "string",
          "name": "gender",
          "type": "string"
        },
        {
          "internalType": "uint256",
          "name": "dob",
          "type": "uint256"
        },
        {
          "internalType": "string",
          "name": "ownerAddress",
          "type": "string"
        },
        {
          "internalType": "string",
          "name": "phone1",
          "type": "string"
        },
        {
          "internalType": "string",
          "name": "phone2",
          "type": "string"
        },
        {
          "internalType": "string",
          "name": "NIN",
          "type": "string"
        },
        {
          "internalType": "string",
          "name": "email",
          "type": "string"
        },
        {
          "internalType": "string",
          "name": "stateOfAdmin",
          "type": "string"
        },
        {
          "internalType": "address payable",
          "name": "wAddress",
          "type": "address"
        }
      ],
      "name": "registerOwner",
      "outputs": [
        {
          "internalType": "bool",
          "name": "",
          "type": "bool"
        }
      ],
      "stateMutability": "nonpayable",
      "type": "function"
    },
    {
      "inputs": [
        {
          "internalType": "uint256",
          "name": "id",
          "type": "uint256"
        }
      ],
      "name": "landInfoFull",
      "outputs": [
        {
          "internalType": "string",
          "name": "",
          "type": "string"
        },
        {
          "internalType": "string",
          "name": "",
          "type": "string"
        },
        {
          "internalType": "string",
          "name": "",
          "type": "string"
        },
        {
          "internalType": "uint256",
          "name": "",
          "type": "uint256"
        },
        {
          "internalType": "uint256",
          "name": "",
          "type": "uint256"
        },
        {
          "internalType": "address",
          "name": "",
          "type": "address"
        },
        {
          "internalType": "uint256",
          "name": "",
          "type": "uint256"
        },
        {
          "internalType": "bool",
          "name": "",
          "type": "bool"
        },
        {
          "internalType": "address",
          "name": "",
          "type": "address"
        },
        {
          "internalType": "enum LandReg.reqStatus",
          "name": "",
          "type": "uint8"
        }
      ],
      "stateMutability": "view",
      "type": "function",
      "constant": true
    },
    {
      "inputs": [
        {
          "internalType": "uint256",
          "name": "id",
          "type": "uint256"
        }
      ],
      "name": "landInfoBuyer",
      "outputs": [
        {
          "internalType": "address",
          "name": "",
          "type": "address"
        },
        {
          "internalType": "uint256",
          "name": "",
          "type": "uint256"
        },
        {
          "internalType": "bool",
          "name": "",
          "type": "bool"
        },
        {
          "internalType": "address",
          "name": "",
          "type": "address"
        },
        {
          "internalType": "enum LandReg.reqStatus",
          "name": "",
          "type": "uint8"
        }
      ],
      "stateMutability": "view",
      "type": "function",
      "constant": true
    },
    {
      "inputs": [
        {
          "internalType": "string",
          "name": "state",
          "type": "string"
        },
        {
          "internalType": "string",
          "name": "district",
          "type": "string"
        },
        {
          "internalType": "string",
          "name": "cadzone",
          "type": "string"
        },
        {
          "internalType": "uint256",
          "name": "plotNumber",
          "type": "uint256"
        }
      ],
      "name": "computeId",
      "outputs": [
        {
          "internalType": "uint256",
          "name": "",
          "type": "uint256"
        }
      ],
      "stateMutability": "pure",
      "type": "function",
      "constant": true
    },
    {
      "inputs": [
        {
          "internalType": "address",
          "name": "wAddress",
          "type": "address"
        }
      ],
      "name": "viewAssets",
      "outputs": [
        {
          "internalType": "uint256[]",
          "name": "",
          "type": "uint256[]"
        }
      ],
      "stateMutability": "view",
      "type": "function",
      "constant": true
    },
    {
      "inputs": [
        {
          "internalType": "uint256",
          "name": "id",
          "type": "uint256"
        }
      ],
      "name": "requstToLandOwner",
      "outputs": [],
      "stateMutability": "nonpayable",
      "type": "function"
    },
    {
      "inputs": [
        {
          "internalType": "uint256",
          "name": "property",
          "type": "uint256"
        }
      ],
      "name": "viewRequest",
      "outputs": [
        {
          "internalType": "address",
          "name": "",
          "type": "address"
        }
      ],
      "stateMutability": "view",
      "type": "function",
      "constant": true
    },
    {
      "inputs": [
        {
          "internalType": "uint256",
          "name": "property",
          "type": "uint256"
        },
        {
          "internalType": "enum LandReg.reqStatus",
          "name": "status",
          "type": "uint8"
        }
      ],
      "name": "processRequest",
      "outputs": [],
      "stateMutability": "nonpayable",
      "type": "function"
    },
    {
      "inputs": [
        {
          "internalType": "uint256",
          "name": "property",
          "type": "uint256"
        }
      ],
      "name": "makeAvailable",
      "outputs": [],
      "stateMutability": "nonpayable",
      "type": "function"
    },
    {
      "inputs": [
        {
          "internalType": "uint256",
          "name": "property",
          "type": "uint256"
        }
      ],
      "name": "buyProperty",
      "outputs": [],
      "stateMutability": "payable",
      "type": "function",
      "payable": true
    },
    {
      "inputs": [
        {
          "internalType": "uint256",
          "name": "id",
          "type": "uint256"
        },
        {
          "internalType": "address",
          "name": "user",
          "type": "address"
        }
      ],
      "name": "findId",
      "outputs": [
        {
          "internalType": "uint256",
          "name": "",
          "type": "uint256"
        }
      ],
      "stateMutability": "view",
      "type": "function",
      "constant": true
    }
  ],
  "bytecode": "0x608060405234801561001057600080fd5b5033600360006101000a81548173ffffffffffffffffffffffffffffffffffffffff021916908373ffffffffffffffffffffffffffffffffffffffff160217905550600360009054906101000a900473ffffffffffffffffffffffffffffffffffffffff166000806101000a81548173ffffffffffffffffffffffffffffffffffffffff021916908373ffffffffffffffffffffffffffffffffffffffff16021790555061330d806100c36000396000f3fe6080604052600436106100e85760003560e01c8063886734f71161008a578063baa39e0511610059578063baa39e0514610350578063de53b45614610379578063e6d218d9146103b6578063fdb10f50146103f3576100e8565b8063886734f71461024f57806392ecb4c31461028c57806395d8debb146102d2578063a27664ee14610313576100e8565b806326e85250116100c657806326e85250146101905780635e20bd4e146101cd5780636c5ed9391461020a5780636fa830a614610233576100e8565b806303825d6c146100ed5780631d50a6c414610116578063260d62c314610153575b600080fd5b3480156100f957600080fd5b50610114600480360381019061010f9190612236565b61041c565b005b34801561012257600080fd5b5061013d6004803603810190610138919061233a565b6105e1565b60405161014a9190612cbc565b60405180910390f35b34801561015f57600080fd5b5061017a60048036038101906101759190612209565b61062e565b6040516101879190612b4e565b60405180910390f35b34801561019c57600080fd5b506101b760048036038101906101b29190612695565b6106c8565b6040516101c49190612ae0565b60405180910390f35b3480156101d957600080fd5b506101f460048036038101906101ef91906124d6565b610708565b6040516102019190612b70565b60405180910390f35b34801561021657600080fd5b50610231600480360381019061022c9190612695565b610cc4565b005b61024d60048036038101906102489190612695565b610db6565b005b34801561025b57600080fd5b50610276600480360381019061027191906123f5565b6110b1565b6040516102839190612b70565b60405180910390f35b34801561029857600080fd5b506102b360048036038101906102ae9190612695565b61142c565b6040516102c99a99989796959493929190612b8b565b60405180910390f35b3480156102de57600080fd5b506102f960048036038101906102f49190612695565b6118ce565b60405161030a959493929190612afb565b60405180910390f35b34801561031f57600080fd5b5061033a600480360381019061033591906126c2565b6119b6565b6040516103479190612cbc565b60405180910390f35b34801561035c57600080fd5b5061037760048036038101906103729190612695565b611a98565b005b34801561038557600080fd5b506103a0600480360381019061039b9190612742565b611b37565b6040516103ad9190612b70565b60405180910390f35b3480156103c257600080fd5b506103dd60048036038101906103d891906122f1565b611d57565b6040516103ea9190612ae0565b60405180910390f35b3480156103ff57600080fd5b5061041a60048036038101906104159190612702565b611da2565b005b600360009054906101000a900473ffffffffffffffffffffffffffffffffffffffff1673ffffffffffffffffffffffffffffffffffffffff163373ffffffffffffffffffffffffffffffffffffffff161461047657600080fd5b82600460008673ffffffffffffffffffffffffffffffffffffffff1673ffffffffffffffffffffffffffffffffffffffff16815260200190815260200160002060000190805190602001906104cc9291906120a2565b5081600460008673ffffffffffffffffffffffffffffffffffffffff1673ffffffffffffffffffffffffffffffffffffffff16815260200190815260200160002060010190805190602001906105239291906120a2565b5080600460008673ffffffffffffffffffffffffffffffffffffffff1673ffffffffffffffffffffffffffffffffffffffff168152602001908152602001600020600201908051906020019061057a9291906120a2565b508360058360405161058c9190612a87565b908152602001604051809103902060000160006101000a81548173ffffffffffffffffffffffffffffffffffffffff021916908373ffffffffffffffffffffffffffffffffffffffff16021790555050505050565b60006509184e72a000858585856040516020016106019493929190612a9e565b6040516020818303038152906040528051906020012060001c6106249190612fdf565b9050949350505050565b6060600660008373ffffffffffffffffffffffffffffffffffffffff1673ffffffffffffffffffffffffffffffffffffffff1681526020019081526020016000206000018054806020026020016040519081016040528092919081815260200182805480156106bc57602002820191906000526020600020905b8154815260200190600101908083116106a8575b50505050509050919050565b600060016000838152602001908152602001600020600b0160019054906101000a900473ffffffffffffffffffffffffffffffffffffffff169050919050565b6000600360009054906101000a900473ffffffffffffffffffffffffffffffffffffffff1673ffffffffffffffffffffffffffffffffffffffff163373ffffffffffffffffffffffffffffffffffffffff161461076457600080fd5b3373ffffffffffffffffffffffffffffffffffffffff1660058460405161078b9190612a87565b908152602001604051809103902060000160009054906101000a900473ffffffffffffffffffffffffffffffffffffffff1673ffffffffffffffffffffffffffffffffffffffff16148061082c57503373ffffffffffffffffffffffffffffffffffffffff16600360009054906101000a900473ffffffffffffffffffffffffffffffffffffffff1673ffffffffffffffffffffffffffffffffffffffff16145b61086b576040517f08c379a000000000000000000000000000000000000000000000000000000000815260040161086290612c9c565b60405180910390fd5b60007fc5d2460186f7233c927e7db2dcc703c0e500b653ca82273b7bfad8045d85a470905080600760008573ffffffffffffffffffffffffffffffffffffffff1673ffffffffffffffffffffffffffffffffffffffff1681526020019081526020016000206006016040516108e09190612a70565b60405180910390201480610949575080600760008573ffffffffffffffffffffffffffffffffffffffff1673ffffffffffffffffffffffffffffffffffffffff16815260200190815260200160002060070160405161093f9190612a70565b6040518091039020145b610988576040517f08c379a000000000000000000000000000000000000000000000000000000000815260040161097f90612c7c565b60405180910390fd5b8b600760008573ffffffffffffffffffffffffffffffffffffffff1673ffffffffffffffffffffffffffffffffffffffff16815260200190815260200160002060000190805190602001906109de9291906120a2565b508a600760008573ffffffffffffffffffffffffffffffffffffffff1673ffffffffffffffffffffffffffffffffffffffff1681526020019081526020016000206001019080519060200190610a359291906120a2565b5089600760008573ffffffffffffffffffffffffffffffffffffffff1673ffffffffffffffffffffffffffffffffffffffff1681526020019081526020016000206002018190555088600760008573ffffffffffffffffffffffffffffffffffffffff1673ffffffffffffffffffffffffffffffffffffffff1681526020019081526020016000206003019080519060200190610ad39291906120a2565b5087600760008573ffffffffffffffffffffffffffffffffffffffff1673ffffffffffffffffffffffffffffffffffffffff1681526020019081526020016000206004019080519060200190610b2a9291906120a2565b5086600760008573ffffffffffffffffffffffffffffffffffffffff1673ffffffffffffffffffffffffffffffffffffffff1681526020019081526020016000206005019080519060200190610b819291906120a2565b5085600760008573ffffffffffffffffffffffffffffffffffffffff1673ffffffffffffffffffffffffffffffffffffffff1681526020019081526020016000206006019080519060200190610bd89291906120a2565b5084600760008573ffffffffffffffffffffffffffffffffffffffff1673ffffffffffffffffffffffffffffffffffffffff1681526020019081526020016000206007019080519060200190610c2f9291906120a2565b5082600760008573ffffffffffffffffffffffffffffffffffffffff1673ffffffffffffffffffffffffffffffffffffffff16815260200190815260200160002060080160006101000a81548173ffffffffffffffffffffffffffffffffffffffff021916908373ffffffffffffffffffffffffffffffffffffffff16021790555060019150509a9950505050505050505050565b60016000828152602001908152602001600020600b0160009054906101000a900460ff16610cf157600080fd5b3360016000838152602001908152602001600020600b0160016101000a81548173ffffffffffffffffffffffffffffffffffffffff021916908373ffffffffffffffffffffffffffffffffffffffff160217905550600060016000838152602001908152602001600020600b0160006101000a81548160ff0219169083151502179055506001806000838152602001908152602001600020600b0160156101000a81548160ff02191690836003811115610dae57610dad61306e565b5b021790555050565b600380811115610dc957610dc861306e565b5b60016000838152602001908152602001600020600b0160159054906101000a900460ff166003811115610dff57610dfe61306e565b5b14610e0957600080fd5b600a60016000838152602001908152602001600020600a0154610e2c9190612e03565b60016000838152602001908152602001600020600a0154610e4d9190612dad565b341015610e5957600080fd5b6001600082815260200190815260200160002060050160009054906101000a900473ffffffffffffffffffffffffffffffffffffffff1673ffffffffffffffffffffffffffffffffffffffff166108fc60016000848152602001908152602001600020600a01549081150290604051600060405180830381858888f19350505050158015610eeb573d6000803e3d6000fd5b50610f2c6001600083815260200190815260200160002060050160009054906101000a900473ffffffffffffffffffffffffffffffffffffffff1682611f15565b336001600083815260200190815260200160002060050160006101000a81548173ffffffffffffffffffffffffffffffffffffffff021916908373ffffffffffffffffffffffffffffffffffffffff160217905550600060016000838152602001908152602001600020600b0160006101000a81548160ff021916908315150217905550600060016000838152602001908152602001600020600b0160016101000a81548173ffffffffffffffffffffffffffffffffffffffff021916908373ffffffffffffffffffffffffffffffffffffffff160217905550600060016000838152602001908152602001600020600b0160156101000a81548160ff021916908360038111156110405761103f61306e565b5b0217905550600660003373ffffffffffffffffffffffffffffffffffffffff1673ffffffffffffffffffffffffffffffffffffffff16815260200190815260200160002060000181908060018154018082558091505060019003906000526020600020016000909190919091505550565b60003373ffffffffffffffffffffffffffffffffffffffff166005886040516110da9190612a87565b908152602001604051809103902060000160009054906101000a900473ffffffffffffffffffffffffffffffffffffffff1673ffffffffffffffffffffffffffffffffffffffff16148061117b57503373ffffffffffffffffffffffffffffffffffffffff16600360009054906101000a900473ffffffffffffffffffffffffffffffffffffffff1673ffffffffffffffffffffffffffffffffffffffff16145b6111ba576040517f08c379a00000000000000000000000000000000000000000000000000000000081526004016111b190612c9c565b60405180910390fd5b60006111c8888888886105e1565b905060006001600083815260200190815260200160002060040154148015611206575060006001600083815260200190815260200160002060030154145b611245576040517f08c379a000000000000000000000000000000000000000000000000000000000815260040161123c90612c5c565b60405180910390fd5b8760016000838152602001908152602001600020600001908051906020019061126f9291906120a2565b508660016000838152602001908152602001600020600101908051906020019061129a9291906120a2565b50856001600083815260200190815260200160002060020190805190602001906112c59291906120a2565b50846001600083815260200190815260200160002060030181905550836001600083815260200190815260200160002060040181905550826001600083815260200190815260200160002060050160006101000a81548173ffffffffffffffffffffffffffffffffffffffff021916908373ffffffffffffffffffffffffffffffffffffffff1602179055508060016000838152602001908152602001600020600c018190555060028860405161137c9190612a87565b9081526020016040518091039020600001819080600181540180825580915050600190039060005260206000200160009091909190915055600660008473ffffffffffffffffffffffffffffffffffffffff1673ffffffffffffffffffffffffffffffffffffffff16815260200190815260200160002060000181908060018154018082558091505060019003906000526020600020016000909190919091505560019150509695505050505050565b6060806060600080600080600080600080600160008d8152602001908152602001600020604051806101e001604052908160008201805461146c90612f29565b80601f016020809104026020016040519081016040528092919081815260200182805461149890612f29565b80156114e55780601f106114ba576101008083540402835291602001916114e5565b820191906000526020600020905b8154815290600101906020018083116114c857829003601f168201915b505050505081526020016001820180546114fe90612f29565b80601f016020809104026020016040519081016040528092919081815260200182805461152a90612f29565b80156115775780601f1061154c57610100808354040283529160200191611577565b820191906000526020600020905b81548152906001019060200180831161155a57829003601f168201915b5050505050815260200160028201805461159090612f29565b80601f01602080910402602001604051908101604052809291908181526020018280546115bc90612f29565b80156116095780601f106115de57610100808354040283529160200191611609565b820191906000526020600020905b8154815290600101906020018083116115ec57829003601f168201915b5050505050815260200160038201548152602001600482015481526020016005820160009054906101000a900473ffffffffffffffffffffffffffffffffffffffff1673ffffffffffffffffffffffffffffffffffffffff1673ffffffffffffffffffffffffffffffffffffffff16815260200160068201805461168c90612f29565b80601f01602080910402602001604051908101604052809291908181526020018280546116b890612f29565b80156117055780601f106116da57610100808354040283529160200191611705565b820191906000526020600020905b8154815290600101906020018083116116e857829003601f168201915b505050505081526020016007820154815260200160088201805461172890612f29565b80601f016020809104026020016040519081016040528092919081815260200182805461175490612f29565b80156117a15780601f10611776576101008083540402835291602001916117a1565b820191906000526020600020905b81548152906001019060200180831161178457829003601f168201915b5050505050815260200160098201548152602001600a8201548152602001600b820160009054906101000a900460ff16151515158152602001600b820160019054906101000a900473ffffffffffffffffffffffffffffffffffffffff1673ffffffffffffffffffffffffffffffffffffffff1673ffffffffffffffffffffffffffffffffffffffff168152602001600b820160159054906101000a900460ff1660038111156118545761185361306e565b5b60038111156118665761186561306e565b5b8152602001600c820154815250509050806000015181602001518260400151836060015184608001518560a00151866101400151876101600151886101800151896101a001519a509a509a509a509a509a509a509a509a509a50509193959799509193959799565b60008060008060006001600087815260200190815260200160002060050160009054906101000a900473ffffffffffffffffffffffffffffffffffffffff1660016000888152602001908152602001600020600a015460016000898152602001908152602001600020600b0160009054906101000a900460ff16600160008a8152602001908152602001600020600b0160019054906101000a900473ffffffffffffffffffffffffffffffffffffffff16600160008b8152602001908152602001600020600b0160159054906101000a900460ff169450945094509450945091939590929450565b600080600090505b600660008473ffffffffffffffffffffffffffffffffffffffff1673ffffffffffffffffffffffffffffffffffffffff16815260200190815260200160002060000180549050811015611a8d5783600660008573ffffffffffffffffffffffffffffffffffffffff1673ffffffffffffffffffffffffffffffffffffffff1681526020019081526020016000206000018281548110611a6057611a5f6130fb565b5b90600052602060002001541415611a7a5780915050611a92565b8080611a8590612f8c565b9150506119be565b809150505b92915050565b3373ffffffffffffffffffffffffffffffffffffffff166001600083815260200190815260200160002060050160009054906101000a900473ffffffffffffffffffffffffffffffffffffffff1673ffffffffffffffffffffffffffffffffffffffff1614611b0657600080fd5b6001806000838152602001908152602001600020600b0160006101000a81548160ff02191690831515021790555050565b60003373ffffffffffffffffffffffffffffffffffffffff16600583604051611b609190612a87565b908152602001604051809103902060000160009054906101000a900473ffffffffffffffffffffffffffffffffffffffff1673ffffffffffffffffffffffffffffffffffffffff161480611c0157503373ffffffffffffffffffffffffffffffffffffffff16600360009054906101000a900473ffffffffffffffffffffffffffffffffffffffff1673ffffffffffffffffffffffffffffffffffffffff16145b611c40576040517f08c379a0000000000000000000000000000000000000000000000000000000008152600401611c3790612c9c565b60405180910390fd5b6000600160008981526020019081526020016000206004015414158015611c7e57506000600160008981526020019081526020016000206003015414155b611cbd576040517f08c379a0000000000000000000000000000000000000000000000000000000008152600401611cb490612c3c565b60405180910390fd5b85600160008981526020019081526020016000206006019080519060200190611ce79291906120a2565b5084600160008981526020019081526020016000206007018190555083600160008981526020019081526020016000206008019080519060200190611d2d9291906120a2565b50826001600089815260200190815260200160002060090181905550600190509695505050505050565b6000600582604051611d699190612a87565b908152602001604051809103902060000160009054906101000a900473ffffffffffffffffffffffffffffffffffffffff169050919050565b3373ffffffffffffffffffffffffffffffffffffffff166001600084815260200190815260200160002060050160009054906101000a900473ffffffffffffffffffffffffffffffffffffffff1673ffffffffffffffffffffffffffffffffffffffff1614611e1057600080fd5b8060016000848152602001908152602001600020600b0160156101000a81548160ff02191690836003811115611e4957611e4861306e565b5b021790555060026003811115611e6257611e6161306e565b5b816003811115611e7557611e7461306e565b5b1415611f1157600060016000848152602001908152602001600020600b0160016101000a81548173ffffffffffffffffffffffffffffffffffffffff021916908373ffffffffffffffffffffffffffffffffffffffff160217905550600060016000848152602001908152602001600020600b0160156101000a81548160ff02191690836003811115611f0b57611f0a61306e565b5b02179055505b5050565b6000611f2182846119b6565b9050600660008473ffffffffffffffffffffffffffffffffffffffff1673ffffffffffffffffffffffffffffffffffffffff1681526020019081526020016000206000016001600660008673ffffffffffffffffffffffffffffffffffffffff1673ffffffffffffffffffffffffffffffffffffffff16815260200190815260200160002060000180549050611fb79190612e34565b81548110611fc857611fc76130fb565b5b9060005260206000200154600660008573ffffffffffffffffffffffffffffffffffffffff1673ffffffffffffffffffffffffffffffffffffffff1681526020019081526020016000206000018281548110612027576120266130fb565b5b9060005260206000200181905550600660008473ffffffffffffffffffffffffffffffffffffffff1673ffffffffffffffffffffffffffffffffffffffff168152602001908152602001600020600001805480612087576120866130cc565b5b60019003818190600052602060002001600090559055505050565b8280546120ae90612f29565b90600052602060002090601f0160209004810192826120d05760008555612117565b82601f106120e957805160ff1916838001178555612117565b82800160010185558215612117579182015b828111156121165782518255916020019190600101906120fb565b5b5090506121249190612128565b5090565b5b80821115612141576000816000905550600101612129565b5090565b600061215861215384612cfc565b612cd7565b9050828152602081018484840111156121745761217361315e565b5b61217f848285612ee7565b509392505050565b60008135905061219681613282565b92915050565b6000813590506121ab81613299565b92915050565b6000813590506121c0816132b0565b92915050565b600082601f8301126121db576121da613159565b5b81356121eb848260208601612145565b91505092915050565b600081359050612203816132c0565b92915050565b60006020828403121561221f5761221e613168565b5b600061222d84828501612187565b91505092915050565b600080600080608085870312156122505761224f613168565b5b600061225e87828801612187565b945050602085013567ffffffffffffffff81111561227f5761227e613163565b5b61228b878288016121c6565b935050604085013567ffffffffffffffff8111156122ac576122ab613163565b5b6122b8878288016121c6565b925050606085013567ffffffffffffffff8111156122d9576122d8613163565b5b6122e5878288016121c6565b91505092959194509250565b60006020828403121561230757612306613168565b5b600082013567ffffffffffffffff81111561232557612324613163565b5b612331848285016121c6565b91505092915050565b6000806000806080858703121561235457612353613168565b5b600085013567ffffffffffffffff81111561237257612371613163565b5b61237e878288016121c6565b945050602085013567ffffffffffffffff81111561239f5761239e613163565b5b6123ab878288016121c6565b935050604085013567ffffffffffffffff8111156123cc576123cb613163565b5b6123d8878288016121c6565b92505060606123e9878288016121f4565b91505092959194509250565b60008060008060008060c0878903121561241257612411613168565b5b600087013567ffffffffffffffff8111156124305761242f613163565b5b61243c89828a016121c6565b965050602087013567ffffffffffffffff81111561245d5761245c613163565b5b61246989828a016121c6565b955050604087013567ffffffffffffffff81111561248a57612489613163565b5b61249689828a016121c6565b94505060606124a789828a016121f4565b93505060806124b889828a016121f4565b92505060a06124c989828a0161219c565b9150509295509295509295565b6000806000806000806000806000806101408b8d0312156124fa576124f9613168565b5b60008b013567ffffffffffffffff81111561251857612517613163565b5b6125248d828e016121c6565b9a505060208b013567ffffffffffffffff81111561254557612544613163565b5b6125518d828e016121c6565b99505060406125628d828e016121f4565b98505060608b013567ffffffffffffffff81111561258357612582613163565b5b61258f8d828e016121c6565b97505060808b013567ffffffffffffffff8111156125b0576125af613163565b5b6125bc8d828e016121c6565b96505060a08b013567ffffffffffffffff8111156125dd576125dc613163565b5b6125e98d828e016121c6565b95505060c08b013567ffffffffffffffff81111561260a57612609613163565b5b6126168d828e016121c6565b94505060e08b013567ffffffffffffffff81111561263757612636613163565b5b6126438d828e016121c6565b9350506101008b013567ffffffffffffffff81111561266557612664613163565b5b6126718d828e016121c6565b9250506101206126838d828e0161219c565b9150509295989b9194979a5092959850565b6000602082840312156126ab576126aa613168565b5b60006126b9848285016121f4565b91505092915050565b600080604083850312156126d9576126d8613168565b5b60006126e7858286016121f4565b92505060206126f885828601612187565b9150509250929050565b6000806040838503121561271957612718613168565b5b6000612727858286016121f4565b9250506020612738858286016121b1565b9150509250929050565b60008060008060008060c0878903121561275f5761275e613168565b5b600061276d89828a016121f4565b965050602087013567ffffffffffffffff81111561278e5761278d613163565b5b61279a89828a016121c6565b95505060406127ab89828a016121f4565b945050606087013567ffffffffffffffff8111156127cc576127cb613163565b5b6127d889828a016121c6565b93505060806127e989828a016121f4565b92505060a087013567ffffffffffffffff81111561280a57612809613163565b5b61281689828a016121c6565b9150509295509295509295565b600061282f8383612a3b565b60208301905092915050565b61284481612e68565b82525050565b600061285582612d52565b61285f8185612d75565b935061286a83612d2d565b8060005b8381101561289b5781516128828882612823565b975061288d83612d68565b92505060018101905061286e565b5085935050505092915050565b6128b181612e8c565b82525050565b600081546128c481612f29565b6128ce8186612d86565b945060018216600081146128e957600181146128fa5761292d565b60ff1983168652818601935061292d565b61290385612d3d565b60005b8381101561292557815481890152600182019150602081019050612906565b838801955050505b50505092915050565b61293f81612ed5565b82525050565b600061295082612d5d565b61295a8185612d91565b935061296a818560208601612ef6565b6129738161316d565b840191505092915050565b600061298982612d5d565b6129938185612da2565b93506129a3818560208601612ef6565b80840191505092915050565b60006129bc601c83612d91565b91506129c78261317e565b602082019050919050565b60006129df602183612d91565b91506129ea826131a7565b604082019050919050565b6000612a02601c83612d91565b9150612a0d826131f6565b602082019050919050565b6000612a25603283612d91565b9150612a308261321f565b604082019050919050565b612a4481612ecb565b82525050565b612a5381612ecb565b82525050565b612a6a612a6582612ecb565b612fd5565b82525050565b6000612a7c82846128b7565b915081905092915050565b6000612a93828461297e565b915081905092915050565b6000612aaa828761297e565b9150612ab6828661297e565b9150612ac2828561297e565b9150612ace8284612a59565b60208201915081905095945050505050565b6000602082019050612af5600083018461283b565b92915050565b600060a082019050612b10600083018861283b565b612b1d6020830187612a4a565b612b2a60408301866128a8565b612b37606083018561283b565b612b446080830184612936565b9695505050505050565b60006020820190508181036000830152612b68818461284a565b905092915050565b6000602082019050612b8560008301846128a8565b92915050565b6000610140820190508181036000830152612ba6818d612945565b90508181036020830152612bba818c612945565b90508181036040830152612bce818b612945565b9050612bdd606083018a612a4a565b612bea6080830189612a4a565b612bf760a083018861283b565b612c0460c0830187612a4a565b612c1160e08301866128a8565b612c1f61010083018561283b565b612c2d610120830184612936565b9b9a5050505050505050505050565b60006020820190508181036000830152612c55816129af565b9050919050565b60006020820190508181036000830152612c75816129d2565b9050919050565b60006020820190508181036000830152612c95816129f5565b9050919050565b60006020820190508181036000830152612cb581612a18565b9050919050565b6000602082019050612cd16000830184612a4a565b92915050565b6000612ce1612cf2565b9050612ced8282612f5b565b919050565b6000604051905090565b600067ffffffffffffffff821115612d1757612d1661312a565b5b612d208261316d565b9050602081019050919050565b6000819050602082019050919050565b60008190508160005260206000209050919050565b600081519050919050565b600081519050919050565b6000602082019050919050565b600082825260208201905092915050565b600081905092915050565b600082825260208201905092915050565b600081905092915050565b6000612db882612ecb565b9150612dc383612ecb565b9250827fffffffffffffffffffffffffffffffffffffffffffffffffffffffffffffffff03821115612df857612df7613010565b5b828201905092915050565b6000612e0e82612ecb565b9150612e1983612ecb565b925082612e2957612e2861303f565b5b828204905092915050565b6000612e3f82612ecb565b9150612e4a83612ecb565b925082821015612e5d57612e5c613010565b5b828203905092915050565b6000612e7382612eab565b9050919050565b6000612e8582612eab565b9050919050565b60008115159050919050565b6000819050612ea68261326e565b919050565b600073ffffffffffffffffffffffffffffffffffffffff82169050919050565b6000819050919050565b6000612ee082612e98565b9050919050565b82818337600083830152505050565b60005b83811015612f14578082015181840152602081019050612ef9565b83811115612f23576000848401525b50505050565b60006002820490506001821680612f4157607f821691505b60208210811415612f5557612f5461309d565b5b50919050565b612f648261316d565b810181811067ffffffffffffffff82111715612f8357612f8261312a565b5b80604052505050565b6000612f9782612ecb565b91507fffffffffffffffffffffffffffffffffffffffffffffffffffffffffffffffff821415612fca57612fc9613010565b5b600182019050919050565b6000819050919050565b6000612fea82612ecb565b9150612ff583612ecb565b9250826130055761300461303f565b5b828206905092915050565b7f4e487b7100000000000000000000000000000000000000000000000000000000600052601160045260246000fd5b7f4e487b7100000000000000000000000000000000000000000000000000000000600052601260045260246000fd5b7f4e487b7100000000000000000000000000000000000000000000000000000000600052602160045260246000fd5b7f4e487b7100000000000000000000000000000000000000000000000000000000600052602260045260246000fd5b7f4e487b7100000000000000000000000000000000000000000000000000000000600052603160045260246000fd5b7f4e487b7100000000000000000000000000000000000000000000000000000000600052603260045260246000fd5b7f4e487b7100000000000000000000000000000000000000000000000000000000600052604160045260246000fd5b600080fd5b600080fd5b600080fd5b600080fd5b6000601f19601f8301169050919050565b7f4e6f206c616e6420776974682074686973204944206578697374732e00000000600082015250565b7f4c616e642077697468207468697320494420616c72656164792065786973747360008201527f2e00000000000000000000000000000000000000000000000000000000000000602082015250565b7f54686973206163636f756e7420616c7265616479206578697374732e00000000600082015250565b7f4f6e6c792061646d696e732061726520616c6c6f77656420746f20706572666f60008201527f726d2074686973206f7065726174696f6e2e0000000000000000000000000000602082015250565b6004811061327f5761327e61306e565b5b50565b61328b81612e68565b811461329657600080fd5b50565b6132a281612e7a565b81146132ad57600080fd5b50565b600481106132bd57600080fd5b50565b6132c981612ecb565b81146132d457600080fd5b5056fea2646970667358221220f04766e8700024fb3dbc4b8b0c0a23d5bc3b336f9b5d41a7acfb46f5185c33dd64736f6c63430008060033",
  "immutableReferences": {},
  "source": "// SPDX-License-Identifier: MIT\r\n\r\npragma solidity >=0.5.1 <= 0.8.6;\r\n\r\ncontract LandReg{\r\n    address superAdmin;\r\n\r\n    struct landDetails{\r\n        string state;\r\n        string district;\r\n        string cadzone;\r\n        uint256 plotNumber;\r\n        uint256 plotSize;  // * 4 decimal places\r\n        address payable currentOwner;\r\n        // Land Documents\r\n        string cofo;\r\n        uint cofoDate;\r\n        string rofoHash;\r\n        uint rofoDate;\r\n        // Buy and sell\r\n        uint marketValue;\r\n        bool isAvailable;\r\n        address requester;\r\n        reqStatus requestStatus; \r\n        uint id;\r\n    }\r\n\r\n    struct ownerDetails {\r\n        string name;\r\n        string gender;\r\n        uint dob;\r\n        string ownerAddress;\r\n        string phone1;\r\n        string phone2;\r\n        string NIN;\r\n        string email;\r\n        address payable wAddress;\r\n    }\r\n\r\n    struct adminDetails {\r\n        string name;\r\n        string state;\r\n        string district;\r\n    }\r\n    struct adminState {\r\n        address adminAddress;\r\n    }\r\n\r\n    //request status\r\n    enum reqStatus { Default, pending, reject, approved }\r\n\r\n    //profile of a client\r\n    struct profiles{\r\n        uint[] assetList;   \r\n    }\r\n\r\n    struct landState {\r\n        uint[] ids;\r\n    }\r\n\r\n    mapping(uint => landDetails) lands;\r\n    mapping(string => landState) landStates; // Push land ids inside their respestive states\r\n    address owner;\r\n    mapping( address => adminDetails) admins;\r\n    mapping(string => adminState) adminStates;\r\n    mapping( address => profiles) profile;\r\n\r\n    mapping( address => ownerDetails ) owners;\r\n    \r\n    //contract owner\r\n    constructor() {\r\n        owner = msg.sender;\r\n        superAdmin = owner;\r\n    }\r\n\r\n    modifier onlyOwner {\r\n        require(msg.sender == owner);\r\n        _;\r\n    }\r\n    \r\n    //adding region admins\r\n    function addAdmin( address admin, string memory name, string memory state, string memory district ) onlyOwner public {\r\n        admins[admin].name = name;\r\n        admins[admin].state = state;\r\n        admins[admin].district = district;\r\n\r\n        adminStates[state].adminAddress = admin;\r\n    }\r\n\r\n    function getAdmin(string memory state) public view returns(address){\r\n        return adminStates[state].adminAddress;\r\n    }\r\n\r\n    //Registration of land details.\r\n    function registerLand(\r\n        string memory state,\r\n        string memory district,\r\n        string memory cadzone,\r\n        uint plotNumber,\r\n        uint plotSize,\r\n        address payable wAddress\r\n        ) public returns(bool) {\r\n        require(adminStates[state].adminAddress == msg.sender || owner == msg.sender, \"Only admins are allowed to perform this operation.\");\r\n        uint id = computeId(state,district,cadzone,plotNumber);\r\n        require(lands[id].plotSize == 0 && lands[id].plotNumber == 0, \"Land with this ID already exists.\");\r\n        lands[id].state = state;\r\n        lands[id].district = district;\r\n        lands[id].cadzone = cadzone;\r\n        \r\n        lands[id].plotNumber = plotNumber;\r\n        lands[id].plotSize = plotSize;\r\n        lands[id].currentOwner = wAddress;\r\n\r\n        lands[id].id = id;\r\n        landStates[state].ids.push(id);\r\n\r\n        profile[wAddress].assetList.push(id);\r\n        return true;\r\n    }\r\n\r\n    function editLandDOcuments(\r\n        uint id,\r\n        string memory cofo,\r\n        uint cofoDate,\r\n        string memory rofoHash,\r\n        uint  rofoDate,\r\n        string memory stateOfAdmin\r\n    ) public returns (bool) {\r\n        require(adminStates[stateOfAdmin].adminAddress == msg.sender || owner == msg.sender, \"Only admins are allowed to perform this operation.\");\r\n        require(lands[id].plotSize != 0 && lands[id].plotNumber != 0, \"No land with this ID exists.\");\r\n\r\n        lands[id].cofo = cofo;\r\n        lands[id].cofoDate = cofoDate;\r\n        lands[id].rofoHash = rofoHash;\r\n        lands[id].rofoDate = rofoDate;\r\n\r\n        return true;\r\n    }\r\n\r\n    function registerOwner(\r\n        string memory name,\r\n        string memory gender,\r\n        uint dob,\r\n        string memory ownerAddress,\r\n        string memory phone1,\r\n        string memory phone2,\r\n        string memory NIN,\r\n        string memory email,\r\n        string memory stateOfAdmin,\r\n        address payable wAddress\r\n    ) onlyOwner public returns (bool){\r\n        require(adminStates[stateOfAdmin].adminAddress == msg.sender || owner == msg.sender, \"Only admins are allowed to perform this operation.\");\r\n        bytes32 emptyHash = keccak256(\"\");\r\n        require( keccak256(bytes(owners[wAddress].NIN)) == emptyHash || keccak256(bytes(owners[wAddress].email)) == emptyHash, \"This account already exists.\");\r\n\r\n        owners[wAddress].name = name;\r\n        owners[wAddress].gender = gender;\r\n        owners[wAddress].dob = dob;\r\n        owners[wAddress].ownerAddress = ownerAddress;\r\n        owners[wAddress].phone1 = phone1;\r\n        owners[wAddress].phone2 = phone2;\r\n        owners[wAddress].NIN = NIN;\r\n        owners[wAddress].email = email;\r\n        owners[wAddress].wAddress = wAddress;\r\n\r\n        return true;\r\n    }\r\n\r\n    //to view details of land for the owner\r\n    function landInfoFull(uint id) public view returns(string memory,string memory,string memory,uint,uint,address,uint, bool,address,reqStatus){\r\n        landDetails memory lands_local = lands[id];\r\n        return(\r\n            lands_local.state,\r\n            lands_local.district,\r\n            lands_local.cadzone,\r\n            lands_local.plotNumber,\r\n            lands_local.plotSize,\r\n            lands_local.currentOwner,\r\n            lands_local.marketValue,\r\n            lands_local.isAvailable,\r\n            lands_local.requester,\r\n            lands_local.requestStatus\r\n            );\r\n    }\r\n    \r\n    //to view details of land for the buyer\r\n    function landInfoBuyer(uint id) public view returns(address,uint,bool,address,reqStatus){\r\n        return(lands[id].currentOwner, lands[id].marketValue, lands[id].isAvailable, lands[id].requester, lands[id].requestStatus);\r\n    }\r\n\r\n    // to compute id for a land.\r\n    function computeId(string memory state, string memory district, string memory cadzone, uint plotNumber) public pure returns(uint){\r\n        return uint(keccak256(abi.encodePacked(state, district, cadzone, plotNumber)))%10000000000000;\r\n    }\r\n\r\n    // view the assets of the owner represented by this address\r\n    function viewAssets(address wAddress)public view returns(uint[] memory){\r\n        return (profile[wAddress].assetList);\r\n    }\r\n\r\n    //push a request to the land owner\r\n    function requstToLandOwner(uint id) public {\r\n        require(lands[id].isAvailable);\r\n        lands[id].requester = msg.sender;\r\n        lands[id].isAvailable = false;\r\n        lands[id].requestStatus = reqStatus.pending; //changes the status to pending.\r\n    }\r\n\r\n    //viewing request for the lands\r\n    function viewRequest(uint property)public view returns(address){\r\n        return(lands[property].requester);\r\n    }\r\n    //processing request for the land by accepting or rejecting\r\n    function processRequest(uint property,reqStatus status) public {\r\n        require(lands[property].currentOwner == msg.sender);\r\n        lands[property].requestStatus = status;\r\n        if(status == reqStatus.reject){\r\n            lands[property].requester = address(0);\r\n            lands[property].requestStatus = reqStatus.Default;\r\n        }\r\n    }\r\n    //availing lands for sale.\r\n    function makeAvailable(uint property)public{\r\n        require(lands[property].currentOwner == msg.sender);\r\n        lands[property].isAvailable=true;\r\n    } \r\n\r\n    //buying the approved property\r\n    function buyProperty(uint property)public payable{\r\n        require(lands[property].requestStatus == reqStatus.approved);\r\n        require(msg.value >= (lands[property].marketValue+((lands[property].marketValue)/10)));\r\n        lands[property].currentOwner.transfer(lands[property].marketValue);\r\n        removeOwnership(lands[property].currentOwner,property);\r\n        lands[property].currentOwner=payable(msg.sender);\r\n        lands[property].isAvailable=false;\r\n        lands[property].requester = address(0);\r\n        lands[property].requestStatus = reqStatus.Default;\r\n        profile[msg.sender].assetList.push(property); //adds the property to the asset list of the new owner.\r\n        \r\n    }\r\n    //removing the ownership of seller for the lands. and it is called by the buyProperty function\r\n    function removeOwnership(address previousOwner,uint id)private{\r\n        uint index = findId(id,previousOwner);\r\n        profile[previousOwner].assetList[index]=profile[previousOwner].assetList[profile[previousOwner].assetList.length-1];\r\n        profile[previousOwner].assetList.pop();\r\n    }\r\n    //for finding the index of a perticular id\r\n    function findId(uint id,address user)public view returns(uint){\r\n        uint i;\r\n        for(i=0;i<profile[user].assetList.length;i++){\r\n            if(profile[user].assetList[i] == id)\r\n                return i;\r\n        }\r\n        return i;\r\n    }\r\n}",
  "sourcePath": "C:/Mine/Sources/eth/SanniMSc/begin-real/contracts/LandReg.sol",
  "compiler": {
    "name": "solc",
    "version": "0.8.6+commit.11564f7e.Emscripten.clang"
  },
  "schemaVersion": "3.4.1",
  "updatedAt": "2021-07-19T22:11:40.017Z",
  "networkType": "ethereum",
  "devdoc": {
    "kind": "dev",
    "methods": {},
    "version": 1
  },
  "userdoc": {
    "kind": "user",
    "methods": {},
    "version": 1
  }
}