{
  "contractName": "LandReg",
  "abi": [
    {
      "inputs": [],
      "stateMutability": "nonpayable",
      "type": "constructor"
    },
    {
      "inputs": [
        {
          "internalType": "address",
          "name": "admin",
          "type": "address"
        },
        {
          "internalType": "string",
          "name": "name",
          "type": "string"
        },
        {
          "internalType": "string",
          "name": "state",
          "type": "string"
        },
        {
          "internalType": "string",
          "name": "district",
          "type": "string"
        }
      ],
      "name": "addAdmin",
      "outputs": [],
      "stateMutability": "nonpayable",
      "type": "function"
    },
    {
      "inputs": [
        {
          "internalType": "string",
          "name": "state",
          "type": "string"
        }
      ],
      "name": "getAdmin",
      "outputs": [
        {
          "internalType": "address",
          "name": "",
          "type": "address"
        }
      ],
      "stateMutability": "view",
      "type": "function",
      "constant": true
    },
    {
      "inputs": [
        {
          "internalType": "string",
          "name": "state",
          "type": "string"
        },
        {
          "internalType": "string",
          "name": "district",
          "type": "string"
        },
        {
          "internalType": "string",
          "name": "cadzone",
          "type": "string"
        },
        {
          "internalType": "uint256",
          "name": "plotNumber",
          "type": "uint256"
        },
        {
          "internalType": "uint256",
          "name": "plotSize",
          "type": "uint256"
        },
        {
          "internalType": "address payable",
          "name": "wAddress",
          "type": "address"
        }
      ],
      "name": "registerLand",
      "outputs": [
        {
          "internalType": "bool",
          "name": "",
          "type": "bool"
        }
      ],
      "stateMutability": "nonpayable",
      "type": "function"
    },
    {
      "inputs": [
        {
          "internalType": "string",
          "name": "id",
          "type": "string"
        },
        {
          "internalType": "string",
          "name": "cofo",
          "type": "string"
        },
        {
          "internalType": "uint256",
          "name": "cofoDate",
          "type": "uint256"
        },
        {
          "internalType": "string",
          "name": "rofoHash",
          "type": "string"
        },
        {
          "internalType": "uint256",
          "name": "rofoDate",
          "type": "uint256"
        },
        {
          "internalType": "string",
          "name": "stateOfAdmin",
          "type": "string"
        }
      ],
      "name": "editLandDocuments",
      "outputs": [
        {
          "internalType": "bool",
          "name": "",
          "type": "bool"
        }
      ],
      "stateMutability": "nonpayable",
      "type": "function"
    },
    {
      "inputs": [
        {
          "internalType": "string",
          "name": "name",
          "type": "string"
        },
        {
          "internalType": "string",
          "name": "gender",
          "type": "string"
        },
        {
          "internalType": "uint256",
          "name": "dob",
          "type": "uint256"
        },
        {
          "internalType": "string",
          "name": "ownerAddress",
          "type": "string"
        },
        {
          "internalType": "string",
          "name": "phone1",
          "type": "string"
        },
        {
          "internalType": "string",
          "name": "phone2",
          "type": "string"
        },
        {
          "internalType": "string",
          "name": "NIN",
          "type": "string"
        },
        {
          "internalType": "string",
          "name": "email",
          "type": "string"
        },
        {
          "internalType": "string",
          "name": "stateOfAdmin",
          "type": "string"
        },
        {
          "internalType": "address payable",
          "name": "wAddress",
          "type": "address"
        }
      ],
      "name": "registerOwner",
      "outputs": [
        {
          "internalType": "bool",
          "name": "",
          "type": "bool"
        }
      ],
      "stateMutability": "nonpayable",
      "type": "function"
    },
    {
      "inputs": [
        {
          "internalType": "string",
          "name": "id",
          "type": "string"
        }
      ],
      "name": "landInfoFull",
      "outputs": [
        {
          "internalType": "string",
          "name": "state",
          "type": "string"
        },
        {
          "internalType": "string",
          "name": "district",
          "type": "string"
        },
        {
          "internalType": "string",
          "name": "cadzone",
          "type": "string"
        },
        {
          "internalType": "uint256",
          "name": "plotNumber",
          "type": "uint256"
        },
        {
          "internalType": "uint256",
          "name": "plotSize",
          "type": "uint256"
        },
        {
          "internalType": "address",
          "name": "currentOwner",
          "type": "address"
        },
        {
          "internalType": "uint256",
          "name": "marketValue",
          "type": "uint256"
        },
        {
          "internalType": "bool",
          "name": "isAvailable",
          "type": "bool"
        },
        {
          "internalType": "address",
          "name": "requester",
          "type": "address"
        },
        {
          "internalType": "enum LandReg.reqStatus",
          "name": "requestStatus",
          "type": "uint8"
        },
        {
          "internalType": "bool",
          "name": "isCertified",
          "type": "bool"
        }
      ],
      "stateMutability": "view",
      "type": "function",
      "constant": true
    },
    {
      "inputs": [
        {
          "internalType": "address",
          "name": "wAddress",
          "type": "address"
        }
      ],
      "name": "ownerInfo",
      "outputs": [
        {
          "internalType": "string",
          "name": "name",
          "type": "string"
        },
        {
          "internalType": "string",
          "name": "gender",
          "type": "string"
        },
        {
          "internalType": "uint256",
          "name": "dob",
          "type": "uint256"
        },
        {
          "internalType": "string",
          "name": "ownerAddress",
          "type": "string"
        },
        {
          "internalType": "string",
          "name": "phone1",
          "type": "string"
        },
        {
          "internalType": "string",
          "name": "phone2",
          "type": "string"
        },
        {
          "internalType": "string",
          "name": "NIN",
          "type": "string"
        },
        {
          "internalType": "string",
          "name": "email",
          "type": "string"
        }
      ],
      "stateMutability": "view",
      "type": "function",
      "constant": true
    },
    {
      "inputs": [
        {
          "internalType": "string",
          "name": "state",
          "type": "string"
        }
      ],
      "name": "landInfoStates",
      "outputs": [
        {
          "internalType": "string[]",
          "name": "state_ids",
          "type": "string[]"
        }
      ],
      "stateMutability": "view",
      "type": "function",
      "constant": true
    },
    {
      "inputs": [
        {
          "internalType": "string",
          "name": "id",
          "type": "string"
        }
      ],
      "name": "landInfoBuyer",
      "outputs": [
        {
          "internalType": "address",
          "name": "",
          "type": "address"
        },
        {
          "internalType": "uint256",
          "name": "",
          "type": "uint256"
        },
        {
          "internalType": "bool",
          "name": "",
          "type": "bool"
        },
        {
          "internalType": "address",
          "name": "",
          "type": "address"
        },
        {
          "internalType": "enum LandReg.reqStatus",
          "name": "",
          "type": "uint8"
        }
      ],
      "stateMutability": "view",
      "type": "function",
      "constant": true
    },
    {
      "inputs": [
        {
          "internalType": "string",
          "name": "state",
          "type": "string"
        },
        {
          "internalType": "string",
          "name": "district",
          "type": "string"
        },
        {
          "internalType": "string",
          "name": "cadzone",
          "type": "string"
        },
        {
          "internalType": "uint256",
          "name": "plotNumber",
          "type": "uint256"
        }
      ],
      "name": "computeId",
      "outputs": [
        {
          "internalType": "uint256",
          "name": "",
          "type": "uint256"
        }
      ],
      "stateMutability": "pure",
      "type": "function",
      "constant": true
    },
    {
      "inputs": [
        {
          "internalType": "address",
          "name": "wAddress",
          "type": "address"
        }
      ],
      "name": "viewAssets",
      "outputs": [
        {
          "internalType": "string[]",
          "name": "",
          "type": "string[]"
        }
      ],
      "stateMutability": "view",
      "type": "function",
      "constant": true
    },
    {
      "inputs": [
        {
          "internalType": "string",
          "name": "id",
          "type": "string"
        }
      ],
      "name": "requstToLandOwner",
      "outputs": [],
      "stateMutability": "nonpayable",
      "type": "function"
    },
    {
      "inputs": [
        {
          "internalType": "string",
          "name": "property",
          "type": "string"
        }
      ],
      "name": "viewRequest",
      "outputs": [
        {
          "internalType": "address",
          "name": "",
          "type": "address"
        }
      ],
      "stateMutability": "view",
      "type": "function",
      "constant": true
    },
    {
      "inputs": [
        {
          "internalType": "string",
          "name": "property",
          "type": "string"
        },
        {
          "internalType": "enum LandReg.reqStatus",
          "name": "status",
          "type": "uint8"
        }
      ],
      "name": "processRequest",
      "outputs": [],
      "stateMutability": "nonpayable",
      "type": "function"
    },
    {
      "inputs": [
        {
          "internalType": "string",
          "name": "property",
          "type": "string"
        }
      ],
      "name": "makeAvailable",
      "outputs": [],
      "stateMutability": "nonpayable",
      "type": "function"
    },
    {
      "inputs": [
        {
          "internalType": "string",
          "name": "property",
          "type": "string"
        }
      ],
      "name": "buyProperty",
      "outputs": [],
      "stateMutability": "payable",
      "type": "function",
      "payable": true
    },
    {
      "inputs": [
        {
          "internalType": "string",
          "name": "id",
          "type": "string"
        },
        {
          "internalType": "address",
          "name": "user",
          "type": "address"
        }
      ],
      "name": "findId",
      "outputs": [
        {
          "internalType": "uint256",
          "name": "",
          "type": "uint256"
        }
      ],
      "stateMutability": "view",
      "type": "function",
      "constant": true
    },
    {
      "inputs": [
        {
          "internalType": "string",
          "name": "a",
          "type": "string"
        },
        {
          "internalType": "string",
          "name": "b",
          "type": "string"
        }
      ],
      "name": "compareStrings",
      "outputs": [
        {
          "internalType": "bool",
          "name": "",
          "type": "bool"
        }
      ],
      "stateMutability": "pure",
      "type": "function",
      "constant": true
    }
  ],
  "bytecode": "0x608060405234801561001057600080fd5b5033600360006101000a81548173ffffffffffffffffffffffffffffffffffffffff021916908373ffffffffffffffffffffffffffffffffffffffff160217905550600360009054906101000a900473ffffffffffffffffffffffffffffffffffffffff166000806101000a81548173ffffffffffffffffffffffffffffffffffffffff021916908373ffffffffffffffffffffffffffffffffffffffff160217905550614579806100c36000396000f3fe6080604052600436106101095760003560e01c8063886734f711610095578063d05f180d11610064578063d05f180d146103e2578063d1d184b61461041f578063e6d218d914610466578063ecbef164146104a3578063f3dd4454146104bf57610109565b8063886734f7146102fb57806399b79dff14610338578063b83e160514610361578063bed34bba146103a557610109565b80633f4b8f51116100dc5780633f4b8f51146101da57806340c785d21461021b5780634ef3eb3c146102585780635e20bd4e14610281578063623f27c9146102be57610109565b806303825d6c1461010e578063086c435f146101375780631d50a6c414610160578063260d62c31461019d575b600080fd5b34801561011a57600080fd5b50610135600480360381019061013091906131ed565b6104fc565b005b34801561014357600080fd5b5061015e6004803603810190610159919061334d565b6106c1565b005b34801561016c57600080fd5b5061018760048036038101906101829190613421565b610860565b6040516101949190613e50565b60405180910390f35b3480156101a957600080fd5b506101c460048036038101906101bf91906131c0565b6108ad565b6040516101d19190613c04565b60405180910390f35b3480156101e657600080fd5b5061020160048036038101906101fc91906132a8565b6109c8565b604051610212959493929190613bb1565b60405180910390f35b34801561022757600080fd5b50610242600480360381019061023d91906132f1565b610ae7565b60405161024f9190613e50565b60405180910390f35b34801561026457600080fd5b5061027f600480360381019061027a91906132a8565b610c58565b005b34801561028d57600080fd5b506102a860048036038101906102a391906135bd565b610d76565b6040516102b59190613c26565b60405180910390f35b3480156102ca57600080fd5b506102e560048036038101906102e091906132a8565b611332565b6040516102f29190613b96565b60405180910390f35b34801561030757600080fd5b50610322600480360381019061031d91906134dc565b61137d565b60405161032f9190613c26565b60405180910390f35b34801561034457600080fd5b5061035f600480360381019061035a91906132a8565b61179f565b005b34801561036d57600080fd5b50610388600480360381019061038391906131c0565b611854565b60405161039c989796959493929190613d01565b60405180910390f35b3480156103b157600080fd5b506103cc60048036038101906103c791906133a9565b611e74565b6040516103d99190613c26565b60405180910390f35b3480156103ee57600080fd5b506104096004803603810190610404919061377c565b611ecd565b6040516104169190613c26565b60405180910390f35b34801561042b57600080fd5b50610446600480360381019061044191906132a8565b6121e6565b60405161045d9b9a99989796959493929190613c41565b60405180910390f35b34801561047257600080fd5b5061048d600480360381019061048891906132a8565b61279a565b60405161049a9190613b96565b60405180910390f35b6104bd60048036038101906104b891906132a8565b6127e5565b005b3480156104cb57600080fd5b506104e660048036038101906104e191906132a8565b612b61565b6040516104f39190613c04565b60405180910390f35b600360009054906101000a900473ffffffffffffffffffffffffffffffffffffffff1673ffffffffffffffffffffffffffffffffffffffff163373ffffffffffffffffffffffffffffffffffffffff161461055657600080fd5b82600460008673ffffffffffffffffffffffffffffffffffffffff1673ffffffffffffffffffffffffffffffffffffffff16815260200190815260200160002060000190805190602001906105ac929190612f8c565b5081600460008673ffffffffffffffffffffffffffffffffffffffff1673ffffffffffffffffffffffffffffffffffffffff1681526020019081526020016000206001019080519060200190610603929190612f8c565b5080600460008673ffffffffffffffffffffffffffffffffffffffff1673ffffffffffffffffffffffffffffffffffffffff168152602001908152602001600020600201908051906020019061065a929190612f8c565b508360058360405161066c9190613b3d565b908152602001604051809103902060000160006101000a81548173ffffffffffffffffffffffffffffffffffffffff021916908373ffffffffffffffffffffffffffffffffffffffff16021790555050505050565b3373ffffffffffffffffffffffffffffffffffffffff166001836040516106e89190613b3d565b908152602001604051809103902060050160009054906101000a900473ffffffffffffffffffffffffffffffffffffffff1673ffffffffffffffffffffffffffffffffffffffff161461073a57600080fd5b8060018360405161074b9190613b3d565b9081526020016040518091039020600b0160156101000a81548160ff0219169083600381111561077e5761077d6142b1565b5b021790555060026003811115610797576107966142b1565b5b8160038111156107aa576107a96142b1565b5b141561085c5760006001836040516107c29190613b3d565b9081526020016040518091039020600b0160016101000a81548173ffffffffffffffffffffffffffffffffffffffff021916908373ffffffffffffffffffffffffffffffffffffffff16021790555060006001836040516108239190613b3d565b9081526020016040518091039020600b0160156101000a81548160ff02191690836003811115610856576108556142b1565b5b02179055505b5050565b60006509184e72a000858585856040516020016108809493929190613b54565b6040516020818303038152906040528051906020012060001c6108a39190614222565b9050949350505050565b6060600660008373ffffffffffffffffffffffffffffffffffffffff1673ffffffffffffffffffffffffffffffffffffffff168152602001908152602001600020600001805480602002602001604051908101604052809291908181526020016000905b828210156109bd5783829060005260206000200180546109309061416c565b80601f016020809104026020016040519081016040528092919081815260200182805461095c9061416c565b80156109a95780601f1061097e576101008083540402835291602001916109a9565b820191906000526020600020905b81548152906001019060200180831161098c57829003601f168201915b505050505081526020019060010190610911565b505050509050919050565b60008060008060006001866040516109e09190613b3d565b908152602001604051809103902060050160009054906101000a900473ffffffffffffffffffffffffffffffffffffffff16600187604051610a229190613b3d565b9081526020016040518091039020600a0154600188604051610a449190613b3d565b9081526020016040518091039020600b0160009054906101000a900460ff16600189604051610a739190613b3d565b9081526020016040518091039020600b0160019054906101000a900473ffffffffffffffffffffffffffffffffffffffff1660018a604051610ab59190613b3d565b9081526020016040518091039020600b0160159054906101000a900460ff169450945094509450945091939590929450565b600080600090505b600660008473ffffffffffffffffffffffffffffffffffffffff1673ffffffffffffffffffffffffffffffffffffffff16815260200190815260200160002060000180549050811015610c4d57610c2c600660008573ffffffffffffffffffffffffffffffffffffffff1673ffffffffffffffffffffffffffffffffffffffff1681526020019081526020016000206000018281548110610b9357610b9261433e565b5b906000526020600020018054610ba89061416c565b80601f0160208091040260200160405190810160405280929190818152602001828054610bd49061416c565b8015610c215780601f10610bf657610100808354040283529160200191610c21565b820191906000526020600020905b815481529060010190602001808311610c0457829003601f168201915b505050505085611e74565b15610c3a5780915050610c52565b8080610c45906141cf565b915050610aef565b809150505b92915050565b600181604051610c689190613b3d565b9081526020016040518091039020600b0160009054906101000a900460ff16610c9057600080fd5b33600182604051610ca19190613b3d565b9081526020016040518091039020600b0160016101000a81548173ffffffffffffffffffffffffffffffffffffffff021916908373ffffffffffffffffffffffffffffffffffffffff1602179055506000600182604051610d029190613b3d565b9081526020016040518091039020600b0160006101000a81548160ff02191690831515021790555060018082604051610d3b9190613b3d565b9081526020016040518091039020600b0160156101000a81548160ff02191690836003811115610d6e57610d6d6142b1565b5b021790555050565b6000600360009054906101000a900473ffffffffffffffffffffffffffffffffffffffff1673ffffffffffffffffffffffffffffffffffffffff163373ffffffffffffffffffffffffffffffffffffffff1614610dd257600080fd5b3373ffffffffffffffffffffffffffffffffffffffff16600584604051610df99190613b3d565b908152602001604051809103902060000160009054906101000a900473ffffffffffffffffffffffffffffffffffffffff1673ffffffffffffffffffffffffffffffffffffffff161480610e9a57503373ffffffffffffffffffffffffffffffffffffffff16600360009054906101000a900473ffffffffffffffffffffffffffffffffffffffff1673ffffffffffffffffffffffffffffffffffffffff16145b610ed9576040517f08c379a0000000000000000000000000000000000000000000000000000000008152600401610ed090613e30565b60405180910390fd5b60007fc5d2460186f7233c927e7db2dcc703c0e500b653ca82273b7bfad8045d85a470905080600760008573ffffffffffffffffffffffffffffffffffffffff1673ffffffffffffffffffffffffffffffffffffffff168152602001908152602001600020600601604051610f4e9190613b26565b60405180910390201480610fb7575080600760008573ffffffffffffffffffffffffffffffffffffffff1673ffffffffffffffffffffffffffffffffffffffff168152602001908152602001600020600701604051610fad9190613b26565b6040518091039020145b610ff6576040517f08c379a0000000000000000000000000000000000000000000000000000000008152600401610fed90613e10565b60405180910390fd5b8b600760008573ffffffffffffffffffffffffffffffffffffffff1673ffffffffffffffffffffffffffffffffffffffff168152602001908152602001600020600001908051906020019061104c929190612f8c565b508a600760008573ffffffffffffffffffffffffffffffffffffffff1673ffffffffffffffffffffffffffffffffffffffff16815260200190815260200160002060010190805190602001906110a3929190612f8c565b5089600760008573ffffffffffffffffffffffffffffffffffffffff1673ffffffffffffffffffffffffffffffffffffffff1681526020019081526020016000206002018190555088600760008573ffffffffffffffffffffffffffffffffffffffff1673ffffffffffffffffffffffffffffffffffffffff1681526020019081526020016000206003019080519060200190611141929190612f8c565b5087600760008573ffffffffffffffffffffffffffffffffffffffff1673ffffffffffffffffffffffffffffffffffffffff1681526020019081526020016000206004019080519060200190611198929190612f8c565b5086600760008573ffffffffffffffffffffffffffffffffffffffff1673ffffffffffffffffffffffffffffffffffffffff16815260200190815260200160002060050190805190602001906111ef929190612f8c565b5085600760008573ffffffffffffffffffffffffffffffffffffffff1673ffffffffffffffffffffffffffffffffffffffff1681526020019081526020016000206006019080519060200190611246929190612f8c565b5084600760008573ffffffffffffffffffffffffffffffffffffffff1673ffffffffffffffffffffffffffffffffffffffff168152602001908152602001600020600701908051906020019061129d929190612f8c565b5082600760008573ffffffffffffffffffffffffffffffffffffffff1673ffffffffffffffffffffffffffffffffffffffff16815260200190815260200160002060080160006101000a81548173ffffffffffffffffffffffffffffffffffffffff021916908373ffffffffffffffffffffffffffffffffffffffff16021790555060019150509a9950505050505050505050565b60006001826040516113449190613b3d565b9081526020016040518091039020600b0160019054906101000a900473ffffffffffffffffffffffffffffffffffffffff169050919050565b60003373ffffffffffffffffffffffffffffffffffffffff166005886040516113a69190613b3d565b908152602001604051809103902060000160009054906101000a900473ffffffffffffffffffffffffffffffffffffffff1673ffffffffffffffffffffffffffffffffffffffff16148061144757503373ffffffffffffffffffffffffffffffffffffffff16600360009054906101000a900473ffffffffffffffffffffffffffffffffffffffff1673ffffffffffffffffffffffffffffffffffffffff16145b611486576040517f08c379a000000000000000000000000000000000000000000000000000000000815260040161147d90613e30565b60405180910390fd5b600061149488888888610860565b905060006114a182612c5b565b905060006001826040516114b59190613b3d565b9081526020016040518091039020600401541480156114f5575060006001826040516114e19190613b3d565b908152602001604051809103902060030154145b611534576040517f08c379a000000000000000000000000000000000000000000000000000000000815260040161152b90613df0565b60405180910390fd5b886001826040516115459190613b3d565b90815260200160405180910390206000019080519060200190611569929190612f8c565b508760018260405161157b9190613b3d565b9081526020016040518091039020600101908051906020019061159f929190612f8c565b50866001826040516115b19190613b3d565b908152602001604051809103902060020190805190602001906115d5929190612f8c565b50856001826040516115e79190613b3d565b9081526020016040518091039020600301819055508460018260405161160d9190613b3d565b908152602001604051809103902060040181905550836001826040516116339190613b3d565b908152602001604051809103902060050160006101000a81548173ffffffffffffffffffffffffffffffffffffffff021916908373ffffffffffffffffffffffffffffffffffffffff160217905550806001826040516116939190613b3d565b9081526020016040518091039020600c0190805190602001906116b7929190612f8c565b506002896040516116c89190613b3d565b908152602001604051809103902060000181908060018154018082558091505060019003906000526020600020016000909190919091509080519060200190611712929190612f8c565b50600660008573ffffffffffffffffffffffffffffffffffffffff1673ffffffffffffffffffffffffffffffffffffffff1681526020019081526020016000206000018190806001815401808255809150506001900390600052602060002001600090919091909150908051906020019061178e929190612f8c565b506001925050509695505050505050565b3373ffffffffffffffffffffffffffffffffffffffff166001826040516117c69190613b3d565b908152602001604051809103902060050160009054906101000a900473ffffffffffffffffffffffffffffffffffffffff1673ffffffffffffffffffffffffffffffffffffffff161461181857600080fd5b600180826040516118299190613b3d565b9081526020016040518091039020600b0160006101000a81548160ff02191690831515021790555050565b60608060006060806060806060611944600760008b73ffffffffffffffffffffffffffffffffffffffff1673ffffffffffffffffffffffffffffffffffffffff16815260200190815260200160002060070180546118b19061416c565b80601f01602080910402602001604051908101604052809291908181526020018280546118dd9061416c565b801561192a5780601f106118ff5761010080835404028352916020019161192a565b820191906000526020600020905b81548152906001019060200180831161190d57829003601f168201915b505050505060405180602001604052806000815250611e74565b611983576040517f08c379a000000000000000000000000000000000000000000000000000000000815260040161197a90613db0565b60405180910390fd5b6000600760008b73ffffffffffffffffffffffffffffffffffffffff1673ffffffffffffffffffffffffffffffffffffffff168152602001908152602001600020604051806101200160405290816000820180546119e09061416c565b80601f0160208091040260200160405190810160405280929190818152602001828054611a0c9061416c565b8015611a595780601f10611a2e57610100808354040283529160200191611a59565b820191906000526020600020905b815481529060010190602001808311611a3c57829003601f168201915b50505050508152602001600182018054611a729061416c565b80601f0160208091040260200160405190810160405280929190818152602001828054611a9e9061416c565b8015611aeb5780601f10611ac057610100808354040283529160200191611aeb565b820191906000526020600020905b815481529060010190602001808311611ace57829003601f168201915b5050505050815260200160028201548152602001600382018054611b0e9061416c565b80601f0160208091040260200160405190810160405280929190818152602001828054611b3a9061416c565b8015611b875780601f10611b5c57610100808354040283529160200191611b87565b820191906000526020600020905b815481529060010190602001808311611b6a57829003601f168201915b50505050508152602001600482018054611ba09061416c565b80601f0160208091040260200160405190810160405280929190818152602001828054611bcc9061416c565b8015611c195780601f10611bee57610100808354040283529160200191611c19565b820191906000526020600020905b815481529060010190602001808311611bfc57829003601f168201915b50505050508152602001600582018054611c329061416c565b80601f0160208091040260200160405190810160405280929190818152602001828054611c5e9061416c565b8015611cab5780601f10611c8057610100808354040283529160200191611cab565b820191906000526020600020905b815481529060010190602001808311611c8e57829003601f168201915b50505050508152602001600682018054611cc49061416c565b80601f0160208091040260200160405190810160405280929190818152602001828054611cf09061416c565b8015611d3d5780601f10611d1257610100808354040283529160200191611d3d565b820191906000526020600020905b815481529060010190602001808311611d2057829003601f168201915b50505050508152602001600782018054611d569061416c565b80601f0160208091040260200160405190810160405280929190818152602001828054611d829061416c565b8015611dcf5780601f10611da457610100808354040283529160200191611dcf565b820191906000526020600020905b815481529060010190602001808311611db257829003601f168201915b505050505081526020016008820160009054906101000a900473ffffffffffffffffffffffffffffffffffffffff1673ffffffffffffffffffffffffffffffffffffffff1673ffffffffffffffffffffffffffffffffffffffff1681525050905080600001519850806020015197508060400151965080606001519550806080015194508060a0015193508060c0015192508060e00151915050919395975091939597565b600081604051602001611e879190613b3d565b6040516020818303038152906040528051906020012083604051602001611eae9190613b3d565b6040516020818303038152906040528051906020012014905092915050565b60003373ffffffffffffffffffffffffffffffffffffffff16600583604051611ef69190613b3d565b908152602001604051809103902060000160009054906101000a900473ffffffffffffffffffffffffffffffffffffffff1673ffffffffffffffffffffffffffffffffffffffff161480611f9757503373ffffffffffffffffffffffffffffffffffffffff16600360009054906101000a900473ffffffffffffffffffffffffffffffffffffffff1673ffffffffffffffffffffffffffffffffffffffff16145b611fd6576040517f08c379a0000000000000000000000000000000000000000000000000000000008152600401611fcd90613e30565b60405180910390fd5b6000600188604051611fe89190613b3d565b9081526020016040518091039020600401541415801561202a575060006001886040516120159190613b3d565b90815260200160405180910390206003015414155b612069576040517f08c379a000000000000000000000000000000000000000000000000000000000815260040161206090613dd0565b60405180910390fd5b8560018860405161207a9190613b3d565b9081526020016040518091039020600601908051906020019061209e929190612f8c565b50846001886040516120b09190613b3d565b908152602001604051809103902060070181905550836001886040516120d69190613b3d565b908152602001604051809103902060080190805190602001906120fa929190612f8c565b508260018860405161210c9190613b3d565b90815260200160405180910390206009018190555061213a8660405180602001604052806000815250611e74565b801561215b575061215a8460405180602001604052806000815250611e74565b5b61219d57600180886040516121709190613b3d565b908152602001604051809103902060050160146101000a81548160ff0219169083151502179055506121d8565b60006001886040516121af9190613b3d565b908152602001604051809103902060050160146101000a81548160ff0219169083151502179055505b600190509695505050505050565b6060806060600080600080600080600080600060018d6040516122099190613b3d565b9081526020016040518091039020604051806102000160405290816000820180546122339061416c565b80601f016020809104026020016040519081016040528092919081815260200182805461225f9061416c565b80156122ac5780601f10612281576101008083540402835291602001916122ac565b820191906000526020600020905b81548152906001019060200180831161228f57829003601f168201915b505050505081526020016001820180546122c59061416c565b80601f01602080910402602001604051908101604052809291908181526020018280546122f19061416c565b801561233e5780601f106123135761010080835404028352916020019161233e565b820191906000526020600020905b81548152906001019060200180831161232157829003601f168201915b505050505081526020016002820180546123579061416c565b80601f01602080910402602001604051908101604052809291908181526020018280546123839061416c565b80156123d05780601f106123a5576101008083540402835291602001916123d0565b820191906000526020600020905b8154815290600101906020018083116123b357829003601f168201915b5050505050815260200160038201548152602001600482015481526020016005820160009054906101000a900473ffffffffffffffffffffffffffffffffffffffff1673ffffffffffffffffffffffffffffffffffffffff1673ffffffffffffffffffffffffffffffffffffffff1681526020016005820160149054906101000a900460ff1615151515815260200160068201805461246e9061416c565b80601f016020809104026020016040519081016040528092919081815260200182805461249a9061416c565b80156124e75780601f106124bc576101008083540402835291602001916124e7565b820191906000526020600020905b8154815290600101906020018083116124ca57829003601f168201915b505050505081526020016007820154815260200160088201805461250a9061416c565b80601f01602080910402602001604051908101604052809291908181526020018280546125369061416c565b80156125835780601f1061255857610100808354040283529160200191612583565b820191906000526020600020905b81548152906001019060200180831161256657829003601f168201915b5050505050815260200160098201548152602001600a8201548152602001600b820160009054906101000a900460ff16151515158152602001600b820160019054906101000a900473ffffffffffffffffffffffffffffffffffffffff1673ffffffffffffffffffffffffffffffffffffffff1673ffffffffffffffffffffffffffffffffffffffff168152602001600b820160159054906101000a900460ff166003811115612636576126356142b1565b5b6003811115612648576126476142b1565b5b8152602001600c8201805461265c9061416c565b80601f01602080910402602001604051908101604052809291908181526020018280546126889061416c565b80156126d55780601f106126aa576101008083540402835291602001916126d5565b820191906000526020600020905b8154815290600101906020018083116126b857829003601f168201915b505050505081525050905060008160800151141580156126fa57506000816060015114155b612739576040517f08c379a000000000000000000000000000000000000000000000000000000000815260040161273090613dd0565b60405180910390fd5b80600001519b5080602001519a508060400151995080606001519850806080015197508060a00151965080610160015195508061018001519450806101a001519350806101c0015192508060c0015191505091939597999b90929496989a50565b60006005826040516127ac9190613b3d565b908152602001604051809103902060000160009054906101000a900473ffffffffffffffffffffffffffffffffffffffff169050919050565b6003808111156127f8576127f76142b1565b5b6001826040516128089190613b3d565b9081526020016040518091039020600b0160159054906101000a900460ff166003811115612839576128386142b1565b5b1461284357600080fd5b600a6001826040516128559190613b3d565b9081526020016040518091039020600a01546128719190613fdf565b6001826040516128819190613b3d565b9081526020016040518091039020600a015461289d9190613f52565b3410156128a957600080fd5b6001816040516128b99190613b3d565b908152602001604051809103902060050160009054906101000a900473ffffffffffffffffffffffffffffffffffffffff1673ffffffffffffffffffffffffffffffffffffffff166108fc6001836040516129149190613b3d565b9081526020016040518091039020600a01549081150290604051600060405180830381858888f19350505050158015612951573d6000803e3d6000fd5b5061299d6001826040516129659190613b3d565b908152602001604051809103902060050160009054906101000a900473ffffffffffffffffffffffffffffffffffffffff1682612de4565b336001826040516129ae9190613b3d565b908152602001604051809103902060050160006101000a81548173ffffffffffffffffffffffffffffffffffffffff021916908373ffffffffffffffffffffffffffffffffffffffff1602179055506000600182604051612a0f9190613b3d565b9081526020016040518091039020600b0160006101000a81548160ff0219169083151502179055506000600182604051612a499190613b3d565b9081526020016040518091039020600b0160016101000a81548173ffffffffffffffffffffffffffffffffffffffff021916908373ffffffffffffffffffffffffffffffffffffffff1602179055506000600182604051612aaa9190613b3d565b9081526020016040518091039020600b0160156101000a81548160ff02191690836003811115612add57612adc6142b1565b5b0217905550600660003373ffffffffffffffffffffffffffffffffffffffff1673ffffffffffffffffffffffffffffffffffffffff16815260200190815260200160002060000181908060018154018082558091505060019003906000526020600020016000909190919091509080519060200190612b5d929190612f8c565b5050565b6060600282604051612b739190613b3d565b9081526020016040518091039020600001805480602002602001604051908101604052809291908181526020016000905b82821015612c50578382906000526020600020018054612bc39061416c565b80601f0160208091040260200160405190810160405280929190818152602001828054612bef9061416c565b8015612c3c5780601f10612c1157610100808354040283529160200191612c3c565b820191906000526020600020905b815481529060010190602001808311612c1f57829003601f168201915b505050505081526020019060010190612ba4565b505050509050919050565b60606000821415612ca3576040518060400160405280600181526020017f30000000000000000000000000000000000000000000000000000000000000008152509050612ddf565b600082905060005b60008214612cd5578080612cbe906141cf565b915050600a82612cce9190613fdf565b9150612cab565b60008167ffffffffffffffff811115612cf157612cf061436d565b5b6040519080825280601f01601f191660200182016040528015612d235781602001600182028036833780820191505090505b50905060008290505b60008614612dd757600181612d41919061406a565b90506000600a8088612d539190613fdf565b612d5d9190614010565b87612d68919061406a565b6030612d749190613fa8565b905060008160f81b905080848481518110612d9257612d9161433e565b5b60200101907effffffffffffffffffffffffffffffffffffffffffffffffffffffffffffff1916908160001a905350600a88612dce9190613fdf565b97505050612d2c565b819450505050505b919050565b6000612df08284610ae7565b9050600660008473ffffffffffffffffffffffffffffffffffffffff1673ffffffffffffffffffffffffffffffffffffffff1681526020019081526020016000206000016001600660008673ffffffffffffffffffffffffffffffffffffffff1673ffffffffffffffffffffffffffffffffffffffff16815260200190815260200160002060000180549050612e86919061406a565b81548110612e9757612e9661433e565b5b90600052602060002001600660008573ffffffffffffffffffffffffffffffffffffffff1673ffffffffffffffffffffffffffffffffffffffff1681526020019081526020016000206000018281548110612ef557612ef461433e565b5b90600052602060002001908054612f0b9061416c565b612f16929190613012565b50600660008473ffffffffffffffffffffffffffffffffffffffff1673ffffffffffffffffffffffffffffffffffffffff168152602001908152602001600020600001805480612f6957612f6861430f565b5b600190038181906000526020600020016000612f85919061309f565b9055505050565b828054612f989061416c565b90600052602060002090601f016020900481019282612fba5760008555613001565b82601f10612fd357805160ff1916838001178555613001565b82800160010185558215613001579182015b82811115613000578251825591602001919060010190612fe5565b5b50905061300e91906130df565b5090565b82805461301e9061416c565b90600052602060002090601f016020900481019282613040576000855561308e565b82601f10613051578054855561308e565b8280016001018555821561308e57600052602060002091601f016020900482015b8281111561308d578254825591600101919060010190613072565b5b50905061309b91906130df565b5090565b5080546130ab9061416c565b6000825580601f106130bd57506130dc565b601f0160209004906000526020600020908101906130db91906130df565b5b50565b5b808211156130f85760008160009055506001016130e0565b5090565b600061310f61310a84613e90565b613e6b565b90508281526020810184848401111561312b5761312a6143a1565b5b61313684828561412a565b509392505050565b60008135905061314d816144ee565b92915050565b60008135905061316281614505565b92915050565b6000813590506131778161451c565b92915050565b600082601f8301126131925761319161439c565b5b81356131a28482602086016130fc565b91505092915050565b6000813590506131ba8161452c565b92915050565b6000602082840312156131d6576131d56143ab565b5b60006131e48482850161313e565b91505092915050565b60008060008060808587031215613207576132066143ab565b5b60006132158782880161313e565b945050602085013567ffffffffffffffff811115613236576132356143a6565b5b6132428782880161317d565b935050604085013567ffffffffffffffff811115613263576132626143a6565b5b61326f8782880161317d565b925050606085013567ffffffffffffffff8111156132905761328f6143a6565b5b61329c8782880161317d565b91505092959194509250565b6000602082840312156132be576132bd6143ab565b5b600082013567ffffffffffffffff8111156132dc576132db6143a6565b5b6132e88482850161317d565b91505092915050565b60008060408385031215613308576133076143ab565b5b600083013567ffffffffffffffff811115613326576133256143a6565b5b6133328582860161317d565b92505060206133438582860161313e565b9150509250929050565b60008060408385031215613364576133636143ab565b5b600083013567ffffffffffffffff811115613382576133816143a6565b5b61338e8582860161317d565b925050602061339f85828601613168565b9150509250929050565b600080604083850312156133c0576133bf6143ab565b5b600083013567ffffffffffffffff8111156133de576133dd6143a6565b5b6133ea8582860161317d565b925050602083013567ffffffffffffffff81111561340b5761340a6143a6565b5b6134178582860161317d565b9150509250929050565b6000806000806080858703121561343b5761343a6143ab565b5b600085013567ffffffffffffffff811115613459576134586143a6565b5b6134658782880161317d565b945050602085013567ffffffffffffffff811115613486576134856143a6565b5b6134928782880161317d565b935050604085013567ffffffffffffffff8111156134b3576134b26143a6565b5b6134bf8782880161317d565b92505060606134d0878288016131ab565b91505092959194509250565b60008060008060008060c087890312156134f9576134f86143ab565b5b600087013567ffffffffffffffff811115613517576135166143a6565b5b61352389828a0161317d565b965050602087013567ffffffffffffffff811115613544576135436143a6565b5b61355089828a0161317d565b955050604087013567ffffffffffffffff811115613571576135706143a6565b5b61357d89828a0161317d565b945050606061358e89828a016131ab565b935050608061359f89828a016131ab565b92505060a06135b089828a01613153565b9150509295509295509295565b6000806000806000806000806000806101408b8d0312156135e1576135e06143ab565b5b60008b013567ffffffffffffffff8111156135ff576135fe6143a6565b5b61360b8d828e0161317d565b9a505060208b013567ffffffffffffffff81111561362c5761362b6143a6565b5b6136388d828e0161317d565b99505060406136498d828e016131ab565b98505060608b013567ffffffffffffffff81111561366a576136696143a6565b5b6136768d828e0161317d565b97505060808b013567ffffffffffffffff811115613697576136966143a6565b5b6136a38d828e0161317d565b96505060a08b013567ffffffffffffffff8111156136c4576136c36143a6565b5b6136d08d828e0161317d565b95505060c08b013567ffffffffffffffff8111156136f1576136f06143a6565b5b6136fd8d828e0161317d565b94505060e08b013567ffffffffffffffff81111561371e5761371d6143a6565b5b61372a8d828e0161317d565b9350506101008b013567ffffffffffffffff81111561374c5761374b6143a6565b5b6137588d828e0161317d565b92505061012061376a8d828e01613153565b9150509295989b9194979a5092959850565b60008060008060008060c08789031215613799576137986143ab565b5b600087013567ffffffffffffffff8111156137b7576137b66143a6565b5b6137c389828a0161317d565b965050602087013567ffffffffffffffff8111156137e4576137e36143a6565b5b6137f089828a0161317d565b955050604061380189828a016131ab565b945050606087013567ffffffffffffffff811115613822576138216143a6565b5b61382e89828a0161317d565b935050608061383f89828a016131ab565b92505060a087013567ffffffffffffffff8111156138605761385f6143a6565b5b61386c89828a0161317d565b9150509295509295509295565b600061388583836139ae565b905092915050565b6138968161409e565b82525050565b60006138a782613ee6565b6138b18185613f09565b9350836020820285016138c385613ec1565b8060005b858110156138ff57848403895281516138e08582613879565b94506138eb83613efc565b925060208a019950506001810190506138c7565b50829750879550505050505092915050565b61391a816140c2565b82525050565b6000815461392d8161416c565b6139378186613f1a565b94506001821660008114613952576001811461396357613996565b60ff19831686528186019350613996565b61396c85613ed1565b60005b8381101561398e5781548189015260018201915060208101905061396f565b838801955050505b50505092915050565b6139a881614118565b82525050565b60006139b982613ef1565b6139c38185613f25565b93506139d3818560208601614139565b6139dc816143b0565b840191505092915050565b60006139f282613ef1565b6139fc8185613f36565b9350613a0c818560208601614139565b613a15816143b0565b840191505092915050565b6000613a2b82613ef1565b613a358185613f47565b9350613a45818560208601614139565b80840191505092915050565b6000613a5e601a83613f36565b9150613a69826143c1565b602082019050919050565b6000613a81601c83613f36565b9150613a8c826143ea565b602082019050919050565b6000613aa4602183613f36565b9150613aaf82614413565b604082019050919050565b6000613ac7601c83613f36565b9150613ad282614462565b602082019050919050565b6000613aea603283613f36565b9150613af58261448b565b604082019050919050565b613b0981614101565b82525050565b613b20613b1b82614101565b614218565b82525050565b6000613b328284613920565b915081905092915050565b6000613b498284613a20565b915081905092915050565b6000613b608287613a20565b9150613b6c8286613a20565b9150613b788285613a20565b9150613b848284613b0f565b60208201915081905095945050505050565b6000602082019050613bab600083018461388d565b92915050565b600060a082019050613bc6600083018861388d565b613bd36020830187613b00565b613be06040830186613911565b613bed606083018561388d565b613bfa608083018461399f565b9695505050505050565b60006020820190508181036000830152613c1e818461389c565b905092915050565b6000602082019050613c3b6000830184613911565b92915050565b6000610160820190508181036000830152613c5c818e6139e7565b90508181036020830152613c70818d6139e7565b90508181036040830152613c84818c6139e7565b9050613c93606083018b613b00565b613ca0608083018a613b00565b613cad60a083018961388d565b613cba60c0830188613b00565b613cc760e0830187613911565b613cd561010083018661388d565b613ce361012083018561399f565b613cf1610140830184613911565b9c9b505050505050505050505050565b6000610100820190508181036000830152613d1c818b6139e7565b90508181036020830152613d30818a6139e7565b9050613d3f6040830189613b00565b8181036060830152613d5181886139e7565b90508181036080830152613d6581876139e7565b905081810360a0830152613d7981866139e7565b905081810360c0830152613d8d81856139e7565b905081810360e0830152613da181846139e7565b90509998505050505050505050565b60006020820190508181036000830152613dc981613a51565b9050919050565b60006020820190508181036000830152613de981613a74565b9050919050565b60006020820190508181036000830152613e0981613a97565b9050919050565b60006020820190508181036000830152613e2981613aba565b9050919050565b60006020820190508181036000830152613e4981613add565b9050919050565b6000602082019050613e656000830184613b00565b92915050565b6000613e75613e86565b9050613e81828261419e565b919050565b6000604051905090565b600067ffffffffffffffff821115613eab57613eaa61436d565b5b613eb4826143b0565b9050602081019050919050565b6000819050602082019050919050565b60008190508160005260206000209050919050565b600081519050919050565b600081519050919050565b6000602082019050919050565b600082825260208201905092915050565b600081905092915050565b600082825260208201905092915050565b600082825260208201905092915050565b600081905092915050565b6000613f5d82614101565b9150613f6883614101565b9250827fffffffffffffffffffffffffffffffffffffffffffffffffffffffffffffffff03821115613f9d57613f9c614253565b5b828201905092915050565b6000613fb38261410b565b9150613fbe8361410b565b92508260ff03821115613fd457613fd3614253565b5b828201905092915050565b6000613fea82614101565b9150613ff583614101565b92508261400557614004614282565b5b828204905092915050565b600061401b82614101565b915061402683614101565b9250817fffffffffffffffffffffffffffffffffffffffffffffffffffffffffffffffff048311821515161561405f5761405e614253565b5b828202905092915050565b600061407582614101565b915061408083614101565b92508282101561409357614092614253565b5b828203905092915050565b60006140a9826140e1565b9050919050565b60006140bb826140e1565b9050919050565b60008115159050919050565b60008190506140dc826144da565b919050565b600073ffffffffffffffffffffffffffffffffffffffff82169050919050565b6000819050919050565b600060ff82169050919050565b6000614123826140ce565b9050919050565b82818337600083830152505050565b60005b8381101561415757808201518184015260208101905061413c565b83811115614166576000848401525b50505050565b6000600282049050600182168061418457607f821691505b60208210811415614198576141976142e0565b5b50919050565b6141a7826143b0565b810181811067ffffffffffffffff821117156141c6576141c561436d565b5b80604052505050565b60006141da82614101565b91507fffffffffffffffffffffffffffffffffffffffffffffffffffffffffffffffff82141561420d5761420c614253565b5b600182019050919050565b6000819050919050565b600061422d82614101565b915061423883614101565b92508261424857614247614282565b5b828206905092915050565b7f4e487b7100000000000000000000000000000000000000000000000000000000600052601160045260246000fd5b7f4e487b7100000000000000000000000000000000000000000000000000000000600052601260045260246000fd5b7f4e487b7100000000000000000000000000000000000000000000000000000000600052602160045260246000fd5b7f4e487b7100000000000000000000000000000000000000000000000000000000600052602260045260246000fd5b7f4e487b7100000000000000000000000000000000000000000000000000000000600052603160045260246000fd5b7f4e487b7100000000000000000000000000000000000000000000000000000000600052603260045260246000fd5b7f4e487b7100000000000000000000000000000000000000000000000000000000600052604160045260246000fd5b600080fd5b600080fd5b600080fd5b600080fd5b6000601f19601f8301169050919050565b7f54686973206f776e657220646f6573206e6f742065786973742e000000000000600082015250565b7f4e6f206c616e6420776974682074686973204944206578697374732e00000000600082015250565b7f4c616e642077697468207468697320494420616c72656164792065786973747360008201527f2e00000000000000000000000000000000000000000000000000000000000000602082015250565b7f54686973206163636f756e7420616c7265616479206578697374732e00000000600082015250565b7f4f6e6c792061646d696e732061726520616c6c6f77656420746f20706572666f60008201527f726d2074686973206f7065726174696f6e2e0000000000000000000000000000602082015250565b600481106144eb576144ea6142b1565b5b50565b6144f78161409e565b811461450257600080fd5b50565b61450e816140b0565b811461451957600080fd5b50565b6004811061452957600080fd5b50565b61453581614101565b811461454057600080fd5b5056fea2646970667358221220dc130e9aa1f2106273d84209d93844de790dc983dad9b7d66ccf1507dcce4d3f64736f6c63430008060033",
  "immutableReferences": {},
  "source": "// SPDX-License-Identifier: MIT\r\n\r\npragma solidity >=0.5.1 <= 0.8.6;\r\n\r\ncontract LandReg{\r\n    address superAdmin;\r\n\r\n    struct landDetails{\r\n        string state;\r\n        string district;\r\n        string cadzone;\r\n        uint256 plotNumber;\r\n        uint256 plotSize;  // * 4 decimal places\r\n        address payable currentOwner;\r\n        bool isCertified;\r\n        // Land Documents\r\n        string cofo;\r\n        uint cofoDate;\r\n        string rofoHash;\r\n        uint rofoDate;\r\n        // Buy and sell\r\n        uint marketValue;\r\n        bool isAvailable;\r\n        address requester;\r\n        reqStatus requestStatus; \r\n        string id;\r\n    }\r\n\r\n    struct ownerDetails {\r\n        string name;\r\n        string gender;\r\n        uint dob;\r\n        string ownerAddress;\r\n        string phone1;\r\n        string phone2;\r\n        string NIN;\r\n        string email;\r\n        address payable wAddress;\r\n    }\r\n\r\n    struct adminDetails {\r\n        string name;\r\n        string state;\r\n        string district;\r\n    }\r\n    struct adminState {\r\n        address adminAddress;\r\n    }\r\n\r\n    //request status\r\n    enum reqStatus { Default, pending, reject, approved }\r\n\r\n    //profile of a client\r\n    struct profiles{\r\n        string[] assetList;   \r\n    }\r\n\r\n    struct landState {\r\n        string[] ids;\r\n    }\r\n\r\n    mapping(string => landDetails) lands;\r\n    mapping(string => landState) landStates; // Push land ids inside their respestive states\r\n    address owner;\r\n    mapping( address => adminDetails) admins;\r\n    mapping(string => adminState) adminStates;\r\n    mapping( address => profiles) profile;\r\n\r\n    mapping( address => ownerDetails ) owners;\r\n    \r\n    //contract owner\r\n    constructor() {\r\n        owner = msg.sender;\r\n        superAdmin = owner;\r\n    }\r\n\r\n    modifier onlyOwner {\r\n        require(msg.sender == owner);\r\n        _;\r\n    }\r\n    \r\n    //adding region admins\r\n    function addAdmin( address admin, string memory name, string memory state, string memory district ) onlyOwner public {\r\n        admins[admin].name = name;\r\n        admins[admin].state = state;\r\n        admins[admin].district = district;\r\n\r\n        adminStates[state].adminAddress = admin;\r\n    }\r\n\r\n    function getAdmin(string memory state) public view returns(address){\r\n        return adminStates[state].adminAddress;\r\n    }\r\n\r\n    //Registration of land details.\r\n    function registerLand(\r\n        string memory state,\r\n        string memory district,\r\n        string memory cadzone,\r\n        uint plotNumber,\r\n        uint plotSize,\r\n        address payable wAddress\r\n        ) public returns(bool) {\r\n        require(adminStates[state].adminAddress == msg.sender || owner == msg.sender, \"Only admins are allowed to perform this operation.\");\r\n        uint id_uint = computeId(state,district,cadzone,plotNumber);\r\n        string memory id = uint2str(id_uint);\r\n        // require(adminStates[state].adminAddress != msg.sender && owner != msg.sender, \"Only admins are allowed to perform this operation.\");\r\n        require(lands[id].plotSize == 0 && lands[id].plotNumber == 0, \"Land with this ID already exists.\");\r\n        lands[id].state = state;\r\n        lands[id].district = district;\r\n        lands[id].cadzone = cadzone;\r\n        \r\n        lands[id].plotNumber = plotNumber;\r\n        lands[id].plotSize = plotSize;\r\n        lands[id].currentOwner = wAddress;\r\n\r\n        lands[id].id = id;\r\n        landStates[state].ids.push(id);\r\n\r\n        profile[wAddress].assetList.push(id);\r\n        return true;\r\n    }\r\n\r\n    function uint2str(uint _i) internal pure returns (string memory _uintAsString) {\r\n        if (_i == 0) {\r\n            return \"0\";\r\n        }\r\n        uint j = _i;\r\n        uint len;\r\n        while (j != 0) {\r\n            len++;\r\n            j /= 10;\r\n        }\r\n        bytes memory bstr = new bytes(len);\r\n        uint k = len;\r\n        while (_i != 0) {\r\n            k = k-1;\r\n            uint8 temp = (48 + uint8(_i - _i / 10 * 10));\r\n            bytes1 b1 = bytes1(temp);\r\n            bstr[k] = b1;\r\n            _i /= 10;\r\n        }\r\n        return string(bstr);\r\n    }\r\n\r\n    function editLandDocuments(\r\n        string memory id,\r\n        string memory cofo,\r\n        uint cofoDate,\r\n        string memory rofoHash,\r\n        uint  rofoDate,\r\n        string memory stateOfAdmin\r\n    ) public returns (bool) {\r\n        require(adminStates[stateOfAdmin].adminAddress == msg.sender || owner == msg.sender, \"Only admins are allowed to perform this operation.\");\r\n        require(lands[id].plotSize != 0 && lands[id].plotNumber != 0, \"No land with this ID exists.\");\r\n\r\n        lands[id].cofo = cofo;\r\n        lands[id].cofoDate = cofoDate;\r\n        lands[id].rofoHash = rofoHash;\r\n        lands[id].rofoDate = rofoDate;\r\n\r\n        if(!(compareStrings(cofo, \"\") && compareStrings(rofoHash, \"\"))){\r\n            lands[id].isCertified = true;\r\n        }\r\n        else{\r\n            lands[id].isCertified = false;\r\n        }\r\n\r\n        return true;\r\n    }\r\n\r\n    function registerOwner(\r\n        string memory name,\r\n        string memory gender,\r\n        uint dob,\r\n        string memory ownerAddress,\r\n        string memory phone1,\r\n        string memory phone2,\r\n        string memory NIN,\r\n        string memory email,\r\n        string memory stateOfAdmin,\r\n        address payable wAddress\r\n    ) onlyOwner public returns (bool){\r\n        require(adminStates[stateOfAdmin].adminAddress == msg.sender || owner == msg.sender, \"Only admins are allowed to perform this operation.\");\r\n        bytes32 emptyHash = keccak256(\"\");\r\n        require( keccak256(bytes(owners[wAddress].NIN)) == emptyHash || keccak256(bytes(owners[wAddress].email)) == emptyHash, \"This account already exists.\");\r\n\r\n        owners[wAddress].name = name;\r\n        owners[wAddress].gender = gender;\r\n        owners[wAddress].dob = dob;\r\n        owners[wAddress].ownerAddress = ownerAddress;\r\n        owners[wAddress].phone1 = phone1;\r\n        owners[wAddress].phone2 = phone2;\r\n        owners[wAddress].NIN = NIN;\r\n        owners[wAddress].email = email;\r\n        owners[wAddress].wAddress = wAddress;\r\n\r\n        return true;\r\n    }\r\n\r\n    //to view details of land for the owner\r\n    function landInfoFull(string memory id) public view returns(\r\n        string memory state,\r\n        string memory district,\r\n        string memory cadzone,\r\n        uint plotNumber,\r\n        uint plotSize,\r\n        address currentOwner,\r\n        uint marketValue,\r\n        bool isAvailable,\r\n        address requester,\r\n        reqStatus requestStatus,\r\n        bool isCertified ){\r\n        landDetails memory lands_local = lands[id];\r\n        require(lands_local.plotSize != 0 && lands_local.plotNumber != 0, \"No land with this ID exists.\");\r\n        \r\n        state = lands_local.state;\r\n        district = lands_local.district;\r\n        cadzone = lands_local.cadzone;\r\n        plotNumber = lands_local.plotNumber;\r\n        plotSize = lands_local.plotSize;\r\n        currentOwner = lands_local.currentOwner;\r\n        marketValue = lands_local.marketValue;\r\n        isAvailable = lands_local.isAvailable;\r\n        requester = lands_local.requester;\r\n        requestStatus = lands_local.requestStatus;\r\n        isCertified = lands_local.isCertified;\r\n            \r\n    }\r\n\r\n    function ownerInfo(address wAddress) public view returns(\r\n        string memory name,\r\n        string memory gender,\r\n        uint dob,\r\n        string memory ownerAddress,\r\n        string memory phone1,\r\n        string memory phone2,\r\n        string memory NIN,\r\n        string memory email\r\n    ) {\r\n        require(compareStrings(owners[wAddress].email, \"\"), \"This owner does not exist.\");\r\n        ownerDetails memory tmpOwner = owners[wAddress];\r\n        name = tmpOwner.name;\r\n        gender = tmpOwner.gender;\r\n        dob = tmpOwner.dob;\r\n        ownerAddress = tmpOwner.ownerAddress;\r\n        phone1 = tmpOwner.phone1;\r\n        phone2 = tmpOwner.phone2;\r\n        NIN = tmpOwner.NIN;\r\n        email = tmpOwner.email;\r\n\r\n    }\r\n\r\n    function landInfoStates(string memory state) public view returns(string[] memory state_ids){\r\n        state_ids = landStates[state].ids;\r\n    }\r\n    \r\n    //to view details of land for the buyer\r\n    function landInfoBuyer(string memory id) public view returns(address,uint,bool,address,reqStatus){\r\n        return(lands[id].currentOwner, lands[id].marketValue, lands[id].isAvailable, lands[id].requester, lands[id].requestStatus);\r\n    }\r\n\r\n    // to compute id for a land.\r\n    function computeId(string memory state, string memory district, string memory cadzone, uint plotNumber) public pure returns(uint){\r\n        return uint(keccak256(abi.encodePacked(state, district, cadzone, plotNumber)))%10000000000000;\r\n    }\r\n\r\n    // view the assets of the owner represented by this address\r\n    function viewAssets(address wAddress)public view returns(string[] memory){\r\n        return (profile[wAddress].assetList);\r\n    }\r\n\r\n    //push a request to the land owner\r\n    function requstToLandOwner(string memory id) public {\r\n        require(lands[id].isAvailable);\r\n        lands[id].requester = msg.sender;\r\n        lands[id].isAvailable = false;\r\n        lands[id].requestStatus = reqStatus.pending; //changes the status to pending.\r\n    }\r\n\r\n    //viewing request for the lands\r\n    function viewRequest(string memory property)public view returns(address){\r\n        return(lands[property].requester);\r\n    }\r\n    //processing request for the land by accepting or rejecting\r\n    function processRequest(string memory property,reqStatus status) public {\r\n        require(lands[property].currentOwner == msg.sender);\r\n        lands[property].requestStatus = status;\r\n        if(status == reqStatus.reject){\r\n            lands[property].requester = address(0);\r\n            lands[property].requestStatus = reqStatus.Default;\r\n        }\r\n    }\r\n    //availing lands for sale.\r\n    function makeAvailable(string memory property)public{\r\n        require(lands[property].currentOwner == msg.sender);\r\n        lands[property].isAvailable=true;\r\n    } \r\n\r\n    //buying the approved property\r\n    function buyProperty(string memory property)public payable{\r\n        require(lands[property].requestStatus == reqStatus.approved);\r\n        require(msg.value >= (lands[property].marketValue+((lands[property].marketValue)/10)));\r\n        lands[property].currentOwner.transfer(lands[property].marketValue);\r\n        removeOwnership(lands[property].currentOwner,property);\r\n        lands[property].currentOwner=payable(msg.sender);\r\n        lands[property].isAvailable=false;\r\n        lands[property].requester = address(0);\r\n        lands[property].requestStatus = reqStatus.Default;\r\n        profile[msg.sender].assetList.push(property); //adds the property to the asset list of the new owner.\r\n        \r\n    }\r\n    //removing the ownership of seller for the lands. and it is called by the buyProperty function\r\n    function removeOwnership(address previousOwner,string memory id)private{\r\n        uint index = findId(id,previousOwner);\r\n        profile[previousOwner].assetList[index]=profile[previousOwner].assetList[profile[previousOwner].assetList.length-1];\r\n        profile[previousOwner].assetList.pop();\r\n    }\r\n    //for finding the index of a perticular id\r\n    function findId(string memory id,address user)public view returns(uint){\r\n        uint i;\r\n        for(i=0;i<profile[user].assetList.length;i++){\r\n            // if(profile[user].assetList[i] == id)\r\n            if(compareStrings(profile[user].assetList[i], id))\r\n                return i;\r\n        }\r\n        return i;\r\n    }\r\n\r\n    function compareStrings(string memory a, string memory b) public pure returns (bool) {\r\n        return (keccak256(abi.encodePacked((a))) == keccak256(abi.encodePacked((b))));\r\n    }\r\n}",
  "sourcePath": "C:/Mine/Sources/eth/SanniMSc/begin-real/contracts/LandReg.sol",
  "compiler": {
    "name": "solc",
    "version": "0.8.6+commit.11564f7e.Emscripten.clang"
  },
  "schemaVersion": "3.4.1",
  "updatedAt": "2021-08-31T10:38:47.085Z",
  "networkType": "ethereum",
  "devdoc": {
    "kind": "dev",
    "methods": {},
    "version": 1
  },
  "userdoc": {
    "kind": "user",
    "methods": {},
    "version": 1
  }
}