{
  "contractName": "LandReg",
  "abi": [
    {
      "inputs": [],
      "stateMutability": "nonpayable",
      "type": "constructor"
    },
    {
      "inputs": [
        {
          "internalType": "address",
          "name": "admin",
          "type": "address"
        },
        {
          "internalType": "string",
          "name": "name",
          "type": "string"
        },
        {
          "internalType": "string",
          "name": "state",
          "type": "string"
        },
        {
          "internalType": "string",
          "name": "district",
          "type": "string"
        }
      ],
      "name": "addAdmin",
      "outputs": [],
      "stateMutability": "nonpayable",
      "type": "function"
    },
    {
      "inputs": [
        {
          "internalType": "string",
          "name": "state",
          "type": "string"
        }
      ],
      "name": "getAdmin",
      "outputs": [
        {
          "internalType": "address",
          "name": "",
          "type": "address"
        }
      ],
      "stateMutability": "view",
      "type": "function",
      "constant": true
    },
    {
      "inputs": [
        {
          "internalType": "string",
          "name": "state",
          "type": "string"
        },
        {
          "internalType": "string",
          "name": "district",
          "type": "string"
        },
        {
          "internalType": "string",
          "name": "cadzone",
          "type": "string"
        },
        {
          "internalType": "uint256",
          "name": "plotNumber",
          "type": "uint256"
        },
        {
          "internalType": "uint256",
          "name": "plotSize",
          "type": "uint256"
        },
        {
          "internalType": "address payable",
          "name": "wAddress",
          "type": "address"
        }
      ],
      "name": "registerLand",
      "outputs": [
        {
          "internalType": "bool",
          "name": "",
          "type": "bool"
        }
      ],
      "stateMutability": "nonpayable",
      "type": "function"
    },
    {
      "inputs": [
        {
          "internalType": "string",
          "name": "id",
          "type": "string"
        },
        {
          "internalType": "string",
          "name": "cofo",
          "type": "string"
        },
        {
          "internalType": "uint256",
          "name": "cofoDate",
          "type": "uint256"
        },
        {
          "internalType": "string",
          "name": "rofoHash",
          "type": "string"
        },
        {
          "internalType": "uint256",
          "name": "rofoDate",
          "type": "uint256"
        },
        {
          "internalType": "string",
          "name": "stateOfAdmin",
          "type": "string"
        }
      ],
      "name": "editLandDocuments",
      "outputs": [
        {
          "internalType": "bool",
          "name": "",
          "type": "bool"
        }
      ],
      "stateMutability": "nonpayable",
      "type": "function"
    },
    {
      "inputs": [
        {
          "internalType": "string",
          "name": "name",
          "type": "string"
        },
        {
          "internalType": "string",
          "name": "gender",
          "type": "string"
        },
        {
          "internalType": "uint256",
          "name": "dob",
          "type": "uint256"
        },
        {
          "internalType": "string",
          "name": "ownerAddress",
          "type": "string"
        },
        {
          "internalType": "string",
          "name": "phone1",
          "type": "string"
        },
        {
          "internalType": "string",
          "name": "phone2",
          "type": "string"
        },
        {
          "internalType": "string",
          "name": "NIN",
          "type": "string"
        },
        {
          "internalType": "string",
          "name": "email",
          "type": "string"
        },
        {
          "internalType": "string",
          "name": "stateOfAdmin",
          "type": "string"
        },
        {
          "internalType": "address payable",
          "name": "wAddress",
          "type": "address"
        }
      ],
      "name": "registerOwner",
      "outputs": [
        {
          "internalType": "bool",
          "name": "",
          "type": "bool"
        }
      ],
      "stateMutability": "nonpayable",
      "type": "function"
    },
    {
      "inputs": [
        {
          "internalType": "string",
          "name": "id",
          "type": "string"
        }
      ],
      "name": "landInfoFull",
      "outputs": [
        {
          "internalType": "string",
          "name": "state",
          "type": "string"
        },
        {
          "internalType": "string",
          "name": "district",
          "type": "string"
        },
        {
          "internalType": "string",
          "name": "cadzone",
          "type": "string"
        },
        {
          "internalType": "uint256",
          "name": "plotNumber",
          "type": "uint256"
        },
        {
          "internalType": "uint256",
          "name": "plotSize",
          "type": "uint256"
        },
        {
          "internalType": "address",
          "name": "currentOwner",
          "type": "address"
        },
        {
          "internalType": "uint256",
          "name": "marketValue",
          "type": "uint256"
        },
        {
          "internalType": "bool",
          "name": "isAvailable",
          "type": "bool"
        },
        {
          "internalType": "address",
          "name": "requester",
          "type": "address"
        },
        {
          "internalType": "enum LandReg.reqStatus",
          "name": "requestStatus",
          "type": "uint8"
        },
        {
          "internalType": "bool",
          "name": "isCertified",
          "type": "bool"
        }
      ],
      "stateMutability": "view",
      "type": "function",
      "constant": true
    },
    {
      "inputs": [
        {
          "internalType": "address",
          "name": "wAddress",
          "type": "address"
        }
      ],
      "name": "ownerInfo",
      "outputs": [
        {
          "internalType": "string",
          "name": "name",
          "type": "string"
        },
        {
          "internalType": "string",
          "name": "gender",
          "type": "string"
        },
        {
          "internalType": "uint256",
          "name": "dob",
          "type": "uint256"
        },
        {
          "internalType": "string",
          "name": "ownerAddress",
          "type": "string"
        },
        {
          "internalType": "string",
          "name": "phone1",
          "type": "string"
        },
        {
          "internalType": "string",
          "name": "phone2",
          "type": "string"
        },
        {
          "internalType": "string",
          "name": "NIN",
          "type": "string"
        },
        {
          "internalType": "string",
          "name": "email",
          "type": "string"
        }
      ],
      "stateMutability": "view",
      "type": "function",
      "constant": true
    },
    {
      "inputs": [
        {
          "internalType": "string",
          "name": "id",
          "type": "string"
        }
      ],
      "name": "landDocumentsInfo",
      "outputs": [
        {
          "internalType": "string",
          "name": "cofo",
          "type": "string"
        },
        {
          "internalType": "uint256",
          "name": "cofoDate",
          "type": "uint256"
        },
        {
          "internalType": "string",
          "name": "rofoHash",
          "type": "string"
        },
        {
          "internalType": "uint256",
          "name": "rofoDate",
          "type": "uint256"
        },
        {
          "internalType": "bool",
          "name": "isCertified",
          "type": "bool"
        }
      ],
      "stateMutability": "nonpayable",
      "type": "function"
    },
    {
      "inputs": [
        {
          "internalType": "string",
          "name": "state",
          "type": "string"
        }
      ],
      "name": "landInfoStates",
      "outputs": [
        {
          "internalType": "string[]",
          "name": "state_ids",
          "type": "string[]"
        }
      ],
      "stateMutability": "view",
      "type": "function",
      "constant": true
    },
    {
      "inputs": [
        {
          "internalType": "string",
          "name": "id",
          "type": "string"
        }
      ],
      "name": "landInfoBuyer",
      "outputs": [
        {
          "internalType": "address",
          "name": "",
          "type": "address"
        },
        {
          "internalType": "uint256",
          "name": "",
          "type": "uint256"
        },
        {
          "internalType": "bool",
          "name": "",
          "type": "bool"
        },
        {
          "internalType": "address",
          "name": "",
          "type": "address"
        },
        {
          "internalType": "enum LandReg.reqStatus",
          "name": "",
          "type": "uint8"
        }
      ],
      "stateMutability": "view",
      "type": "function",
      "constant": true
    },
    {
      "inputs": [
        {
          "internalType": "string",
          "name": "state",
          "type": "string"
        },
        {
          "internalType": "string",
          "name": "district",
          "type": "string"
        },
        {
          "internalType": "string",
          "name": "cadzone",
          "type": "string"
        },
        {
          "internalType": "uint256",
          "name": "plotNumber",
          "type": "uint256"
        }
      ],
      "name": "computeId",
      "outputs": [
        {
          "internalType": "uint256",
          "name": "",
          "type": "uint256"
        }
      ],
      "stateMutability": "pure",
      "type": "function",
      "constant": true
    },
    {
      "inputs": [
        {
          "internalType": "address",
          "name": "wAddress",
          "type": "address"
        }
      ],
      "name": "viewAssets",
      "outputs": [
        {
          "internalType": "string[]",
          "name": "",
          "type": "string[]"
        }
      ],
      "stateMutability": "view",
      "type": "function",
      "constant": true
    },
    {
      "inputs": [
        {
          "internalType": "string",
          "name": "id",
          "type": "string"
        }
      ],
      "name": "requstToLandOwner",
      "outputs": [],
      "stateMutability": "nonpayable",
      "type": "function"
    },
    {
      "inputs": [
        {
          "internalType": "string",
          "name": "property",
          "type": "string"
        }
      ],
      "name": "viewRequest",
      "outputs": [
        {
          "internalType": "address",
          "name": "",
          "type": "address"
        }
      ],
      "stateMutability": "view",
      "type": "function",
      "constant": true
    },
    {
      "inputs": [
        {
          "internalType": "string",
          "name": "property",
          "type": "string"
        },
        {
          "internalType": "enum LandReg.reqStatus",
          "name": "status",
          "type": "uint8"
        }
      ],
      "name": "processRequest",
      "outputs": [],
      "stateMutability": "nonpayable",
      "type": "function"
    },
    {
      "inputs": [
        {
          "internalType": "string",
          "name": "property",
          "type": "string"
        }
      ],
      "name": "makeAvailable",
      "outputs": [],
      "stateMutability": "nonpayable",
      "type": "function"
    },
    {
      "inputs": [
        {
          "internalType": "string",
          "name": "property",
          "type": "string"
        }
      ],
      "name": "buyProperty",
      "outputs": [],
      "stateMutability": "payable",
      "type": "function",
      "payable": true
    },
    {
      "inputs": [
        {
          "internalType": "string",
          "name": "id",
          "type": "string"
        },
        {
          "internalType": "address",
          "name": "user",
          "type": "address"
        }
      ],
      "name": "findId",
      "outputs": [
        {
          "internalType": "uint256",
          "name": "",
          "type": "uint256"
        }
      ],
      "stateMutability": "view",
      "type": "function",
      "constant": true
    },
    {
      "inputs": [
        {
          "internalType": "string",
          "name": "a",
          "type": "string"
        },
        {
          "internalType": "string",
          "name": "b",
          "type": "string"
        }
      ],
      "name": "compareStrings",
      "outputs": [
        {
          "internalType": "bool",
          "name": "",
          "type": "bool"
        }
      ],
      "stateMutability": "pure",
      "type": "function",
      "constant": true
    }
  ],
  "bytecode": "0x608060405234801561001057600080fd5b5033600360006101000a81548173ffffffffffffffffffffffffffffffffffffffff021916908373ffffffffffffffffffffffffffffffffffffffff160217905550600360009054906101000a900473ffffffffffffffffffffffffffffffffffffffff166000806101000a81548173ffffffffffffffffffffffffffffffffffffffff021916908373ffffffffffffffffffffffffffffffffffffffff160217905550614bdc806100c36000396000f3fe6080604052600436106101145760003560e01c8063886734f7116100a0578063d05f180d11610064578063d05f180d1461042e578063d1d184b61461046b578063e6d218d9146104b2578063ecbef164146104ef578063f3dd44541461050b57610114565b8063886734f71461030657806399b79dff14610343578063b83e16051461036c578063b9e9ad27146103b0578063bed34bba146103f157610114565b80633f4b8f51116100e75780633f4b8f51146101e557806340c785d2146102265780634ef3eb3c146102635780635e20bd4e1461028c578063623f27c9146102c957610114565b806303825d6c14610119578063086c435f146101425780631d50a6c41461016b578063260d62c3146101a8575b600080fd5b34801561012557600080fd5b50610140600480360381019061013b91906137ef565b610548565b005b34801561014e57600080fd5b506101696004803603810190610164919061394f565b61070d565b005b34801561017757600080fd5b50610192600480360381019061018d9190613a23565b6108ac565b60405161019f91906144b3565b60405180910390f35b3480156101b457600080fd5b506101cf60048036038101906101ca91906137c2565b6108f9565b6040516101dc9190614206565b60405180910390f35b3480156101f157600080fd5b5061020c600480360381019061020791906138aa565b610a14565b60405161021d9594939291906141b3565b60405180910390f35b34801561023257600080fd5b5061024d600480360381019061024891906138f3565b610b33565b60405161025a91906144b3565b60405180910390f35b34801561026f57600080fd5b5061028a600480360381019061028591906138aa565b610ca4565b005b34801561029857600080fd5b506102b360048036038101906102ae9190613bbf565b610dc2565b6040516102c09190614228565b60405180910390f35b3480156102d557600080fd5b506102f060048036038101906102eb91906138aa565b61137e565b6040516102fd9190614198565b60405180910390f35b34801561031257600080fd5b5061032d60048036038101906103289190613ade565b6113c9565b60405161033a9190614228565b60405180910390f35b34801561034f57600080fd5b5061036a600480360381019061036591906138aa565b6117eb565b005b34801561037857600080fd5b50610393600480360381019061038e91906137c2565b6118a0565b6040516103a7989796959493929190614303565b60405180910390f35b3480156103bc57600080fd5b506103d760048036038101906103d291906138aa565b611ec1565b6040516103e89594939291906143b2565b60405180910390f35b3480156103fd57600080fd5b50610418600480360381019061041391906139ab565b612476565b6040516104259190614228565b60405180910390f35b34801561043a57600080fd5b5061045560048036038101906104509190613d7e565b6124cf565b6040516104629190614228565b60405180910390f35b34801561047757600080fd5b50610492600480360381019061048d91906138aa565b6127e8565b6040516104a99b9a99989796959493929190614243565b60405180910390f35b3480156104be57600080fd5b506104d960048036038101906104d491906138aa565b612d9c565b6040516104e69190614198565b60405180910390f35b610509600480360381019061050491906138aa565b612de7565b005b34801561051757600080fd5b50610532600480360381019061052d91906138aa565b613163565b60405161053f9190614206565b60405180910390f35b600360009054906101000a900473ffffffffffffffffffffffffffffffffffffffff1673ffffffffffffffffffffffffffffffffffffffff163373ffffffffffffffffffffffffffffffffffffffff16146105a257600080fd5b82600460008673ffffffffffffffffffffffffffffffffffffffff1673ffffffffffffffffffffffffffffffffffffffff16815260200190815260200160002060000190805190602001906105f892919061358e565b5081600460008673ffffffffffffffffffffffffffffffffffffffff1673ffffffffffffffffffffffffffffffffffffffff168152602001908152602001600020600101908051906020019061064f92919061358e565b5080600460008673ffffffffffffffffffffffffffffffffffffffff1673ffffffffffffffffffffffffffffffffffffffff16815260200190815260200160002060020190805190602001906106a692919061358e565b50836005836040516106b8919061413f565b908152602001604051809103902060000160006101000a81548173ffffffffffffffffffffffffffffffffffffffff021916908373ffffffffffffffffffffffffffffffffffffffff16021790555050505050565b3373ffffffffffffffffffffffffffffffffffffffff16600183604051610734919061413f565b908152602001604051809103902060050160009054906101000a900473ffffffffffffffffffffffffffffffffffffffff1673ffffffffffffffffffffffffffffffffffffffff161461078657600080fd5b80600183604051610797919061413f565b9081526020016040518091039020600b0160156101000a81548160ff021916908360038111156107ca576107c9614914565b5b0217905550600260038111156107e3576107e2614914565b5b8160038111156107f6576107f5614914565b5b14156108a857600060018360405161080e919061413f565b9081526020016040518091039020600b0160016101000a81548173ffffffffffffffffffffffffffffffffffffffff021916908373ffffffffffffffffffffffffffffffffffffffff160217905550600060018360405161086f919061413f565b9081526020016040518091039020600b0160156101000a81548160ff021916908360038111156108a2576108a1614914565b5b02179055505b5050565b60006509184e72a000858585856040516020016108cc9493929190614156565b6040516020818303038152906040528051906020012060001c6108ef9190614885565b9050949350505050565b6060600660008373ffffffffffffffffffffffffffffffffffffffff1673ffffffffffffffffffffffffffffffffffffffff168152602001908152602001600020600001805480602002602001604051908101604052809291908181526020016000905b82821015610a0957838290600052602060002001805461097c906147cf565b80601f01602080910402602001604051908101604052809291908181526020018280546109a8906147cf565b80156109f55780601f106109ca576101008083540402835291602001916109f5565b820191906000526020600020905b8154815290600101906020018083116109d857829003601f168201915b50505050508152602001906001019061095d565b505050509050919050565b6000806000806000600186604051610a2c919061413f565b908152602001604051809103902060050160009054906101000a900473ffffffffffffffffffffffffffffffffffffffff16600187604051610a6e919061413f565b9081526020016040518091039020600a0154600188604051610a90919061413f565b9081526020016040518091039020600b0160009054906101000a900460ff16600189604051610abf919061413f565b9081526020016040518091039020600b0160019054906101000a900473ffffffffffffffffffffffffffffffffffffffff1660018a604051610b01919061413f565b9081526020016040518091039020600b0160159054906101000a900460ff169450945094509450945091939590929450565b600080600090505b600660008473ffffffffffffffffffffffffffffffffffffffff1673ffffffffffffffffffffffffffffffffffffffff16815260200190815260200160002060000180549050811015610c9957610c78600660008573ffffffffffffffffffffffffffffffffffffffff1673ffffffffffffffffffffffffffffffffffffffff1681526020019081526020016000206000018281548110610bdf57610bde6149a1565b5b906000526020600020018054610bf4906147cf565b80601f0160208091040260200160405190810160405280929190818152602001828054610c20906147cf565b8015610c6d5780601f10610c4257610100808354040283529160200191610c6d565b820191906000526020600020905b815481529060010190602001808311610c5057829003601f168201915b505050505085612476565b15610c865780915050610c9e565b8080610c9190614832565b915050610b3b565b809150505b92915050565b600181604051610cb4919061413f565b9081526020016040518091039020600b0160009054906101000a900460ff16610cdc57600080fd5b33600182604051610ced919061413f565b9081526020016040518091039020600b0160016101000a81548173ffffffffffffffffffffffffffffffffffffffff021916908373ffffffffffffffffffffffffffffffffffffffff1602179055506000600182604051610d4e919061413f565b9081526020016040518091039020600b0160006101000a81548160ff02191690831515021790555060018082604051610d87919061413f565b9081526020016040518091039020600b0160156101000a81548160ff02191690836003811115610dba57610db9614914565b5b021790555050565b6000600360009054906101000a900473ffffffffffffffffffffffffffffffffffffffff1673ffffffffffffffffffffffffffffffffffffffff163373ffffffffffffffffffffffffffffffffffffffff1614610e1e57600080fd5b3373ffffffffffffffffffffffffffffffffffffffff16600584604051610e45919061413f565b908152602001604051809103902060000160009054906101000a900473ffffffffffffffffffffffffffffffffffffffff1673ffffffffffffffffffffffffffffffffffffffff161480610ee657503373ffffffffffffffffffffffffffffffffffffffff16600360009054906101000a900473ffffffffffffffffffffffffffffffffffffffff1673ffffffffffffffffffffffffffffffffffffffff16145b610f25576040517f08c379a0000000000000000000000000000000000000000000000000000000008152600401610f1c90614493565b60405180910390fd5b60007fc5d2460186f7233c927e7db2dcc703c0e500b653ca82273b7bfad8045d85a470905080600760008573ffffffffffffffffffffffffffffffffffffffff1673ffffffffffffffffffffffffffffffffffffffff168152602001908152602001600020600601604051610f9a9190614128565b60405180910390201480611003575080600760008573ffffffffffffffffffffffffffffffffffffffff1673ffffffffffffffffffffffffffffffffffffffff168152602001908152602001600020600701604051610ff99190614128565b6040518091039020145b611042576040517f08c379a000000000000000000000000000000000000000000000000000000000815260040161103990614473565b60405180910390fd5b8b600760008573ffffffffffffffffffffffffffffffffffffffff1673ffffffffffffffffffffffffffffffffffffffff168152602001908152602001600020600001908051906020019061109892919061358e565b508a600760008573ffffffffffffffffffffffffffffffffffffffff1673ffffffffffffffffffffffffffffffffffffffff16815260200190815260200160002060010190805190602001906110ef92919061358e565b5089600760008573ffffffffffffffffffffffffffffffffffffffff1673ffffffffffffffffffffffffffffffffffffffff1681526020019081526020016000206002018190555088600760008573ffffffffffffffffffffffffffffffffffffffff1673ffffffffffffffffffffffffffffffffffffffff168152602001908152602001600020600301908051906020019061118d92919061358e565b5087600760008573ffffffffffffffffffffffffffffffffffffffff1673ffffffffffffffffffffffffffffffffffffffff16815260200190815260200160002060040190805190602001906111e492919061358e565b5086600760008573ffffffffffffffffffffffffffffffffffffffff1673ffffffffffffffffffffffffffffffffffffffff168152602001908152602001600020600501908051906020019061123b92919061358e565b5085600760008573ffffffffffffffffffffffffffffffffffffffff1673ffffffffffffffffffffffffffffffffffffffff168152602001908152602001600020600601908051906020019061129292919061358e565b5084600760008573ffffffffffffffffffffffffffffffffffffffff1673ffffffffffffffffffffffffffffffffffffffff16815260200190815260200160002060070190805190602001906112e992919061358e565b5082600760008573ffffffffffffffffffffffffffffffffffffffff1673ffffffffffffffffffffffffffffffffffffffff16815260200190815260200160002060080160006101000a81548173ffffffffffffffffffffffffffffffffffffffff021916908373ffffffffffffffffffffffffffffffffffffffff16021790555060019150509a9950505050505050505050565b6000600182604051611390919061413f565b9081526020016040518091039020600b0160019054906101000a900473ffffffffffffffffffffffffffffffffffffffff169050919050565b60003373ffffffffffffffffffffffffffffffffffffffff166005886040516113f2919061413f565b908152602001604051809103902060000160009054906101000a900473ffffffffffffffffffffffffffffffffffffffff1673ffffffffffffffffffffffffffffffffffffffff16148061149357503373ffffffffffffffffffffffffffffffffffffffff16600360009054906101000a900473ffffffffffffffffffffffffffffffffffffffff1673ffffffffffffffffffffffffffffffffffffffff16145b6114d2576040517f08c379a00000000000000000000000000000000000000000000000000000000081526004016114c990614493565b60405180910390fd5b60006114e0888888886108ac565b905060006114ed8261325d565b90506000600182604051611501919061413f565b9081526020016040518091039020600401541480156115415750600060018260405161152d919061413f565b908152602001604051809103902060030154145b611580576040517f08c379a000000000000000000000000000000000000000000000000000000000815260040161157790614453565b60405180910390fd5b88600182604051611591919061413f565b908152602001604051809103902060000190805190602001906115b592919061358e565b50876001826040516115c7919061413f565b908152602001604051809103902060010190805190602001906115eb92919061358e565b50866001826040516115fd919061413f565b9081526020016040518091039020600201908051906020019061162192919061358e565b5085600182604051611633919061413f565b90815260200160405180910390206003018190555084600182604051611659919061413f565b9081526020016040518091039020600401819055508360018260405161167f919061413f565b908152602001604051809103902060050160006101000a81548173ffffffffffffffffffffffffffffffffffffffff021916908373ffffffffffffffffffffffffffffffffffffffff160217905550806001826040516116df919061413f565b9081526020016040518091039020600c01908051906020019061170392919061358e565b50600289604051611714919061413f565b90815260200160405180910390206000018190806001815401808255809150506001900390600052602060002001600090919091909150908051906020019061175e92919061358e565b50600660008573ffffffffffffffffffffffffffffffffffffffff1673ffffffffffffffffffffffffffffffffffffffff168152602001908152602001600020600001819080600181540180825580915050600190039060005260206000200160009091909190915090805190602001906117da92919061358e565b506001925050509695505050505050565b3373ffffffffffffffffffffffffffffffffffffffff16600182604051611812919061413f565b908152602001604051809103902060050160009054906101000a900473ffffffffffffffffffffffffffffffffffffffff1673ffffffffffffffffffffffffffffffffffffffff161461186457600080fd5b60018082604051611875919061413f565b9081526020016040518091039020600b0160006101000a81548160ff02191690831515021790555050565b60608060006060806060806060611990600760008b73ffffffffffffffffffffffffffffffffffffffff1673ffffffffffffffffffffffffffffffffffffffff16815260200190815260200160002060070180546118fd906147cf565b80601f0160208091040260200160405190810160405280929190818152602001828054611929906147cf565b80156119765780601f1061194b57610100808354040283529160200191611976565b820191906000526020600020905b81548152906001019060200180831161195957829003601f168201915b505050505060405180602001604052806000815250612476565b156119d0576040517f08c379a00000000000000000000000000000000000000000000000000000000081526004016119c790614413565b60405180910390fd5b6000600760008b73ffffffffffffffffffffffffffffffffffffffff1673ffffffffffffffffffffffffffffffffffffffff16815260200190815260200160002060405180610120016040529081600082018054611a2d906147cf565b80601f0160208091040260200160405190810160405280929190818152602001828054611a59906147cf565b8015611aa65780601f10611a7b57610100808354040283529160200191611aa6565b820191906000526020600020905b815481529060010190602001808311611a8957829003601f168201915b50505050508152602001600182018054611abf906147cf565b80601f0160208091040260200160405190810160405280929190818152602001828054611aeb906147cf565b8015611b385780601f10611b0d57610100808354040283529160200191611b38565b820191906000526020600020905b815481529060010190602001808311611b1b57829003601f168201915b5050505050815260200160028201548152602001600382018054611b5b906147cf565b80601f0160208091040260200160405190810160405280929190818152602001828054611b87906147cf565b8015611bd45780601f10611ba957610100808354040283529160200191611bd4565b820191906000526020600020905b815481529060010190602001808311611bb757829003601f168201915b50505050508152602001600482018054611bed906147cf565b80601f0160208091040260200160405190810160405280929190818152602001828054611c19906147cf565b8015611c665780601f10611c3b57610100808354040283529160200191611c66565b820191906000526020600020905b815481529060010190602001808311611c4957829003601f168201915b50505050508152602001600582018054611c7f906147cf565b80601f0160208091040260200160405190810160405280929190818152602001828054611cab906147cf565b8015611cf85780601f10611ccd57610100808354040283529160200191611cf8565b820191906000526020600020905b815481529060010190602001808311611cdb57829003601f168201915b50505050508152602001600682018054611d11906147cf565b80601f0160208091040260200160405190810160405280929190818152602001828054611d3d906147cf565b8015611d8a5780601f10611d5f57610100808354040283529160200191611d8a565b820191906000526020600020905b815481529060010190602001808311611d6d57829003601f168201915b50505050508152602001600782018054611da3906147cf565b80601f0160208091040260200160405190810160405280929190818152602001828054611dcf906147cf565b8015611e1c5780601f10611df157610100808354040283529160200191611e1c565b820191906000526020600020905b815481529060010190602001808311611dff57829003601f168201915b505050505081526020016008820160009054906101000a900473ffffffffffffffffffffffffffffffffffffffff1673ffffffffffffffffffffffffffffffffffffffff1673ffffffffffffffffffffffffffffffffffffffff1681525050905080600001519850806020015197508060400151965080606001519550806080015194508060a0015193508060c0015192508060e00151915050919395975091939597565b6060600060606000806000600187604051611edc919061413f565b90815260200160405180910390206004015414158015611f1e57506000600187604051611f09919061413f565b90815260200160405180910390206003015414155b611f5d576040517f08c379a0000000000000000000000000000000000000000000000000000000008152600401611f5490614433565b60405180910390fd5b6000600187604051611f6f919061413f565b908152602001604051809103902060405180610200016040529081600082018054611f99906147cf565b80601f0160208091040260200160405190810160405280929190818152602001828054611fc5906147cf565b80156120125780601f10611fe757610100808354040283529160200191612012565b820191906000526020600020905b815481529060010190602001808311611ff557829003601f168201915b5050505050815260200160018201805461202b906147cf565b80601f0160208091040260200160405190810160405280929190818152602001828054612057906147cf565b80156120a45780601f10612079576101008083540402835291602001916120a4565b820191906000526020600020905b81548152906001019060200180831161208757829003601f168201915b505050505081526020016002820180546120bd906147cf565b80601f01602080910402602001604051908101604052809291908181526020018280546120e9906147cf565b80156121365780601f1061210b57610100808354040283529160200191612136565b820191906000526020600020905b81548152906001019060200180831161211957829003601f168201915b5050505050815260200160038201548152602001600482015481526020016005820160009054906101000a900473ffffffffffffffffffffffffffffffffffffffff1673ffffffffffffffffffffffffffffffffffffffff1673ffffffffffffffffffffffffffffffffffffffff1681526020016005820160149054906101000a900460ff161515151581526020016006820180546121d4906147cf565b80601f0160208091040260200160405190810160405280929190818152602001828054612200906147cf565b801561224d5780601f106122225761010080835404028352916020019161224d565b820191906000526020600020905b81548152906001019060200180831161223057829003601f168201915b5050505050815260200160078201548152602001600882018054612270906147cf565b80601f016020809104026020016040519081016040528092919081815260200182805461229c906147cf565b80156122e95780601f106122be576101008083540402835291602001916122e9565b820191906000526020600020905b8154815290600101906020018083116122cc57829003601f168201915b5050505050815260200160098201548152602001600a8201548152602001600b820160009054906101000a900460ff16151515158152602001600b820160019054906101000a900473ffffffffffffffffffffffffffffffffffffffff1673ffffffffffffffffffffffffffffffffffffffff1673ffffffffffffffffffffffffffffffffffffffff168152602001600b820160159054906101000a900460ff16600381111561239c5761239b614914565b5b60038111156123ae576123ad614914565b5b8152602001600c820180546123c2906147cf565b80601f01602080910402602001604051908101604052809291908181526020018280546123ee906147cf565b801561243b5780601f106124105761010080835404028352916020019161243b565b820191906000526020600020905b81548152906001019060200180831161241e57829003601f168201915b50505050508152505090508060e0015195508061010001519450806101200151935080610140015192508060c0015191505091939590929450565b600081604051602001612489919061413f565b60405160208183030381529060405280519060200120836040516020016124b0919061413f565b6040516020818303038152906040528051906020012014905092915050565b60003373ffffffffffffffffffffffffffffffffffffffff166005836040516124f8919061413f565b908152602001604051809103902060000160009054906101000a900473ffffffffffffffffffffffffffffffffffffffff1673ffffffffffffffffffffffffffffffffffffffff16148061259957503373ffffffffffffffffffffffffffffffffffffffff16600360009054906101000a900473ffffffffffffffffffffffffffffffffffffffff1673ffffffffffffffffffffffffffffffffffffffff16145b6125d8576040517f08c379a00000000000000000000000000000000000000000000000000000000081526004016125cf90614493565b60405180910390fd5b60006001886040516125ea919061413f565b9081526020016040518091039020600401541415801561262c57506000600188604051612617919061413f565b90815260200160405180910390206003015414155b61266b576040517f08c379a000000000000000000000000000000000000000000000000000000000815260040161266290614433565b60405180910390fd5b8560018860405161267c919061413f565b908152602001604051809103902060060190805190602001906126a092919061358e565b50846001886040516126b2919061413f565b908152602001604051809103902060070181905550836001886040516126d8919061413f565b908152602001604051809103902060080190805190602001906126fc92919061358e565b508260018860405161270e919061413f565b90815260200160405180910390206009018190555061273c8660405180602001604052806000815250612476565b801561275d575061275c8460405180602001604052806000815250612476565b5b61279f5760018088604051612772919061413f565b908152602001604051809103902060050160146101000a81548160ff0219169083151502179055506127da565b60006001886040516127b1919061413f565b908152602001604051809103902060050160146101000a81548160ff0219169083151502179055505b600190509695505050505050565b6060806060600080600080600080600080600060018d60405161280b919061413f565b908152602001604051809103902060405180610200016040529081600082018054612835906147cf565b80601f0160208091040260200160405190810160405280929190818152602001828054612861906147cf565b80156128ae5780601f10612883576101008083540402835291602001916128ae565b820191906000526020600020905b81548152906001019060200180831161289157829003601f168201915b505050505081526020016001820180546128c7906147cf565b80601f01602080910402602001604051908101604052809291908181526020018280546128f3906147cf565b80156129405780601f1061291557610100808354040283529160200191612940565b820191906000526020600020905b81548152906001019060200180831161292357829003601f168201915b50505050508152602001600282018054612959906147cf565b80601f0160208091040260200160405190810160405280929190818152602001828054612985906147cf565b80156129d25780601f106129a7576101008083540402835291602001916129d2565b820191906000526020600020905b8154815290600101906020018083116129b557829003601f168201915b5050505050815260200160038201548152602001600482015481526020016005820160009054906101000a900473ffffffffffffffffffffffffffffffffffffffff1673ffffffffffffffffffffffffffffffffffffffff1673ffffffffffffffffffffffffffffffffffffffff1681526020016005820160149054906101000a900460ff16151515158152602001600682018054612a70906147cf565b80601f0160208091040260200160405190810160405280929190818152602001828054612a9c906147cf565b8015612ae95780601f10612abe57610100808354040283529160200191612ae9565b820191906000526020600020905b815481529060010190602001808311612acc57829003601f168201915b5050505050815260200160078201548152602001600882018054612b0c906147cf565b80601f0160208091040260200160405190810160405280929190818152602001828054612b38906147cf565b8015612b855780601f10612b5a57610100808354040283529160200191612b85565b820191906000526020600020905b815481529060010190602001808311612b6857829003601f168201915b5050505050815260200160098201548152602001600a8201548152602001600b820160009054906101000a900460ff16151515158152602001600b820160019054906101000a900473ffffffffffffffffffffffffffffffffffffffff1673ffffffffffffffffffffffffffffffffffffffff1673ffffffffffffffffffffffffffffffffffffffff168152602001600b820160159054906101000a900460ff166003811115612c3857612c37614914565b5b6003811115612c4a57612c49614914565b5b8152602001600c82018054612c5e906147cf565b80601f0160208091040260200160405190810160405280929190818152602001828054612c8a906147cf565b8015612cd75780601f10612cac57610100808354040283529160200191612cd7565b820191906000526020600020905b815481529060010190602001808311612cba57829003601f168201915b50505050508152505090506000816080015114158015612cfc57506000816060015114155b612d3b576040517f08c379a0000000000000000000000000000000000000000000000000000000008152600401612d3290614433565b60405180910390fd5b80600001519b5080602001519a508060400151995080606001519850806080015197508060a00151965080610160015195508061018001519450806101a001519350806101c0015192508060c0015191505091939597999b90929496989a50565b6000600582604051612dae919061413f565b908152602001604051809103902060000160009054906101000a900473ffffffffffffffffffffffffffffffffffffffff169050919050565b600380811115612dfa57612df9614914565b5b600182604051612e0a919061413f565b9081526020016040518091039020600b0160159054906101000a900460ff166003811115612e3b57612e3a614914565b5b14612e4557600080fd5b600a600182604051612e57919061413f565b9081526020016040518091039020600a0154612e739190614642565b600182604051612e83919061413f565b9081526020016040518091039020600a0154612e9f91906145b5565b341015612eab57600080fd5b600181604051612ebb919061413f565b908152602001604051809103902060050160009054906101000a900473ffffffffffffffffffffffffffffffffffffffff1673ffffffffffffffffffffffffffffffffffffffff166108fc600183604051612f16919061413f565b9081526020016040518091039020600a01549081150290604051600060405180830381858888f19350505050158015612f53573d6000803e3d6000fd5b50612f9f600182604051612f67919061413f565b908152602001604051809103902060050160009054906101000a900473ffffffffffffffffffffffffffffffffffffffff16826133e6565b33600182604051612fb0919061413f565b908152602001604051809103902060050160006101000a81548173ffffffffffffffffffffffffffffffffffffffff021916908373ffffffffffffffffffffffffffffffffffffffff1602179055506000600182604051613011919061413f565b9081526020016040518091039020600b0160006101000a81548160ff021916908315150217905550600060018260405161304b919061413f565b9081526020016040518091039020600b0160016101000a81548173ffffffffffffffffffffffffffffffffffffffff021916908373ffffffffffffffffffffffffffffffffffffffff16021790555060006001826040516130ac919061413f565b9081526020016040518091039020600b0160156101000a81548160ff021916908360038111156130df576130de614914565b5b0217905550600660003373ffffffffffffffffffffffffffffffffffffffff1673ffffffffffffffffffffffffffffffffffffffff1681526020019081526020016000206000018190806001815401808255809150506001900390600052602060002001600090919091909150908051906020019061315f92919061358e565b5050565b6060600282604051613175919061413f565b9081526020016040518091039020600001805480602002602001604051908101604052809291908181526020016000905b828210156132525783829060005260206000200180546131c5906147cf565b80601f01602080910402602001604051908101604052809291908181526020018280546131f1906147cf565b801561323e5780601f106132135761010080835404028352916020019161323e565b820191906000526020600020905b81548152906001019060200180831161322157829003601f168201915b5050505050815260200190600101906131a6565b505050509050919050565b606060008214156132a5576040518060400160405280600181526020017f300000000000000000000000000000000000000000000000000000000000000081525090506133e1565b600082905060005b600082146132d75780806132c090614832565b915050600a826132d09190614642565b91506132ad565b60008167ffffffffffffffff8111156132f3576132f26149d0565b5b6040519080825280601f01601f1916602001820160405280156133255781602001600182028036833780820191505090505b50905060008290505b600086146133d95760018161334391906146cd565b90506000600a80886133559190614642565b61335f9190614673565b8761336a91906146cd565b6030613376919061460b565b905060008160f81b905080848481518110613394576133936149a1565b5b60200101907effffffffffffffffffffffffffffffffffffffffffffffffffffffffffffff1916908160001a905350600a886133d09190614642565b9750505061332e565b819450505050505b919050565b60006133f28284610b33565b9050600660008473ffffffffffffffffffffffffffffffffffffffff1673ffffffffffffffffffffffffffffffffffffffff1681526020019081526020016000206000016001600660008673ffffffffffffffffffffffffffffffffffffffff1673ffffffffffffffffffffffffffffffffffffffff1681526020019081526020016000206000018054905061348891906146cd565b81548110613499576134986149a1565b5b90600052602060002001600660008573ffffffffffffffffffffffffffffffffffffffff1673ffffffffffffffffffffffffffffffffffffffff16815260200190815260200160002060000182815481106134f7576134f66149a1565b5b9060005260206000200190805461350d906147cf565b613518929190613614565b50600660008473ffffffffffffffffffffffffffffffffffffffff1673ffffffffffffffffffffffffffffffffffffffff16815260200190815260200160002060000180548061356b5761356a614972565b5b60019003818190600052602060002001600061358791906136a1565b9055505050565b82805461359a906147cf565b90600052602060002090601f0160209004810192826135bc5760008555613603565b82601f106135d557805160ff1916838001178555613603565b82800160010185558215613603579182015b828111156136025782518255916020019190600101906135e7565b5b50905061361091906136e1565b5090565b828054613620906147cf565b90600052602060002090601f0160209004810192826136425760008555613690565b82601f106136535780548555613690565b8280016001018555821561369057600052602060002091601f016020900482015b8281111561368f578254825591600101919060010190613674565b5b50905061369d91906136e1565b5090565b5080546136ad906147cf565b6000825580601f106136bf57506136de565b601f0160209004906000526020600020908101906136dd91906136e1565b5b50565b5b808211156136fa5760008160009055506001016136e2565b5090565b600061371161370c846144f3565b6144ce565b90508281526020810184848401111561372d5761372c614a04565b5b61373884828561478d565b509392505050565b60008135905061374f81614b51565b92915050565b60008135905061376481614b68565b92915050565b60008135905061377981614b7f565b92915050565b600082601f830112613794576137936149ff565b5b81356137a48482602086016136fe565b91505092915050565b6000813590506137bc81614b8f565b92915050565b6000602082840312156137d8576137d7614a0e565b5b60006137e684828501613740565b91505092915050565b6000806000806080858703121561380957613808614a0e565b5b600061381787828801613740565b945050602085013567ffffffffffffffff81111561383857613837614a09565b5b6138448782880161377f565b935050604085013567ffffffffffffffff81111561386557613864614a09565b5b6138718782880161377f565b925050606085013567ffffffffffffffff81111561389257613891614a09565b5b61389e8782880161377f565b91505092959194509250565b6000602082840312156138c0576138bf614a0e565b5b600082013567ffffffffffffffff8111156138de576138dd614a09565b5b6138ea8482850161377f565b91505092915050565b6000806040838503121561390a57613909614a0e565b5b600083013567ffffffffffffffff81111561392857613927614a09565b5b6139348582860161377f565b925050602061394585828601613740565b9150509250929050565b6000806040838503121561396657613965614a0e565b5b600083013567ffffffffffffffff81111561398457613983614a09565b5b6139908582860161377f565b92505060206139a18582860161376a565b9150509250929050565b600080604083850312156139c2576139c1614a0e565b5b600083013567ffffffffffffffff8111156139e0576139df614a09565b5b6139ec8582860161377f565b925050602083013567ffffffffffffffff811115613a0d57613a0c614a09565b5b613a198582860161377f565b9150509250929050565b60008060008060808587031215613a3d57613a3c614a0e565b5b600085013567ffffffffffffffff811115613a5b57613a5a614a09565b5b613a678782880161377f565b945050602085013567ffffffffffffffff811115613a8857613a87614a09565b5b613a948782880161377f565b935050604085013567ffffffffffffffff811115613ab557613ab4614a09565b5b613ac18782880161377f565b9250506060613ad2878288016137ad565b91505092959194509250565b60008060008060008060c08789031215613afb57613afa614a0e565b5b600087013567ffffffffffffffff811115613b1957613b18614a09565b5b613b2589828a0161377f565b965050602087013567ffffffffffffffff811115613b4657613b45614a09565b5b613b5289828a0161377f565b955050604087013567ffffffffffffffff811115613b7357613b72614a09565b5b613b7f89828a0161377f565b9450506060613b9089828a016137ad565b9350506080613ba189828a016137ad565b92505060a0613bb289828a01613755565b9150509295509295509295565b6000806000806000806000806000806101408b8d031215613be357613be2614a0e565b5b60008b013567ffffffffffffffff811115613c0157613c00614a09565b5b613c0d8d828e0161377f565b9a505060208b013567ffffffffffffffff811115613c2e57613c2d614a09565b5b613c3a8d828e0161377f565b9950506040613c4b8d828e016137ad565b98505060608b013567ffffffffffffffff811115613c6c57613c6b614a09565b5b613c788d828e0161377f565b97505060808b013567ffffffffffffffff811115613c9957613c98614a09565b5b613ca58d828e0161377f565b96505060a08b013567ffffffffffffffff811115613cc657613cc5614a09565b5b613cd28d828e0161377f565b95505060c08b013567ffffffffffffffff811115613cf357613cf2614a09565b5b613cff8d828e0161377f565b94505060e08b013567ffffffffffffffff811115613d2057613d1f614a09565b5b613d2c8d828e0161377f565b9350506101008b013567ffffffffffffffff811115613d4e57613d4d614a09565b5b613d5a8d828e0161377f565b925050610120613d6c8d828e01613755565b9150509295989b9194979a5092959850565b60008060008060008060c08789031215613d9b57613d9a614a0e565b5b600087013567ffffffffffffffff811115613db957613db8614a09565b5b613dc589828a0161377f565b965050602087013567ffffffffffffffff811115613de657613de5614a09565b5b613df289828a0161377f565b9550506040613e0389828a016137ad565b945050606087013567ffffffffffffffff811115613e2457613e23614a09565b5b613e3089828a0161377f565b9350506080613e4189828a016137ad565b92505060a087013567ffffffffffffffff811115613e6257613e61614a09565b5b613e6e89828a0161377f565b9150509295509295509295565b6000613e878383613fb0565b905092915050565b613e9881614701565b82525050565b6000613ea982614549565b613eb3818561456c565b935083602082028501613ec585614524565b8060005b85811015613f015784840389528151613ee28582613e7b565b9450613eed8361455f565b925060208a01995050600181019050613ec9565b50829750879550505050505092915050565b613f1c81614725565b82525050565b60008154613f2f816147cf565b613f39818661457d565b94506001821660008114613f545760018114613f6557613f98565b60ff19831686528186019350613f98565b613f6e85614534565b60005b83811015613f9057815481890152600182019150602081019050613f71565b838801955050505b50505092915050565b613faa8161477b565b82525050565b6000613fbb82614554565b613fc58185614588565b9350613fd581856020860161479c565b613fde81614a13565b840191505092915050565b6000613ff482614554565b613ffe8185614599565b935061400e81856020860161479c565b61401781614a13565b840191505092915050565b600061402d82614554565b61403781856145aa565b935061404781856020860161479c565b80840191505092915050565b6000614060601a83614599565b915061406b82614a24565b602082019050919050565b6000614083601c83614599565b915061408e82614a4d565b602082019050919050565b60006140a6602183614599565b91506140b182614a76565b604082019050919050565b60006140c9601c83614599565b91506140d482614ac5565b602082019050919050565b60006140ec603283614599565b91506140f782614aee565b604082019050919050565b61410b81614764565b82525050565b61412261411d82614764565b61487b565b82525050565b60006141348284613f22565b915081905092915050565b600061414b8284614022565b915081905092915050565b60006141628287614022565b915061416e8286614022565b915061417a8285614022565b91506141868284614111565b60208201915081905095945050505050565b60006020820190506141ad6000830184613e8f565b92915050565b600060a0820190506141c86000830188613e8f565b6141d56020830187614102565b6141e26040830186613f13565b6141ef6060830185613e8f565b6141fc6080830184613fa1565b9695505050505050565b600060208201905081810360008301526142208184613e9e565b905092915050565b600060208201905061423d6000830184613f13565b92915050565b600061016082019050818103600083015261425e818e613fe9565b90508181036020830152614272818d613fe9565b90508181036040830152614286818c613fe9565b9050614295606083018b614102565b6142a2608083018a614102565b6142af60a0830189613e8f565b6142bc60c0830188614102565b6142c960e0830187613f13565b6142d7610100830186613e8f565b6142e5610120830185613fa1565b6142f3610140830184613f13565b9c9b505050505050505050505050565b600061010082019050818103600083015261431e818b613fe9565b90508181036020830152614332818a613fe9565b90506143416040830189614102565b81810360608301526143538188613fe9565b905081810360808301526143678187613fe9565b905081810360a083015261437b8186613fe9565b905081810360c083015261438f8185613fe9565b905081810360e08301526143a38184613fe9565b90509998505050505050505050565b600060a08201905081810360008301526143cc8188613fe9565b90506143db6020830187614102565b81810360408301526143ed8186613fe9565b90506143fc6060830185614102565b6144096080830184613f13565b9695505050505050565b6000602082019050818103600083015261442c81614053565b9050919050565b6000602082019050818103600083015261444c81614076565b9050919050565b6000602082019050818103600083015261446c81614099565b9050919050565b6000602082019050818103600083015261448c816140bc565b9050919050565b600060208201905081810360008301526144ac816140df565b9050919050565b60006020820190506144c86000830184614102565b92915050565b60006144d86144e9565b90506144e48282614801565b919050565b6000604051905090565b600067ffffffffffffffff82111561450e5761450d6149d0565b5b61451782614a13565b9050602081019050919050565b6000819050602082019050919050565b60008190508160005260206000209050919050565b600081519050919050565b600081519050919050565b6000602082019050919050565b600082825260208201905092915050565b600081905092915050565b600082825260208201905092915050565b600082825260208201905092915050565b600081905092915050565b60006145c082614764565b91506145cb83614764565b9250827fffffffffffffffffffffffffffffffffffffffffffffffffffffffffffffffff03821115614600576145ff6148b6565b5b828201905092915050565b60006146168261476e565b91506146218361476e565b92508260ff03821115614637576146366148b6565b5b828201905092915050565b600061464d82614764565b915061465883614764565b925082614668576146676148e5565b5b828204905092915050565b600061467e82614764565b915061468983614764565b9250817fffffffffffffffffffffffffffffffffffffffffffffffffffffffffffffffff04831182151516156146c2576146c16148b6565b5b828202905092915050565b60006146d882614764565b91506146e383614764565b9250828210156146f6576146f56148b6565b5b828203905092915050565b600061470c82614744565b9050919050565b600061471e82614744565b9050919050565b60008115159050919050565b600081905061473f82614b3d565b919050565b600073ffffffffffffffffffffffffffffffffffffffff82169050919050565b6000819050919050565b600060ff82169050919050565b600061478682614731565b9050919050565b82818337600083830152505050565b60005b838110156147ba57808201518184015260208101905061479f565b838111156147c9576000848401525b50505050565b600060028204905060018216806147e757607f821691505b602082108114156147fb576147fa614943565b5b50919050565b61480a82614a13565b810181811067ffffffffffffffff82111715614829576148286149d0565b5b80604052505050565b600061483d82614764565b91507fffffffffffffffffffffffffffffffffffffffffffffffffffffffffffffffff8214156148705761486f6148b6565b5b600182019050919050565b6000819050919050565b600061489082614764565b915061489b83614764565b9250826148ab576148aa6148e5565b5b828206905092915050565b7f4e487b7100000000000000000000000000000000000000000000000000000000600052601160045260246000fd5b7f4e487b7100000000000000000000000000000000000000000000000000000000600052601260045260246000fd5b7f4e487b7100000000000000000000000000000000000000000000000000000000600052602160045260246000fd5b7f4e487b7100000000000000000000000000000000000000000000000000000000600052602260045260246000fd5b7f4e487b7100000000000000000000000000000000000000000000000000000000600052603160045260246000fd5b7f4e487b7100000000000000000000000000000000000000000000000000000000600052603260045260246000fd5b7f4e487b7100000000000000000000000000000000000000000000000000000000600052604160045260246000fd5b600080fd5b600080fd5b600080fd5b600080fd5b6000601f19601f8301169050919050565b7f54686973206f776e657220646f6573206e6f742065786973742e000000000000600082015250565b7f4e6f206c616e6420776974682074686973204944206578697374732e00000000600082015250565b7f4c616e642077697468207468697320494420616c72656164792065786973747360008201527f2e00000000000000000000000000000000000000000000000000000000000000602082015250565b7f54686973206163636f756e7420616c7265616479206578697374732e00000000600082015250565b7f4f6e6c792061646d696e732061726520616c6c6f77656420746f20706572666f60008201527f726d2074686973206f7065726174696f6e2e0000000000000000000000000000602082015250565b60048110614b4e57614b4d614914565b5b50565b614b5a81614701565b8114614b6557600080fd5b50565b614b7181614713565b8114614b7c57600080fd5b50565b60048110614b8c57600080fd5b50565b614b9881614764565b8114614ba357600080fd5b5056fea2646970667358221220c8462ee408bbb9a2b0ef71bd03470aa5b72fe25aa13086417e26b714e495a35164736f6c63430008060033",
  "immutableReferences": {},
  "source": "// SPDX-License-Identifier: MIT\r\n\r\npragma solidity >=0.5.1 <= 0.8.6;\r\n\r\ncontract LandReg{\r\n    address superAdmin;\r\n\r\n    struct landDetails{\r\n        string state;\r\n        string district;\r\n        string cadzone;\r\n        uint256 plotNumber;\r\n        uint256 plotSize;  // * 4 decimal places\r\n        address payable currentOwner;\r\n        bool isCertified;\r\n        // Land Documents\r\n        string cofo;\r\n        uint cofoDate;\r\n        string rofoHash;\r\n        uint rofoDate;\r\n        // Buy and sell\r\n        uint marketValue;\r\n        bool isAvailable;\r\n        address requester;\r\n        reqStatus requestStatus; \r\n        string id;\r\n    }\r\n\r\n    struct ownerDetails {\r\n        string name;\r\n        string gender;\r\n        uint dob;\r\n        string ownerAddress;\r\n        string phone1;\r\n        string phone2;\r\n        string NIN;\r\n        string email;\r\n        address payable wAddress;\r\n    }\r\n\r\n    struct adminDetails {\r\n        string name;\r\n        string state;\r\n        string district;\r\n    }\r\n    struct adminState {\r\n        address adminAddress;\r\n    }\r\n\r\n    //request status\r\n    enum reqStatus { Default, pending, reject, approved }\r\n\r\n    //profile of a client\r\n    struct profiles{\r\n        string[] assetList;   \r\n    }\r\n\r\n    struct landState {\r\n        string[] ids;\r\n    }\r\n\r\n    mapping(string => landDetails) lands;\r\n    mapping(string => landState) landStates; // Push land ids inside their respestive states\r\n    address owner;\r\n    mapping( address => adminDetails) admins;\r\n    mapping(string => adminState) adminStates;\r\n    mapping( address => profiles) profile;\r\n\r\n    mapping( address => ownerDetails ) owners;\r\n    \r\n    //contract owner\r\n    constructor() {\r\n        owner = msg.sender;\r\n        superAdmin = owner;\r\n    }\r\n\r\n    modifier onlyOwner {\r\n        require(msg.sender == owner);\r\n        _;\r\n    }\r\n    \r\n    //adding region admins\r\n    function addAdmin( address admin, string memory name, string memory state, string memory district ) onlyOwner public {\r\n        admins[admin].name = name;\r\n        admins[admin].state = state;\r\n        admins[admin].district = district;\r\n\r\n        adminStates[state].adminAddress = admin;\r\n    }\r\n\r\n    function getAdmin(string memory state) public view returns(address){\r\n        return adminStates[state].adminAddress;\r\n    }\r\n\r\n    //Registration of land details.\r\n    function registerLand(\r\n        string memory state,\r\n        string memory district,\r\n        string memory cadzone,\r\n        uint plotNumber,\r\n        uint plotSize,\r\n        address payable wAddress\r\n        ) public returns(bool) {\r\n        require(adminStates[state].adminAddress == msg.sender || owner == msg.sender, \"Only admins are allowed to perform this operation.\");\r\n        uint id_uint = computeId(state,district,cadzone,plotNumber);\r\n        string memory id = uint2str(id_uint);\r\n        // require(adminStates[state].adminAddress != msg.sender && owner != msg.sender, \"Only admins are allowed to perform this operation.\");\r\n        require(lands[id].plotSize == 0 && lands[id].plotNumber == 0, \"Land with this ID already exists.\");\r\n        lands[id].state = state;\r\n        lands[id].district = district;\r\n        lands[id].cadzone = cadzone;\r\n        \r\n        lands[id].plotNumber = plotNumber;\r\n        lands[id].plotSize = plotSize;\r\n        lands[id].currentOwner = wAddress;\r\n\r\n        lands[id].id = id;\r\n        landStates[state].ids.push(id);\r\n\r\n        profile[wAddress].assetList.push(id);\r\n        return true;\r\n    }\r\n\r\n    function uint2str(uint _i) internal pure returns (string memory _uintAsString) { \r\n        if (_i == 0) {\r\n            return \"0\";\r\n        }\r\n        uint j = _i;\r\n        uint len;\r\n        while (j != 0) {\r\n            len++;\r\n            j /= 10;\r\n        }\r\n        bytes memory bstr = new bytes(len);\r\n        uint k = len;\r\n        while (_i != 0) {\r\n            k = k-1;\r\n            uint8 temp = (48 + uint8(_i - _i / 10 * 10));\r\n            bytes1 b1 = bytes1(temp);\r\n            bstr[k] = b1;\r\n            _i /= 10;\r\n        }\r\n        return string(bstr);\r\n    }\r\n\r\n    function editLandDocuments(\r\n        string memory id,\r\n        string memory cofo,\r\n        uint cofoDate,\r\n        string memory rofoHash,\r\n        uint  rofoDate,\r\n        string memory stateOfAdmin\r\n    ) public returns (bool) {\r\n        require(adminStates[stateOfAdmin].adminAddress == msg.sender || owner == msg.sender, \"Only admins are allowed to perform this operation.\");\r\n        require(lands[id].plotSize != 0 && lands[id].plotNumber != 0, \"No land with this ID exists.\");\r\n\r\n        lands[id].cofo = cofo;\r\n        lands[id].cofoDate = cofoDate;\r\n        lands[id].rofoHash = rofoHash;\r\n        lands[id].rofoDate = rofoDate;\r\n\r\n        if(!(compareStrings(cofo, \"\") && compareStrings(rofoHash, \"\"))){\r\n            lands[id].isCertified = true;\r\n        }\r\n        else{\r\n            lands[id].isCertified = false;\r\n        }\r\n\r\n        return true;\r\n    }\r\n\r\n    function registerOwner(\r\n        string memory name,\r\n        string memory gender,\r\n        uint dob,\r\n        string memory ownerAddress,\r\n        string memory phone1,\r\n        string memory phone2,\r\n        string memory NIN,\r\n        string memory email,\r\n        string memory stateOfAdmin,\r\n        address payable wAddress\r\n    ) onlyOwner public returns (bool){\r\n        require(adminStates[stateOfAdmin].adminAddress == msg.sender || owner == msg.sender, \"Only admins are allowed to perform this operation.\");\r\n        bytes32 emptyHash = keccak256(\"\");\r\n        require( keccak256(bytes(owners[wAddress].NIN)) == emptyHash || keccak256(bytes(owners[wAddress].email)) == emptyHash, \"This account already exists.\");\r\n\r\n        owners[wAddress].name = name;\r\n        owners[wAddress].gender = gender;\r\n        owners[wAddress].dob = dob;\r\n        owners[wAddress].ownerAddress = ownerAddress;\r\n        owners[wAddress].phone1 = phone1;\r\n        owners[wAddress].phone2 = phone2;\r\n        owners[wAddress].NIN = NIN;\r\n        owners[wAddress].email = email;\r\n        owners[wAddress].wAddress = wAddress;\r\n\r\n        return true;\r\n    }\r\n\r\n    //to view details of land for the owner\r\n    function landInfoFull(string memory id) public view returns(\r\n        string memory state,\r\n        string memory district,\r\n        string memory cadzone,\r\n        uint plotNumber,\r\n        uint plotSize,\r\n        address currentOwner,\r\n        uint marketValue,\r\n        bool isAvailable,\r\n        address requester,\r\n        reqStatus requestStatus,\r\n        bool isCertified ){\r\n        landDetails memory lands_local = lands[id];\r\n        require(lands_local.plotSize != 0 && lands_local.plotNumber != 0, \"No land with this ID exists.\");\r\n        \r\n        state = lands_local.state;\r\n        district = lands_local.district;\r\n        cadzone = lands_local.cadzone;\r\n        plotNumber = lands_local.plotNumber;\r\n        plotSize = lands_local.plotSize;\r\n        currentOwner = lands_local.currentOwner;\r\n        marketValue = lands_local.marketValue;\r\n        isAvailable = lands_local.isAvailable;\r\n        requester = lands_local.requester;\r\n        requestStatus = lands_local.requestStatus;\r\n        isCertified = lands_local.isCertified;\r\n            \r\n    }\r\n\r\n    function ownerInfo(address wAddress) public view returns(\r\n        string memory name,\r\n        string memory gender,\r\n        uint dob,\r\n        string memory ownerAddress,\r\n        string memory phone1,\r\n        string memory phone2,\r\n        string memory NIN,\r\n        string memory email\r\n    ) {\r\n        require(!compareStrings(owners[wAddress].email, \"\"), \"This owner does not exist.\");\r\n        ownerDetails memory tmpOwner = owners[wAddress];\r\n        name = tmpOwner.name;\r\n        gender = tmpOwner.gender;\r\n        dob = tmpOwner.dob;\r\n        ownerAddress = tmpOwner.ownerAddress;\r\n        phone1 = tmpOwner.phone1;\r\n        phone2 = tmpOwner.phone2;\r\n        NIN = tmpOwner.NIN;\r\n        email = tmpOwner.email;\r\n\r\n    }\r\n\r\n    function landDocumentsInfo(\r\n        string memory id\r\n    ) public returns (\r\n        string memory cofo,\r\n        uint cofoDate,\r\n        string memory rofoHash,\r\n        uint  rofoDate,\r\n        bool isCertified\r\n        ) {\r\n        require(lands[id].plotSize != 0 && lands[id].plotNumber != 0, \"No land with this ID exists.\");\r\n\r\n        landDetails memory lands_local = lands[id];\r\n\r\n        // id = id;\r\n        cofo = lands_local.cofo;\r\n        cofoDate = lands_local.cofoDate;\r\n        rofoHash = lands_local.rofoHash;\r\n        rofoDate = lands_local.rofoDate;\r\n        isCertified = lands_local.isCertified;\r\n\r\n    }\r\n\r\n    function landInfoStates(string memory state) public view returns(string[] memory state_ids){\r\n        state_ids = landStates[state].ids;\r\n    }\r\n    \r\n    //to view details of land for the buyer\r\n    function landInfoBuyer(string memory id) public view returns(address,uint,bool,address,reqStatus){\r\n        return(lands[id].currentOwner, lands[id].marketValue, lands[id].isAvailable, lands[id].requester, lands[id].requestStatus);\r\n    }\r\n\r\n    // to compute id for a land.\r\n    function computeId(string memory state, string memory district, string memory cadzone, uint plotNumber) public pure returns(uint){\r\n        return uint(keccak256(abi.encodePacked(state, district, cadzone, plotNumber)))%10000000000000;\r\n    }\r\n\r\n    // view the assets of the owner represented by this address\r\n    function viewAssets(address wAddress)public view returns(string[] memory){\r\n        return (profile[wAddress].assetList);\r\n    }\r\n\r\n    //push a request to the land owner\r\n    function requstToLandOwner(string memory id) public {\r\n        require(lands[id].isAvailable);\r\n        lands[id].requester = msg.sender;\r\n        lands[id].isAvailable = false;\r\n        lands[id].requestStatus = reqStatus.pending; //changes the status to pending.\r\n    }\r\n\r\n    //viewing request for the lands\r\n    function viewRequest(string memory property)public view returns(address){\r\n        return(lands[property].requester);\r\n    }\r\n    //processing request for the land by accepting or rejecting\r\n    function processRequest(string memory property,reqStatus status) public {\r\n        require(lands[property].currentOwner == msg.sender);\r\n        lands[property].requestStatus = status;\r\n        if(status == reqStatus.reject){\r\n            lands[property].requester = address(0);\r\n            lands[property].requestStatus = reqStatus.Default;\r\n        }\r\n    }\r\n    //availing lands for sale.\r\n    function makeAvailable(string memory property)public{\r\n        require(lands[property].currentOwner == msg.sender);\r\n        lands[property].isAvailable=true;\r\n    } \r\n\r\n    //buying the approved property\r\n    function buyProperty(string memory property)public payable{\r\n        require(lands[property].requestStatus == reqStatus.approved);\r\n        require(msg.value >= (lands[property].marketValue+((lands[property].marketValue)/10)));\r\n        lands[property].currentOwner.transfer(lands[property].marketValue);\r\n        removeOwnership(lands[property].currentOwner,property);\r\n        lands[property].currentOwner=payable(msg.sender);\r\n        lands[property].isAvailable=false;\r\n        lands[property].requester = address(0);\r\n        lands[property].requestStatus = reqStatus.Default;\r\n        profile[msg.sender].assetList.push(property); //adds the property to the asset list of the new owner.\r\n        \r\n    }\r\n    //removing the ownership of seller for the lands. and it is called by the buyProperty function\r\n    function removeOwnership(address previousOwner,string memory id)private{\r\n        uint index = findId(id,previousOwner);\r\n        profile[previousOwner].assetList[index]=profile[previousOwner].assetList[profile[previousOwner].assetList.length-1];\r\n        profile[previousOwner].assetList.pop();\r\n    }\r\n    //for finding the index of a perticular id\r\n    function findId(string memory id,address user)public view returns(uint){\r\n        uint i;\r\n        for(i=0;i<profile[user].assetList.length;i++){\r\n            // if(profile[user].assetList[i] == id)\r\n            if(compareStrings(profile[user].assetList[i], id))\r\n                return i;\r\n        }\r\n        return i;\r\n    }\r\n\r\n    function compareStrings(string memory a, string memory b) public pure returns (bool) {\r\n        return (keccak256(abi.encodePacked((a))) == keccak256(abi.encodePacked((b))));\r\n    }\r\n}",
  "sourcePath": "C:/Mine/Sources/eth/SanniMSc/begin-real/contracts/LandReg.sol",
  "compiler": {
    "name": "solc",
    "version": "0.8.6+commit.11564f7e.Emscripten.clang"
  },
  "schemaVersion": "3.4.1",
  "updatedAt": "2021-09-01T21:46:34.922Z",
  "networkType": "ethereum",
  "devdoc": {
    "kind": "dev",
    "methods": {},
    "version": 1
  },
  "userdoc": {
    "kind": "user",
    "methods": {},
    "version": 1
  }
}