{
  "contractName": "LandReg",
  "abi": [
    {
      "inputs": [],
      "payable": false,
      "stateMutability": "nonpayable",
      "type": "constructor"
    },
    {
      "constant": false,
      "inputs": [
        {
          "internalType": "address",
          "name": "admin",
          "type": "address"
        },
        {
          "internalType": "string",
          "name": "region",
          "type": "string"
        }
      ],
      "name": "addAdmin",
      "outputs": [],
      "payable": false,
      "stateMutability": "nonpayable",
      "type": "function"
    },
    {
      "constant": false,
      "inputs": [
        {
          "internalType": "string",
          "name": "state",
          "type": "string"
        },
        {
          "internalType": "string",
          "name": "district",
          "type": "string"
        },
        {
          "internalType": "string",
          "name": "region",
          "type": "string"
        },
        {
          "internalType": "string",
          "name": "cadzone",
          "type": "string"
        },
        {
          "internalType": "address payable",
          "name": "ownerAddress",
          "type": "address"
        },
        {
          "internalType": "uint256",
          "name": "marketValue",
          "type": "uint256"
        },
        {
          "internalType": "uint256",
          "name": "id",
          "type": "uint256"
        }
      ],
      "name": "registerLand",
      "outputs": [
        {
          "internalType": "bool",
          "name": "",
          "type": "bool"
        }
      ],
      "payable": false,
      "stateMutability": "nonpayable",
      "type": "function"
    },
    {
      "constant": true,
      "inputs": [
        {
          "internalType": "string",
          "name": "name",
          "type": "string"
        },
        {
          "internalType": "string",
          "name": "gender",
          "type": "string"
        },
        {
          "internalType": "uint256",
          "name": "dob",
          "type": "uint256"
        },
        {
          "internalType": "string",
          "name": "ownerAddress",
          "type": "string"
        },
        {
          "internalType": "string",
          "name": "phone",
          "type": "string"
        }
      ],
      "name": "registerOwner",
      "outputs": [
        {
          "internalType": "bool",
          "name": "",
          "type": "bool"
        }
      ],
      "payable": false,
      "stateMutability": "view",
      "type": "function"
    },
    {
      "constant": true,
      "inputs": [
        {
          "internalType": "uint256",
          "name": "id",
          "type": "uint256"
        }
      ],
      "name": "landInfoOwner",
      "outputs": [
        {
          "internalType": "string",
          "name": "",
          "type": "string"
        },
        {
          "internalType": "string",
          "name": "",
          "type": "string"
        },
        {
          "internalType": "string",
          "name": "",
          "type": "string"
        },
        {
          "internalType": "bool",
          "name": "",
          "type": "bool"
        },
        {
          "internalType": "address",
          "name": "",
          "type": "address"
        },
        {
          "internalType": "enum LandReg.reqStatus",
          "name": "",
          "type": "uint8"
        }
      ],
      "payable": false,
      "stateMutability": "view",
      "type": "function"
    },
    {
      "constant": true,
      "inputs": [
        {
          "internalType": "uint256",
          "name": "id",
          "type": "uint256"
        }
      ],
      "name": "landInfoUser",
      "outputs": [
        {
          "internalType": "address",
          "name": "",
          "type": "address"
        },
        {
          "internalType": "uint256",
          "name": "",
          "type": "uint256"
        },
        {
          "internalType": "bool",
          "name": "",
          "type": "bool"
        },
        {
          "internalType": "address",
          "name": "",
          "type": "address"
        },
        {
          "internalType": "enum LandReg.reqStatus",
          "name": "",
          "type": "uint8"
        }
      ],
      "payable": false,
      "stateMutability": "view",
      "type": "function"
    },
    {
      "constant": true,
      "inputs": [
        {
          "internalType": "string",
          "name": "state",
          "type": "string"
        },
        {
          "internalType": "string",
          "name": "district",
          "type": "string"
        },
        {
          "internalType": "string",
          "name": "region",
          "type": "string"
        },
        {
          "internalType": "uint256",
          "name": "surveyNumber",
          "type": "uint256"
        }
      ],
      "name": "computeId",
      "outputs": [
        {
          "internalType": "uint256",
          "name": "",
          "type": "uint256"
        }
      ],
      "payable": false,
      "stateMutability": "pure",
      "type": "function"
    },
    {
      "constant": false,
      "inputs": [
        {
          "internalType": "uint256",
          "name": "id",
          "type": "uint256"
        }
      ],
      "name": "requstToLandOwner",
      "outputs": [],
      "payable": false,
      "stateMutability": "nonpayable",
      "type": "function"
    },
    {
      "constant": true,
      "inputs": [],
      "name": "viewAssets",
      "outputs": [
        {
          "internalType": "uint256[]",
          "name": "",
          "type": "uint256[]"
        }
      ],
      "payable": false,
      "stateMutability": "view",
      "type": "function"
    },
    {
      "constant": true,
      "inputs": [
        {
          "internalType": "uint256",
          "name": "property",
          "type": "uint256"
        }
      ],
      "name": "viewRequest",
      "outputs": [
        {
          "internalType": "address",
          "name": "",
          "type": "address"
        }
      ],
      "payable": false,
      "stateMutability": "view",
      "type": "function"
    },
    {
      "constant": false,
      "inputs": [
        {
          "internalType": "uint256",
          "name": "property",
          "type": "uint256"
        },
        {
          "internalType": "enum LandReg.reqStatus",
          "name": "status",
          "type": "uint8"
        }
      ],
      "name": "processRequest",
      "outputs": [],
      "payable": false,
      "stateMutability": "nonpayable",
      "type": "function"
    },
    {
      "constant": false,
      "inputs": [
        {
          "internalType": "uint256",
          "name": "property",
          "type": "uint256"
        }
      ],
      "name": "makeAvailable",
      "outputs": [],
      "payable": false,
      "stateMutability": "nonpayable",
      "type": "function"
    },
    {
      "constant": false,
      "inputs": [
        {
          "internalType": "uint256",
          "name": "property",
          "type": "uint256"
        }
      ],
      "name": "buyProperty",
      "outputs": [],
      "payable": true,
      "stateMutability": "payable",
      "type": "function"
    },
    {
      "constant": true,
      "inputs": [
        {
          "internalType": "uint256",
          "name": "id",
          "type": "uint256"
        },
        {
          "internalType": "address",
          "name": "user",
          "type": "address"
        }
      ],
      "name": "findId",
      "outputs": [
        {
          "internalType": "uint256",
          "name": "",
          "type": "uint256"
        }
      ],
      "payable": false,
      "stateMutability": "view",
      "type": "function"
    }
  ],
  "bytecode": "0x608060405234801561001057600080fd5b5033600260006101000a81548173ffffffffffffffffffffffffffffffffffffffff021916908373ffffffffffffffffffffffffffffffffffffffff160217905550600260009054906101000a900473ffffffffffffffffffffffffffffffffffffffff166000806101000a81548173ffffffffffffffffffffffffffffffffffffffff021916908373ffffffffffffffffffffffffffffffffffffffff1602179055506120f0806100c36000396000f3fe6080604052600436106100c25760003560e01c806387b054391161007f578063baa39e0511610059578063baa39e0514610a27578063c77e3d8414610a62578063d16856ca14610d11578063fdb10f5014610df9576100c2565b806387b054391461060a5780639d01485f146108e3578063a27664ee146109b8576100c2565b80630d2d5dca146100c75780631d50a6c41461013357806326e852501461034757806355d61952146103c25780636c5ed939146105a15780636fa830a6146105dc575b600080fd5b3480156100d357600080fd5b506100dc610e41565b6040518080602001828103825283818151815260200191508051906020019060200280838360005b8381101561011f578082015181840152602081019050610104565b505050509050019250505060405180910390f35b34801561013f57600080fd5b506103316004803603608081101561015657600080fd5b810190808035906020019064010000000081111561017357600080fd5b82018360208201111561018557600080fd5b803590602001918460018302840111640100000000831117156101a757600080fd5b91908080601f016020809104026020016040519081016040528093929190818152602001838380828437600081840152601f19601f8201169050808301925050505050505091929192908035906020019064010000000081111561020a57600080fd5b82018360208201111561021c57600080fd5b8035906020019184600183028401116401000000008311171561023e57600080fd5b91908080601f016020809104026020016040519081016040528093929190818152602001838380828437600081840152601f19601f820116905080830192505050505050509192919290803590602001906401000000008111156102a157600080fd5b8201836020820111156102b357600080fd5b803590602001918460018302840111640100000000831117156102d557600080fd5b91908080601f016020809104026020016040519081016040528093929190818152602001838380828437600081840152601f19601f82011690508083019250505050505050919291929080359060200190929190505050610ed9565b6040518082815260200191505060405180910390f35b34801561035357600080fd5b506103806004803603602081101561036a57600080fd5b8101908080359060200190929190505050611017565b604051808273ffffffffffffffffffffffffffffffffffffffff1673ffffffffffffffffffffffffffffffffffffffff16815260200191505060405180910390f35b3480156103ce57600080fd5b506103fb600480360360208110156103e557600080fd5b8101908080359060200190929190505050611057565b60405180806020018060200180602001871515151581526020018673ffffffffffffffffffffffffffffffffffffffff1673ffffffffffffffffffffffffffffffffffffffff16815260200185600381111561045357fe5b60ff16815260200184810384528a818151815260200191508051906020019080838360005b83811015610493578082015181840152602081019050610478565b50505050905090810190601f1680156104c05780820380516001836020036101000a031916815260200191505b50848103835289818151815260200191508051906020019080838360005b838110156104f95780820151818401526020810190506104de565b50505050905090810190601f1680156105265780820380516001836020036101000a031916815260200191505b50848103825288818151815260200191508051906020019080838360005b8381101561055f578082015181840152602081019050610544565b50505050905090810190601f16801561058c5780820380516001836020036101000a031916815260200191505b50995050505050505050505060405180910390f35b3480156105ad57600080fd5b506105da600480360360208110156105c457600080fd5b810190808035906020019092919050505061130b565b005b610608600480360360208110156105f257600080fd5b81019080803590602001909291905050506113f6565b005b34801561061657600080fd5b506108c9600480360360e081101561062d57600080fd5b810190808035906020019064010000000081111561064a57600080fd5b82018360208201111561065c57600080fd5b8035906020019184600183028401116401000000008311171561067e57600080fd5b91908080601f016020809104026020016040519081016040528093929190818152602001838380828437600081840152601f19601f820116905080830192505050505050509192919290803590602001906401000000008111156106e157600080fd5b8201836020820111156106f357600080fd5b8035906020019184600183028401116401000000008311171561071557600080fd5b91908080601f016020809104026020016040519081016040528093929190818152602001838380828437600081840152601f19601f8201169050808301925050505050505091929192908035906020019064010000000081111561077857600080fd5b82018360208201111561078a57600080fd5b803590602001918460018302840111640100000000831117156107ac57600080fd5b91908080601f016020809104026020016040519081016040528093929190818152602001838380828437600081840152601f19601f8201169050808301925050505050505091929192908035906020019064010000000081111561080f57600080fd5b82018360208201111561082157600080fd5b8035906020019184600183028401116401000000008311171561084357600080fd5b91908080601f016020809104026020016040519081016040528093929190818152602001838380828437600081840152601f19601f820116905080830192505050505050509192919290803573ffffffffffffffffffffffffffffffffffffffff16906020019092919080359060200190929190803590602001909291905050506116d4565b604051808215151515815260200191505060405180910390f35b3480156108ef57600080fd5b5061091c6004803603602081101561090657600080fd5b8101908080359060200190929190505050611986565b604051808673ffffffffffffffffffffffffffffffffffffffff1673ffffffffffffffffffffffffffffffffffffffff168152602001858152602001841515151581526020018373ffffffffffffffffffffffffffffffffffffffff1673ffffffffffffffffffffffffffffffffffffffff1681526020018260038111156109a057fe5b60ff1681526020019550505050505060405180910390f35b3480156109c457600080fd5b50610a11600480360360408110156109db57600080fd5b8101908080359060200190929190803573ffffffffffffffffffffffffffffffffffffffff169060200190929190505050611a71565b6040518082815260200191505060405180910390f35b348015610a3357600080fd5b50610a6060048036036020811015610a4a57600080fd5b8101908080359060200190929190505050611b46565b005b348015610a6e57600080fd5b50610cf7600480360360a0811015610a8557600080fd5b8101908080359060200190640100000000811115610aa257600080fd5b820183602082011115610ab457600080fd5b80359060200191846001830284011164010000000083111715610ad657600080fd5b91908080601f016020809104026020016040519081016040528093929190818152602001838380828437600081840152601f19601f82011690508083019250505050505050919291929080359060200190640100000000811115610b3957600080fd5b820183602082011115610b4b57600080fd5b80359060200191846001830284011164010000000083111715610b6d57600080fd5b91908080601f016020809104026020016040519081016040528093929190818152602001838380828437600081840152601f19601f8201169050808301925050505050505091929192908035906020019092919080359060200190640100000000811115610bda57600080fd5b820183602082011115610bec57600080fd5b80359060200191846001830284011164010000000083111715610c0e57600080fd5b91908080601f016020809104026020016040519081016040528093929190818152602001838380828437600081840152601f19601f82011690508083019250505050505050919291929080359060200190640100000000811115610c7157600080fd5b820183602082011115610c8357600080fd5b80359060200191846001830284011164010000000083111715610ca557600080fd5b91908080601f016020809104026020016040519081016040528093929190818152602001838380828437600081840152601f19601f820116905080830192505050505050509192919290505050611be5565b604051808215151515815260200191505060405180910390f35b348015610d1d57600080fd5b50610df760048036036040811015610d3457600080fd5b81019080803573ffffffffffffffffffffffffffffffffffffffff16906020019092919080359060200190640100000000811115610d7157600080fd5b820183602082011115610d8357600080fd5b80359060200191846001830284011164010000000083111715610da557600080fd5b91908080601f016020809104026020016040519081016040528093929190818152602001838380828437600081840152601f19601f820116905080830192505050505050509192919290505050611c4a565b005b348015610e0557600080fd5b50610e3f60048036036040811015610e1c57600080fd5b8101908080359060200190929190803560ff169060200190929190505050611d50565b005b6060600460003373ffffffffffffffffffffffffffffffffffffffff1673ffffffffffffffffffffffffffffffffffffffff168152602001908152602001600020600001805480602002602001604051908101604052809291908181526020018280548015610ecf57602002820191906000526020600020905b815481526020019060010190808311610ebb575b5050505050905090565b60006509184e72a000858585856040516020018085805190602001908083835b60208310610f1c5780518252602082019150602081019050602083039250610ef9565b6001836020036101000a03801982511681845116808217855250505050505090500184805190602001908083835b60208310610f6d5780518252602082019150602081019050602083039250610f4a565b6001836020036101000a03801982511681845116808217855250505050505090500183805190602001908083835b60208310610fbe5780518252602082019150602081019050602083039250610f9b565b6001836020036101000a0380198251168184511680821785525050505050509050018281526020019450505050506040516020818303038152906040528051906020012060001c8161100c57fe5b069050949350505050565b60006001600083815260200190815260200160002060080160019054906101000a900473ffffffffffffffffffffffffffffffffffffffff169050919050565b606080606060008060006001600088815260200190815260200160002060000160016000898152602001908152602001600020600101600160008a8152602001908152602001600020600401600160008b815260200190815260200160002060080160009054906101000a900460ff16600160008c815260200190815260200160002060080160019054906101000a900473ffffffffffffffffffffffffffffffffffffffff16600160008d815260200190815260200160002060080160159054906101000a900460ff16858054600181600116156101000203166002900480601f0160208091040260200160405190810160405280929190818152602001828054600181600116156101000203166002900480156111b75780601f1061118c576101008083540402835291602001916111b7565b820191906000526020600020905b81548152906001019060200180831161119a57829003601f168201915b50505050509550848054600181600116156101000203166002900480601f0160208091040260200160405190810160405280929190818152602001828054600181600116156101000203166002900480156112535780601f1061122857610100808354040283529160200191611253565b820191906000526020600020905b81548152906001019060200180831161123657829003601f168201915b50505050509450838054600181600116156101000203166002900480601f0160208091040260200160405190810160405280929190818152602001828054600181600116156101000203166002900480156112ef5780601f106112c4576101008083540402835291602001916112ef565b820191906000526020600020905b8154815290600101906020018083116112d257829003601f168201915b5050505050935095509550955095509550955091939550919395565b6001600082815260200190815260200160002060080160009054906101000a900460ff1661133857600080fd5b336001600083815260200190815260200160002060080160016101000a81548173ffffffffffffffffffffffffffffffffffffffff021916908373ffffffffffffffffffffffffffffffffffffffff16021790555060006001600083815260200190815260200160002060080160006101000a81548160ff021916908315150217905550600180600083815260200190815260200160002060080160156101000a81548160ff021916908360038111156113ee57fe5b021790555050565b60038081111561140257fe5b6001600083815260200190815260200160002060080160159054906101000a900460ff16600381111561143157fe5b1461143b57600080fd5b600a60016000838152602001908152602001600020600701548161145b57fe5b0460016000838152602001908152602001600020600701540134101561148057600080fd5b6001600082815260200190815260200160002060060160009054906101000a900473ffffffffffffffffffffffffffffffffffffffff1673ffffffffffffffffffffffffffffffffffffffff166108fc60016000848152602001908152602001600020600701549081150290604051600060405180830381858888f19350505050158015611512573d6000803e3d6000fd5b506115536001600083815260200190815260200160002060060160009054906101000a900473ffffffffffffffffffffffffffffffffffffffff1682611ea7565b336001600083815260200190815260200160002060060160006101000a81548173ffffffffffffffffffffffffffffffffffffffff021916908373ffffffffffffffffffffffffffffffffffffffff16021790555060006001600083815260200190815260200160002060080160006101000a81548160ff02191690831515021790555060006001600083815260200190815260200160002060080160016101000a81548173ffffffffffffffffffffffffffffffffffffffff021916908373ffffffffffffffffffffffffffffffffffffffff16021790555060006001600083815260200190815260200160002060080160156101000a81548160ff0219169083600381111561166057fe5b0217905550600460003373ffffffffffffffffffffffffffffffffffffffff1673ffffffffffffffffffffffffffffffffffffffff16815260200190815260200160002060000181908060018154018082558091505090600182039060005260206000200160009091929091909150555050565b60003373ffffffffffffffffffffffffffffffffffffffff166003876040518082805190602001908083835b602083106117235780518252602082019150602081019050602083039250611700565b6001836020036101000a038019825116818451168082178552505050505050905001915050908152602001604051809103902060009054906101000a900473ffffffffffffffffffffffffffffffffffffffff1673ffffffffffffffffffffffffffffffffffffffff1614806117e657503373ffffffffffffffffffffffffffffffffffffffff16600260009054906101000a900473ffffffffffffffffffffffffffffffffffffffff1673ffffffffffffffffffffffffffffffffffffffff16145b6117ef57600080fd5b87600160008481526020019081526020016000206000019080519060200190611819929190612016565b5086600160008481526020019081526020016000206001019080519060200190611844929190612016565b508560016000848152602001908152602001600020600401908051906020019061186f929190612016565b50836001600084815260200190815260200160002060060160006101000a81548173ffffffffffffffffffffffffffffffffffffffff021916908373ffffffffffffffffffffffffffffffffffffffff1602179055508260016000848152602001908152602001600020600701819055508460016000848152602001908152602001600020600201908051906020019061190a929190612016565b50600460008573ffffffffffffffffffffffffffffffffffffffff1673ffffffffffffffffffffffffffffffffffffffff16815260200190815260200160002060000182908060018154018082558091505090600182039060005260206000200160009091929091909150555060019050979650505050505050565b60008060008060006001600087815260200190815260200160002060060160009054906101000a900473ffffffffffffffffffffffffffffffffffffffff1660016000888152602001908152602001600020600701546001600089815260200190815260200160002060080160009054906101000a900460ff16600160008a815260200190815260200160002060080160019054906101000a900473ffffffffffffffffffffffffffffffffffffffff16600160008b815260200190815260200160002060080160159054906101000a900460ff168494509450945094509450945091939590929450565b600080600090505b600460008473ffffffffffffffffffffffffffffffffffffffff1673ffffffffffffffffffffffffffffffffffffffff16815260200190815260200160002060000180549050811015611b3b5783600460008573ffffffffffffffffffffffffffffffffffffffff1673ffffffffffffffffffffffffffffffffffffffff1681526020019081526020016000206000018281548110611b1457fe5b90600052602060002001541415611b2e5780915050611b40565b8080600101915050611a79565b809150505b92915050565b3373ffffffffffffffffffffffffffffffffffffffff166001600083815260200190815260200160002060060160009054906101000a900473ffffffffffffffffffffffffffffffffffffffff1673ffffffffffffffffffffffffffffffffffffffff1614611bb457600080fd5b600180600083815260200190815260200160002060080160006101000a81548160ff02191690831515021790555050565b6000600260009054906101000a900473ffffffffffffffffffffffffffffffffffffffff1673ffffffffffffffffffffffffffffffffffffffff163373ffffffffffffffffffffffffffffffffffffffff1614611c4157600080fd5b95945050505050565b600260009054906101000a900473ffffffffffffffffffffffffffffffffffffffff1673ffffffffffffffffffffffffffffffffffffffff163373ffffffffffffffffffffffffffffffffffffffff1614611ca457600080fd5b816003826040518082805190602001908083835b60208310611cdb5780518252602082019150602081019050602083039250611cb8565b6001836020036101000a038019825116818451168082178552505050505050905001915050908152602001604051809103902060006101000a81548173ffffffffffffffffffffffffffffffffffffffff021916908373ffffffffffffffffffffffffffffffffffffffff1602179055505050565b3373ffffffffffffffffffffffffffffffffffffffff166001600084815260200190815260200160002060060160009054906101000a900473ffffffffffffffffffffffffffffffffffffffff1673ffffffffffffffffffffffffffffffffffffffff1614611dbe57600080fd5b806001600084815260200190815260200160002060080160156101000a81548160ff02191690836003811115611df057fe5b021790555060026003811115611e0257fe5b816003811115611e0e57fe5b1415611ea35760006001600084815260200190815260200160002060080160016101000a81548173ffffffffffffffffffffffffffffffffffffffff021916908373ffffffffffffffffffffffffffffffffffffffff16021790555060006001600084815260200190815260200160002060080160156101000a81548160ff02191690836003811115611e9d57fe5b02179055505b5050565b6000611eb38284611a71565b9050600460008473ffffffffffffffffffffffffffffffffffffffff1673ffffffffffffffffffffffffffffffffffffffff1681526020019081526020016000206000016001600460008673ffffffffffffffffffffffffffffffffffffffff1673ffffffffffffffffffffffffffffffffffffffff168152602001908152602001600020600001805490500381548110611f4a57fe5b9060005260206000200154600460008573ffffffffffffffffffffffffffffffffffffffff1673ffffffffffffffffffffffffffffffffffffffff1681526020019081526020016000206000018281548110611fa257fe5b9060005260206000200181905550600460008473ffffffffffffffffffffffffffffffffffffffff1673ffffffffffffffffffffffffffffffffffffffff168152602001908152602001600020600001805480611ffb57fe5b60019003818190600052602060002001600090559055505050565b828054600181600116156101000203166002900490600052602060002090601f016020900481019282601f1061205757805160ff1916838001178555612085565b82800160010185558215612085579182015b82811115612084578251825591602001919060010190612069565b5b5090506120929190612096565b5090565b6120b891905b808211156120b457600081600090555060010161209c565b5090565b9056fea265627a7a723158209d5e099062492c2b3908d562c14caf7ce0a2678ade995aca2f9326266e9204ab64736f6c63430005100032",
  "source": "pragma solidity >=0.4.21 <0.7.4;\r\n\r\ncontract LandReg{\r\n    address superAdmin;\r\n\r\n    struct landDetails{\r\n        string state;\r\n        string district;\r\n        string cadzone;\r\n        uint256 plotNumber;\r\n        string region;\r\n        uint256 plotSize;  // * 4 decimal places\r\n        address payable currentOwner;\r\n        uint marketValue;\r\n        bool isAvailable;\r\n        address requester;\r\n        reqStatus requestStatus; \r\n    }\r\n\r\n    struct ownerDetails {\r\n        string name;\r\n        string gender;\r\n        uint dob;\r\n        string ownerAddress;\r\n        string phone;\r\n        string NIN;\r\n    }\r\n\r\n    //request status\r\n    enum reqStatus {Default,pending,reject,approved}\r\n\r\n    enum ownerType {organization, individual}\r\n\r\n    //profile of a client\r\n    struct profiles{\r\n        uint[] assetList;   \r\n    }\r\n\r\n    mapping( uint => landDetails ) lands;\r\n    address owner;\r\n    mapping( string => address) admins;\r\n    mapping( address => profiles) profile;\r\n\r\n    mapping( address => ownerDetails ) owners;\r\n    \r\n    //contract owner\r\n    constructor() public {\r\n        owner = msg.sender;\r\n        superAdmin = owner;\r\n    }\r\n\r\n    modifier onlyOwner {\r\n        require(msg.sender == owner);\r\n        _;\r\n    }\r\n    \r\n    //adding region admins\r\n    function addAdmin( address admin, string memory region ) onlyOwner public {\r\n        admins[region] = admin;\r\n    }\r\n    //Registration of land details.\r\n    function registerLand(\r\n        string memory state,\r\n        string memory district,\r\n        string memory region, \r\n        string memory cadzone,\r\n        address payable ownerAddress,\r\n        uint marketValue,\r\n        uint id\r\n        ) public returns(bool) {\r\n        require(admins[region] == msg.sender || owner == msg.sender);\r\n        lands[id].state = state;\r\n        lands[id].district = district;\r\n        lands[id].region = region;\r\n        lands[id].currentOwner = ownerAddress;\r\n        lands[id].marketValue = marketValue;\r\n        lands[id].cadzone = cadzone;\r\n        profile[ownerAddress].assetList.push(id);\r\n        return true;\r\n    }\r\n\r\n    function registerOwner(\r\n        string memory name,\r\n        string memory gender,\r\n        uint dob,\r\n        string memory ownerAddress,\r\n        string memory phone\r\n    ) onlyOwner public view returns (bool){\r\n        \r\n    }\r\n\r\n    //to view details of land for the owner\r\n    function landInfoOwner(uint id) public view returns(string memory,string memory,string memory,bool,address,reqStatus){\r\n        return(lands[id].state,lands[id].district,lands[id].region,lands[id].isAvailable,lands[id].requester,lands[id].requestStatus);\r\n    }\r\n    \r\n    //to view details of land for the buyer\r\n    function landInfoUser(uint id) public view returns(address,uint,bool,address,reqStatus){\r\n        return(lands[id].currentOwner,lands[id].marketValue,lands[id].isAvailable,lands[id].requester,lands[id].requestStatus);\r\n    }\r\n\r\n    // to compute id for a land.\r\n    function computeId(string memory state,string memory district,string memory region,uint surveyNumber) public pure returns(uint){\r\n        return uint(keccak256(abi.encodePacked(state,district,region,surveyNumber)))%10000000000000;\r\n    }\r\n\r\n    //push a request to the land owner\r\n    function requstToLandOwner(uint id) public {\r\n        require(lands[id].isAvailable);\r\n        lands[id].requester=msg.sender;\r\n        lands[id].isAvailable=false;\r\n        lands[id].requestStatus = reqStatus.pending; //changes the status to pending.\r\n    }\r\n    //will show assets of the function caller \r\n    function viewAssets()public view returns(uint[] memory){\r\n        return (profile[msg.sender].assetList);\r\n    }\r\n    //viewing request for the lands\r\n    function viewRequest(uint property)public view returns(address){\r\n        return(lands[property].requester);\r\n    }\r\n    //processing request for the land by accepting or rejecting\r\n    function processRequest(uint property,reqStatus status)public {\r\n        require(lands[property].currentOwner == msg.sender);\r\n        lands[property].requestStatus=status;\r\n        if(status == reqStatus.reject){\r\n            lands[property].requester = address(0);\r\n            lands[property].requestStatus = reqStatus.Default;\r\n        }\r\n    }\r\n    //availing lands for sale.\r\n    function makeAvailable(uint property)public{\r\n        require(lands[property].currentOwner == msg.sender);\r\n        lands[property].isAvailable=true;\r\n    } \r\n\r\n    //buying the approved property\r\n    function buyProperty(uint property)public payable{\r\n        require(lands[property].requestStatus == reqStatus.approved);\r\n        require(msg.value >= (lands[property].marketValue+((lands[property].marketValue)/10)));\r\n        lands[property].currentOwner.transfer(lands[property].marketValue);\r\n        removeOwnership(lands[property].currentOwner,property);\r\n        lands[property].currentOwner=msg.sender;\r\n        lands[property].isAvailable=false;\r\n        lands[property].requester = address(0);\r\n        lands[property].requestStatus = reqStatus.Default;\r\n        profile[msg.sender].assetList.push(property); //adds the property to the asset list of the new owner.\r\n        \r\n    }\r\n    //removing the ownership of seller for the lands. and it is called by the buyProperty function\r\n    function removeOwnership(address previousOwner,uint id)private{\r\n        uint index = findId(id,previousOwner);\r\n        profile[previousOwner].assetList[index]=profile[previousOwner].assetList[profile[previousOwner].assetList.length-1];\r\n        profile[previousOwner].assetList.pop();\r\n    }\r\n    //for finding the index of a perticular id\r\n    function findId(uint id,address user)public view returns(uint){\r\n        uint i;\r\n        for(i=0;i<profile[user].assetList.length;i++){\r\n            if(profile[user].assetList[i] == id)\r\n                return i;\r\n        }\r\n        return i;\r\n    }\r\n}",
  "sourcePath": "C:/Mine/Sources/eth/SanniMSc/begin/contracts/LandReg.sol",
  "compiler": {
    "name": "solc",
    "version": "0.5.16+commit.9c3226ce.Emscripten.clang"
  },
  "schemaVersion": "3.3.3",
  "updatedAt": "2021-01-28T12:18:53.279Z",
  "networkType": "ethereum",
  "devdoc": {
    "methods": {}
  },
  "userdoc": {
    "methods": {}
  }
}