{
  "contractName": "LandReg",
  "abi": [
    {
      "inputs": [],
      "stateMutability": "nonpayable",
      "type": "constructor"
    },
    {
      "inputs": [
        {
          "internalType": "address",
          "name": "admin",
          "type": "address"
        },
        {
          "internalType": "string",
          "name": "name",
          "type": "string"
        },
        {
          "internalType": "string",
          "name": "state",
          "type": "string"
        },
        {
          "internalType": "string",
          "name": "district",
          "type": "string"
        }
      ],
      "name": "addAdmin",
      "outputs": [],
      "stateMutability": "nonpayable",
      "type": "function"
    },
    {
      "inputs": [
        {
          "internalType": "string",
          "name": "state",
          "type": "string"
        }
      ],
      "name": "getAdmin",
      "outputs": [
        {
          "internalType": "address",
          "name": "",
          "type": "address"
        }
      ],
      "stateMutability": "view",
      "type": "function",
      "constant": true
    },
    {
      "inputs": [
        {
          "internalType": "string",
          "name": "state",
          "type": "string"
        },
        {
          "internalType": "string",
          "name": "district",
          "type": "string"
        },
        {
          "internalType": "string",
          "name": "cadzone",
          "type": "string"
        },
        {
          "internalType": "uint256",
          "name": "plotNumber",
          "type": "uint256"
        },
        {
          "internalType": "uint256",
          "name": "plotSize",
          "type": "uint256"
        },
        {
          "internalType": "address payable",
          "name": "wAddress",
          "type": "address"
        }
      ],
      "name": "registerLand",
      "outputs": [
        {
          "internalType": "bool",
          "name": "",
          "type": "bool"
        }
      ],
      "stateMutability": "nonpayable",
      "type": "function"
    },
    {
      "inputs": [
        {
          "internalType": "string",
          "name": "id",
          "type": "string"
        },
        {
          "internalType": "string",
          "name": "cofo",
          "type": "string"
        },
        {
          "internalType": "uint256",
          "name": "cofoDate",
          "type": "uint256"
        },
        {
          "internalType": "string",
          "name": "rofoHash",
          "type": "string"
        },
        {
          "internalType": "uint256",
          "name": "rofoDate",
          "type": "uint256"
        },
        {
          "internalType": "string",
          "name": "stateOfAdmin",
          "type": "string"
        }
      ],
      "name": "editLandDocuments",
      "outputs": [
        {
          "internalType": "bool",
          "name": "",
          "type": "bool"
        }
      ],
      "stateMutability": "nonpayable",
      "type": "function"
    },
    {
      "inputs": [
        {
          "internalType": "string",
          "name": "name",
          "type": "string"
        },
        {
          "internalType": "string",
          "name": "gender",
          "type": "string"
        },
        {
          "internalType": "uint256",
          "name": "dob",
          "type": "uint256"
        },
        {
          "internalType": "string",
          "name": "ownerAddress",
          "type": "string"
        },
        {
          "internalType": "string",
          "name": "phone1",
          "type": "string"
        },
        {
          "internalType": "string",
          "name": "phone2",
          "type": "string"
        },
        {
          "internalType": "string",
          "name": "NIN",
          "type": "string"
        },
        {
          "internalType": "string",
          "name": "email",
          "type": "string"
        },
        {
          "internalType": "string",
          "name": "stateOfAdmin",
          "type": "string"
        },
        {
          "internalType": "address payable",
          "name": "wAddress",
          "type": "address"
        }
      ],
      "name": "registerOwner",
      "outputs": [
        {
          "internalType": "bool",
          "name": "",
          "type": "bool"
        }
      ],
      "stateMutability": "nonpayable",
      "type": "function"
    },
    {
      "inputs": [
        {
          "internalType": "string",
          "name": "id",
          "type": "string"
        }
      ],
      "name": "landInfoFull",
      "outputs": [
        {
          "internalType": "string",
          "name": "",
          "type": "string"
        },
        {
          "internalType": "string",
          "name": "",
          "type": "string"
        },
        {
          "internalType": "string",
          "name": "",
          "type": "string"
        },
        {
          "internalType": "uint256",
          "name": "",
          "type": "uint256"
        },
        {
          "internalType": "uint256",
          "name": "",
          "type": "uint256"
        },
        {
          "internalType": "address",
          "name": "",
          "type": "address"
        },
        {
          "internalType": "uint256",
          "name": "",
          "type": "uint256"
        },
        {
          "internalType": "bool",
          "name": "",
          "type": "bool"
        },
        {
          "internalType": "address",
          "name": "",
          "type": "address"
        },
        {
          "internalType": "enum LandReg.reqStatus",
          "name": "",
          "type": "uint8"
        }
      ],
      "stateMutability": "view",
      "type": "function",
      "constant": true
    },
    {
      "inputs": [
        {
          "internalType": "string",
          "name": "state",
          "type": "string"
        }
      ],
      "name": "landInfoStates",
      "outputs": [
        {
          "internalType": "string[]",
          "name": "state_ids",
          "type": "string[]"
        }
      ],
      "stateMutability": "view",
      "type": "function",
      "constant": true
    },
    {
      "inputs": [
        {
          "internalType": "string",
          "name": "id",
          "type": "string"
        }
      ],
      "name": "landInfoBuyer",
      "outputs": [
        {
          "internalType": "address",
          "name": "",
          "type": "address"
        },
        {
          "internalType": "uint256",
          "name": "",
          "type": "uint256"
        },
        {
          "internalType": "bool",
          "name": "",
          "type": "bool"
        },
        {
          "internalType": "address",
          "name": "",
          "type": "address"
        },
        {
          "internalType": "enum LandReg.reqStatus",
          "name": "",
          "type": "uint8"
        }
      ],
      "stateMutability": "view",
      "type": "function",
      "constant": true
    },
    {
      "inputs": [
        {
          "internalType": "string",
          "name": "state",
          "type": "string"
        },
        {
          "internalType": "string",
          "name": "district",
          "type": "string"
        },
        {
          "internalType": "string",
          "name": "cadzone",
          "type": "string"
        },
        {
          "internalType": "uint256",
          "name": "plotNumber",
          "type": "uint256"
        }
      ],
      "name": "computeId",
      "outputs": [
        {
          "internalType": "uint256",
          "name": "",
          "type": "uint256"
        }
      ],
      "stateMutability": "pure",
      "type": "function",
      "constant": true
    },
    {
      "inputs": [
        {
          "internalType": "address",
          "name": "wAddress",
          "type": "address"
        }
      ],
      "name": "viewAssets",
      "outputs": [
        {
          "internalType": "string[]",
          "name": "",
          "type": "string[]"
        }
      ],
      "stateMutability": "view",
      "type": "function",
      "constant": true
    },
    {
      "inputs": [
        {
          "internalType": "string",
          "name": "id",
          "type": "string"
        }
      ],
      "name": "requstToLandOwner",
      "outputs": [],
      "stateMutability": "nonpayable",
      "type": "function"
    },
    {
      "inputs": [
        {
          "internalType": "string",
          "name": "property",
          "type": "string"
        }
      ],
      "name": "viewRequest",
      "outputs": [
        {
          "internalType": "address",
          "name": "",
          "type": "address"
        }
      ],
      "stateMutability": "view",
      "type": "function",
      "constant": true
    },
    {
      "inputs": [
        {
          "internalType": "string",
          "name": "property",
          "type": "string"
        },
        {
          "internalType": "enum LandReg.reqStatus",
          "name": "status",
          "type": "uint8"
        }
      ],
      "name": "processRequest",
      "outputs": [],
      "stateMutability": "nonpayable",
      "type": "function"
    },
    {
      "inputs": [
        {
          "internalType": "string",
          "name": "property",
          "type": "string"
        }
      ],
      "name": "makeAvailable",
      "outputs": [],
      "stateMutability": "nonpayable",
      "type": "function"
    },
    {
      "inputs": [
        {
          "internalType": "string",
          "name": "property",
          "type": "string"
        }
      ],
      "name": "buyProperty",
      "outputs": [],
      "stateMutability": "payable",
      "type": "function",
      "payable": true
    },
    {
      "inputs": [
        {
          "internalType": "string",
          "name": "id",
          "type": "string"
        },
        {
          "internalType": "address",
          "name": "user",
          "type": "address"
        }
      ],
      "name": "findId",
      "outputs": [
        {
          "internalType": "uint256",
          "name": "",
          "type": "uint256"
        }
      ],
      "stateMutability": "view",
      "type": "function",
      "constant": true
    },
    {
      "inputs": [
        {
          "internalType": "string",
          "name": "a",
          "type": "string"
        },
        {
          "internalType": "string",
          "name": "b",
          "type": "string"
        }
      ],
      "name": "compareStrings",
      "outputs": [
        {
          "internalType": "bool",
          "name": "",
          "type": "bool"
        }
      ],
      "stateMutability": "pure",
      "type": "function",
      "constant": true
    }
  ],
  "bytecode": "0x608060405234801561001057600080fd5b5033600360006101000a81548173ffffffffffffffffffffffffffffffffffffffff021916908373ffffffffffffffffffffffffffffffffffffffff160217905550600360009054906101000a900473ffffffffffffffffffffffffffffffffffffffff166000806101000a81548173ffffffffffffffffffffffffffffffffffffffff021916908373ffffffffffffffffffffffffffffffffffffffff160217905550613d02806100c36000396000f3fe6080604052600436106100fe5760003560e01c8063623f27c911610095578063d05f180d11610064578063d05f180d14610393578063d1d184b6146103d0578063e6d218d914610416578063ecbef16414610453578063f3dd44541461046f576100fe565b8063623f27c9146102b3578063886734f7146102f057806399b79dff1461032d578063bed34bba14610356576100fe565b80633f4b8f51116100d15780633f4b8f51146101cf57806340c785d2146102105780634ef3eb3c1461024d5780635e20bd4e14610276576100fe565b806303825d6c14610103578063086c435f1461012c5780631d50a6c414610155578063260d62c314610192575b600080fd5b34801561010f57600080fd5b5061012a60048036038101906101259190612aa0565b6104ac565b005b34801561013857600080fd5b50610153600480360381019061014e9190612c00565b610671565b005b34801561016157600080fd5b5061017c60048036038101906101779190612cd4565b610810565b6040516101899190613602565b60405180910390f35b34801561019e57600080fd5b506101b960048036038101906101b49190612a73565b61085d565b6040516101c69190613494565b60405180910390f35b3480156101db57600080fd5b506101f660048036038101906101f19190612b5b565b610978565b604051610207959493929190613441565b60405180910390f35b34801561021c57600080fd5b5061023760048036038101906102329190612ba4565b610a97565b6040516102449190613602565b60405180910390f35b34801561025957600080fd5b50610274600480360381019061026f9190612b5b565b610c08565b005b34801561028257600080fd5b5061029d60048036038101906102989190612e70565b610d26565b6040516102aa91906134b6565b60405180910390f35b3480156102bf57600080fd5b506102da60048036038101906102d59190612b5b565b6112e2565b6040516102e79190613426565b60405180910390f35b3480156102fc57600080fd5b5061031760048036038101906103129190612d8f565b61132d565b60405161032491906134b6565b60405180910390f35b34801561033957600080fd5b50610354600480360381019061034f9190612b5b565b61174f565b005b34801561036257600080fd5b5061037d60048036038101906103789190612c5c565b611804565b60405161038a91906134b6565b60405180910390f35b34801561039f57600080fd5b506103ba60048036038101906103b5919061302f565b61185d565b6040516103c791906134b6565b60405180910390f35b3480156103dc57600080fd5b506103f760048036038101906103f29190612b5b565b611abf565b60405161040d9a999897969594939291906134d1565b60405180910390f35b34801561042257600080fd5b5061043d60048036038101906104389190612b5b565b61204d565b60405161044a9190613426565b60405180910390f35b61046d60048036038101906104689190612b5b565b612098565b005b34801561047b57600080fd5b5061049660048036038101906104919190612b5b565b612414565b6040516104a39190613494565b60405180910390f35b600360009054906101000a900473ffffffffffffffffffffffffffffffffffffffff1673ffffffffffffffffffffffffffffffffffffffff163373ffffffffffffffffffffffffffffffffffffffff161461050657600080fd5b82600460008673ffffffffffffffffffffffffffffffffffffffff1673ffffffffffffffffffffffffffffffffffffffff168152602001908152602001600020600001908051906020019061055c92919061283f565b5081600460008673ffffffffffffffffffffffffffffffffffffffff1673ffffffffffffffffffffffffffffffffffffffff16815260200190815260200160002060010190805190602001906105b392919061283f565b5080600460008673ffffffffffffffffffffffffffffffffffffffff1673ffffffffffffffffffffffffffffffffffffffff168152602001908152602001600020600201908051906020019061060a92919061283f565b508360058360405161061c91906133cd565b908152602001604051809103902060000160006101000a81548173ffffffffffffffffffffffffffffffffffffffff021916908373ffffffffffffffffffffffffffffffffffffffff16021790555050505050565b3373ffffffffffffffffffffffffffffffffffffffff1660018360405161069891906133cd565b908152602001604051809103902060050160009054906101000a900473ffffffffffffffffffffffffffffffffffffffff1673ffffffffffffffffffffffffffffffffffffffff16146106ea57600080fd5b806001836040516106fb91906133cd565b9081526020016040518091039020600b0160156101000a81548160ff0219169083600381111561072e5761072d613a63565b5b02179055506002600381111561074757610746613a63565b5b81600381111561075a57610759613a63565b5b141561080c57600060018360405161077291906133cd565b9081526020016040518091039020600b0160016101000a81548173ffffffffffffffffffffffffffffffffffffffff021916908373ffffffffffffffffffffffffffffffffffffffff16021790555060006001836040516107d391906133cd565b9081526020016040518091039020600b0160156101000a81548160ff0219169083600381111561080657610805613a63565b5b02179055505b5050565b60006509184e72a0008585858560405160200161083094939291906133e4565b6040516020818303038152906040528051906020012060001c61085391906139d4565b9050949350505050565b6060600660008373ffffffffffffffffffffffffffffffffffffffff1673ffffffffffffffffffffffffffffffffffffffff168152602001908152602001600020600001805480602002602001604051908101604052809291908181526020016000905b8282101561096d5783829060005260206000200180546108e09061391e565b80601f016020809104026020016040519081016040528092919081815260200182805461090c9061391e565b80156109595780601f1061092e57610100808354040283529160200191610959565b820191906000526020600020905b81548152906001019060200180831161093c57829003601f168201915b5050505050815260200190600101906108c1565b505050509050919050565b600080600080600060018660405161099091906133cd565b908152602001604051809103902060050160009054906101000a900473ffffffffffffffffffffffffffffffffffffffff166001876040516109d291906133cd565b9081526020016040518091039020600a01546001886040516109f491906133cd565b9081526020016040518091039020600b0160009054906101000a900460ff16600189604051610a2391906133cd565b9081526020016040518091039020600b0160019054906101000a900473ffffffffffffffffffffffffffffffffffffffff1660018a604051610a6591906133cd565b9081526020016040518091039020600b0160159054906101000a900460ff169450945094509450945091939590929450565b600080600090505b600660008473ffffffffffffffffffffffffffffffffffffffff1673ffffffffffffffffffffffffffffffffffffffff16815260200190815260200160002060000180549050811015610bfd57610bdc600660008573ffffffffffffffffffffffffffffffffffffffff1673ffffffffffffffffffffffffffffffffffffffff1681526020019081526020016000206000018281548110610b4357610b42613af0565b5b906000526020600020018054610b589061391e565b80601f0160208091040260200160405190810160405280929190818152602001828054610b849061391e565b8015610bd15780601f10610ba657610100808354040283529160200191610bd1565b820191906000526020600020905b815481529060010190602001808311610bb457829003601f168201915b505050505085611804565b15610bea5780915050610c02565b8080610bf590613981565b915050610a9f565b809150505b92915050565b600181604051610c1891906133cd565b9081526020016040518091039020600b0160009054906101000a900460ff16610c4057600080fd5b33600182604051610c5191906133cd565b9081526020016040518091039020600b0160016101000a81548173ffffffffffffffffffffffffffffffffffffffff021916908373ffffffffffffffffffffffffffffffffffffffff1602179055506000600182604051610cb291906133cd565b9081526020016040518091039020600b0160006101000a81548160ff02191690831515021790555060018082604051610ceb91906133cd565b9081526020016040518091039020600b0160156101000a81548160ff02191690836003811115610d1e57610d1d613a63565b5b021790555050565b6000600360009054906101000a900473ffffffffffffffffffffffffffffffffffffffff1673ffffffffffffffffffffffffffffffffffffffff163373ffffffffffffffffffffffffffffffffffffffff1614610d8257600080fd5b3373ffffffffffffffffffffffffffffffffffffffff16600584604051610da991906133cd565b908152602001604051809103902060000160009054906101000a900473ffffffffffffffffffffffffffffffffffffffff1673ffffffffffffffffffffffffffffffffffffffff161480610e4a57503373ffffffffffffffffffffffffffffffffffffffff16600360009054906101000a900473ffffffffffffffffffffffffffffffffffffffff1673ffffffffffffffffffffffffffffffffffffffff16145b610e89576040517f08c379a0000000000000000000000000000000000000000000000000000000008152600401610e80906135e2565b60405180910390fd5b60007fc5d2460186f7233c927e7db2dcc703c0e500b653ca82273b7bfad8045d85a470905080600760008573ffffffffffffffffffffffffffffffffffffffff1673ffffffffffffffffffffffffffffffffffffffff168152602001908152602001600020600601604051610efe91906133b6565b60405180910390201480610f67575080600760008573ffffffffffffffffffffffffffffffffffffffff1673ffffffffffffffffffffffffffffffffffffffff168152602001908152602001600020600701604051610f5d91906133b6565b6040518091039020145b610fa6576040517f08c379a0000000000000000000000000000000000000000000000000000000008152600401610f9d906135c2565b60405180910390fd5b8b600760008573ffffffffffffffffffffffffffffffffffffffff1673ffffffffffffffffffffffffffffffffffffffff1681526020019081526020016000206000019080519060200190610ffc92919061283f565b508a600760008573ffffffffffffffffffffffffffffffffffffffff1673ffffffffffffffffffffffffffffffffffffffff168152602001908152602001600020600101908051906020019061105392919061283f565b5089600760008573ffffffffffffffffffffffffffffffffffffffff1673ffffffffffffffffffffffffffffffffffffffff1681526020019081526020016000206002018190555088600760008573ffffffffffffffffffffffffffffffffffffffff1673ffffffffffffffffffffffffffffffffffffffff16815260200190815260200160002060030190805190602001906110f192919061283f565b5087600760008573ffffffffffffffffffffffffffffffffffffffff1673ffffffffffffffffffffffffffffffffffffffff168152602001908152602001600020600401908051906020019061114892919061283f565b5086600760008573ffffffffffffffffffffffffffffffffffffffff1673ffffffffffffffffffffffffffffffffffffffff168152602001908152602001600020600501908051906020019061119f92919061283f565b5085600760008573ffffffffffffffffffffffffffffffffffffffff1673ffffffffffffffffffffffffffffffffffffffff16815260200190815260200160002060060190805190602001906111f692919061283f565b5084600760008573ffffffffffffffffffffffffffffffffffffffff1673ffffffffffffffffffffffffffffffffffffffff168152602001908152602001600020600701908051906020019061124d92919061283f565b5082600760008573ffffffffffffffffffffffffffffffffffffffff1673ffffffffffffffffffffffffffffffffffffffff16815260200190815260200160002060080160006101000a81548173ffffffffffffffffffffffffffffffffffffffff021916908373ffffffffffffffffffffffffffffffffffffffff16021790555060019150509a9950505050505050505050565b60006001826040516112f491906133cd565b9081526020016040518091039020600b0160019054906101000a900473ffffffffffffffffffffffffffffffffffffffff169050919050565b60003373ffffffffffffffffffffffffffffffffffffffff1660058860405161135691906133cd565b908152602001604051809103902060000160009054906101000a900473ffffffffffffffffffffffffffffffffffffffff1673ffffffffffffffffffffffffffffffffffffffff1614806113f757503373ffffffffffffffffffffffffffffffffffffffff16600360009054906101000a900473ffffffffffffffffffffffffffffffffffffffff1673ffffffffffffffffffffffffffffffffffffffff16145b611436576040517f08c379a000000000000000000000000000000000000000000000000000000000815260040161142d906135e2565b60405180910390fd5b600061144488888888610810565b905060006114518261250e565b9050600060018260405161146591906133cd565b9081526020016040518091039020600401541480156114a55750600060018260405161149191906133cd565b908152602001604051809103902060030154145b6114e4576040517f08c379a00000000000000000000000000000000000000000000000000000000081526004016114db906135a2565b60405180910390fd5b886001826040516114f591906133cd565b9081526020016040518091039020600001908051906020019061151992919061283f565b508760018260405161152b91906133cd565b9081526020016040518091039020600101908051906020019061154f92919061283f565b508660018260405161156191906133cd565b9081526020016040518091039020600201908051906020019061158592919061283f565b508560018260405161159791906133cd565b908152602001604051809103902060030181905550846001826040516115bd91906133cd565b908152602001604051809103902060040181905550836001826040516115e391906133cd565b908152602001604051809103902060050160006101000a81548173ffffffffffffffffffffffffffffffffffffffff021916908373ffffffffffffffffffffffffffffffffffffffff1602179055508060018260405161164391906133cd565b9081526020016040518091039020600c01908051906020019061166792919061283f565b5060028960405161167891906133cd565b9081526020016040518091039020600001819080600181540180825580915050600190039060005260206000200160009091909190915090805190602001906116c292919061283f565b50600660008573ffffffffffffffffffffffffffffffffffffffff1673ffffffffffffffffffffffffffffffffffffffff1681526020019081526020016000206000018190806001815401808255809150506001900390600052602060002001600090919091909150908051906020019061173e92919061283f565b506001925050509695505050505050565b3373ffffffffffffffffffffffffffffffffffffffff1660018260405161177691906133cd565b908152602001604051809103902060050160009054906101000a900473ffffffffffffffffffffffffffffffffffffffff1673ffffffffffffffffffffffffffffffffffffffff16146117c857600080fd5b600180826040516117d991906133cd565b9081526020016040518091039020600b0160006101000a81548160ff02191690831515021790555050565b60008160405160200161181791906133cd565b604051602081830303815290604052805190602001208360405160200161183e91906133cd565b6040516020818303038152906040528051906020012014905092915050565b60003373ffffffffffffffffffffffffffffffffffffffff1660058360405161188691906133cd565b908152602001604051809103902060000160009054906101000a900473ffffffffffffffffffffffffffffffffffffffff1673ffffffffffffffffffffffffffffffffffffffff16148061192757503373ffffffffffffffffffffffffffffffffffffffff16600360009054906101000a900473ffffffffffffffffffffffffffffffffffffffff1673ffffffffffffffffffffffffffffffffffffffff16145b611966576040517f08c379a000000000000000000000000000000000000000000000000000000000815260040161195d906135e2565b60405180910390fd5b600060018860405161197891906133cd565b908152602001604051809103902060040154141580156119ba575060006001886040516119a591906133cd565b90815260200160405180910390206003015414155b6119f9576040517f08c379a00000000000000000000000000000000000000000000000000000000081526004016119f090613582565b60405180910390fd5b85600188604051611a0a91906133cd565b90815260200160405180910390206006019080519060200190611a2e92919061283f565b5084600188604051611a4091906133cd565b90815260200160405180910390206007018190555083600188604051611a6691906133cd565b90815260200160405180910390206008019080519060200190611a8a92919061283f565b5082600188604051611a9c91906133cd565b908152602001604051809103902060090181905550600190509695505050505050565b606080606060008060008060008060008060018c604051611ae091906133cd565b9081526020016040518091039020604051806101e0016040529081600082018054611b0a9061391e565b80601f0160208091040260200160405190810160405280929190818152602001828054611b369061391e565b8015611b835780601f10611b5857610100808354040283529160200191611b83565b820191906000526020600020905b815481529060010190602001808311611b6657829003601f168201915b50505050508152602001600182018054611b9c9061391e565b80601f0160208091040260200160405190810160405280929190818152602001828054611bc89061391e565b8015611c155780601f10611bea57610100808354040283529160200191611c15565b820191906000526020600020905b815481529060010190602001808311611bf857829003601f168201915b50505050508152602001600282018054611c2e9061391e565b80601f0160208091040260200160405190810160405280929190818152602001828054611c5a9061391e565b8015611ca75780601f10611c7c57610100808354040283529160200191611ca7565b820191906000526020600020905b815481529060010190602001808311611c8a57829003601f168201915b5050505050815260200160038201548152602001600482015481526020016005820160009054906101000a900473ffffffffffffffffffffffffffffffffffffffff1673ffffffffffffffffffffffffffffffffffffffff1673ffffffffffffffffffffffffffffffffffffffff168152602001600682018054611d2a9061391e565b80601f0160208091040260200160405190810160405280929190818152602001828054611d569061391e565b8015611da35780601f10611d7857610100808354040283529160200191611da3565b820191906000526020600020905b815481529060010190602001808311611d8657829003601f168201915b5050505050815260200160078201548152602001600882018054611dc69061391e565b80601f0160208091040260200160405190810160405280929190818152602001828054611df29061391e565b8015611e3f5780601f10611e1457610100808354040283529160200191611e3f565b820191906000526020600020905b815481529060010190602001808311611e2257829003601f168201915b5050505050815260200160098201548152602001600a8201548152602001600b820160009054906101000a900460ff16151515158152602001600b820160019054906101000a900473ffffffffffffffffffffffffffffffffffffffff1673ffffffffffffffffffffffffffffffffffffffff1673ffffffffffffffffffffffffffffffffffffffff168152602001600b820160159054906101000a900460ff166003811115611ef257611ef1613a63565b5b6003811115611f0457611f03613a63565b5b8152602001600c82018054611f189061391e565b80601f0160208091040260200160405190810160405280929190818152602001828054611f449061391e565b8015611f915780601f10611f6657610100808354040283529160200191611f91565b820191906000526020600020905b815481529060010190602001808311611f7457829003601f168201915b50505050508152505090506000816080015114158015611fb657506000816060015114155b611ff5576040517f08c379a0000000000000000000000000000000000000000000000000000000008152600401611fec90613582565b60405180910390fd5b806000015181602001518260400151836060015184608001518560a00151866101400151876101600151886101800151896101a001519a509a509a509a509a509a509a509a509a509a50509193959799509193959799565b600060058260405161205f91906133cd565b908152602001604051809103902060000160009054906101000a900473ffffffffffffffffffffffffffffffffffffffff169050919050565b6003808111156120ab576120aa613a63565b5b6001826040516120bb91906133cd565b9081526020016040518091039020600b0160159054906101000a900460ff1660038111156120ec576120eb613a63565b5b146120f657600080fd5b600a60018260405161210891906133cd565b9081526020016040518091039020600a01546121249190613791565b60018260405161213491906133cd565b9081526020016040518091039020600a01546121509190613704565b34101561215c57600080fd5b60018160405161216c91906133cd565b908152602001604051809103902060050160009054906101000a900473ffffffffffffffffffffffffffffffffffffffff1673ffffffffffffffffffffffffffffffffffffffff166108fc6001836040516121c791906133cd565b9081526020016040518091039020600a01549081150290604051600060405180830381858888f19350505050158015612204573d6000803e3d6000fd5b5061225060018260405161221891906133cd565b908152602001604051809103902060050160009054906101000a900473ffffffffffffffffffffffffffffffffffffffff1682612697565b3360018260405161226191906133cd565b908152602001604051809103902060050160006101000a81548173ffffffffffffffffffffffffffffffffffffffff021916908373ffffffffffffffffffffffffffffffffffffffff16021790555060006001826040516122c291906133cd565b9081526020016040518091039020600b0160006101000a81548160ff02191690831515021790555060006001826040516122fc91906133cd565b9081526020016040518091039020600b0160016101000a81548173ffffffffffffffffffffffffffffffffffffffff021916908373ffffffffffffffffffffffffffffffffffffffff160217905550600060018260405161235d91906133cd565b9081526020016040518091039020600b0160156101000a81548160ff021916908360038111156123905761238f613a63565b5b0217905550600660003373ffffffffffffffffffffffffffffffffffffffff1673ffffffffffffffffffffffffffffffffffffffff1681526020019081526020016000206000018190806001815401808255809150506001900390600052602060002001600090919091909150908051906020019061241092919061283f565b5050565b606060028260405161242691906133cd565b9081526020016040518091039020600001805480602002602001604051908101604052809291908181526020016000905b828210156125035783829060005260206000200180546124769061391e565b80601f01602080910402602001604051908101604052809291908181526020018280546124a29061391e565b80156124ef5780601f106124c4576101008083540402835291602001916124ef565b820191906000526020600020905b8154815290600101906020018083116124d257829003601f168201915b505050505081526020019060010190612457565b505050509050919050565b60606000821415612556576040518060400160405280600181526020017f30000000000000000000000000000000000000000000000000000000000000008152509050612692565b600082905060005b6000821461258857808061257190613981565b915050600a826125819190613791565b915061255e565b60008167ffffffffffffffff8111156125a4576125a3613b1f565b5b6040519080825280601f01601f1916602001820160405280156125d65781602001600182028036833780820191505090505b50905060008290505b6000861461268a576001816125f4919061381c565b90506000600a80886126069190613791565b61261091906137c2565b8761261b919061381c565b6030612627919061375a565b905060008160f81b90508084848151811061264557612644613af0565b5b60200101907effffffffffffffffffffffffffffffffffffffffffffffffffffffffffffff1916908160001a905350600a886126819190613791565b975050506125df565b819450505050505b919050565b60006126a38284610a97565b9050600660008473ffffffffffffffffffffffffffffffffffffffff1673ffffffffffffffffffffffffffffffffffffffff1681526020019081526020016000206000016001600660008673ffffffffffffffffffffffffffffffffffffffff1673ffffffffffffffffffffffffffffffffffffffff16815260200190815260200160002060000180549050612739919061381c565b8154811061274a57612749613af0565b5b90600052602060002001600660008573ffffffffffffffffffffffffffffffffffffffff1673ffffffffffffffffffffffffffffffffffffffff16815260200190815260200160002060000182815481106127a8576127a7613af0565b5b906000526020600020019080546127be9061391e565b6127c99291906128c5565b50600660008473ffffffffffffffffffffffffffffffffffffffff1673ffffffffffffffffffffffffffffffffffffffff16815260200190815260200160002060000180548061281c5761281b613ac1565b5b6001900381819060005260206000200160006128389190612952565b9055505050565b82805461284b9061391e565b90600052602060002090601f01602090048101928261286d57600085556128b4565b82601f1061288657805160ff19168380011785556128b4565b828001600101855582156128b4579182015b828111156128b3578251825591602001919060010190612898565b5b5090506128c19190612992565b5090565b8280546128d19061391e565b90600052602060002090601f0160209004810192826128f35760008555612941565b82601f106129045780548555612941565b8280016001018555821561294157600052602060002091601f016020900482015b82811115612940578254825591600101919060010190612925565b5b50905061294e9190612992565b5090565b50805461295e9061391e565b6000825580601f10612970575061298f565b601f01602090049060005260206000209081019061298e9190612992565b5b50565b5b808211156129ab576000816000905550600101612993565b5090565b60006129c26129bd84613642565b61361d565b9050828152602081018484840111156129de576129dd613b53565b5b6129e98482856138dc565b509392505050565b600081359050612a0081613c77565b92915050565b600081359050612a1581613c8e565b92915050565b600081359050612a2a81613ca5565b92915050565b600082601f830112612a4557612a44613b4e565b5b8135612a558482602086016129af565b91505092915050565b600081359050612a6d81613cb5565b92915050565b600060208284031215612a8957612a88613b5d565b5b6000612a97848285016129f1565b91505092915050565b60008060008060808587031215612aba57612ab9613b5d565b5b6000612ac8878288016129f1565b945050602085013567ffffffffffffffff811115612ae957612ae8613b58565b5b612af587828801612a30565b935050604085013567ffffffffffffffff811115612b1657612b15613b58565b5b612b2287828801612a30565b925050606085013567ffffffffffffffff811115612b4357612b42613b58565b5b612b4f87828801612a30565b91505092959194509250565b600060208284031215612b7157612b70613b5d565b5b600082013567ffffffffffffffff811115612b8f57612b8e613b58565b5b612b9b84828501612a30565b91505092915050565b60008060408385031215612bbb57612bba613b5d565b5b600083013567ffffffffffffffff811115612bd957612bd8613b58565b5b612be585828601612a30565b9250506020612bf6858286016129f1565b9150509250929050565b60008060408385031215612c1757612c16613b5d565b5b600083013567ffffffffffffffff811115612c3557612c34613b58565b5b612c4185828601612a30565b9250506020612c5285828601612a1b565b9150509250929050565b60008060408385031215612c7357612c72613b5d565b5b600083013567ffffffffffffffff811115612c9157612c90613b58565b5b612c9d85828601612a30565b925050602083013567ffffffffffffffff811115612cbe57612cbd613b58565b5b612cca85828601612a30565b9150509250929050565b60008060008060808587031215612cee57612ced613b5d565b5b600085013567ffffffffffffffff811115612d0c57612d0b613b58565b5b612d1887828801612a30565b945050602085013567ffffffffffffffff811115612d3957612d38613b58565b5b612d4587828801612a30565b935050604085013567ffffffffffffffff811115612d6657612d65613b58565b5b612d7287828801612a30565b9250506060612d8387828801612a5e565b91505092959194509250565b60008060008060008060c08789031215612dac57612dab613b5d565b5b600087013567ffffffffffffffff811115612dca57612dc9613b58565b5b612dd689828a01612a30565b965050602087013567ffffffffffffffff811115612df757612df6613b58565b5b612e0389828a01612a30565b955050604087013567ffffffffffffffff811115612e2457612e23613b58565b5b612e3089828a01612a30565b9450506060612e4189828a01612a5e565b9350506080612e5289828a01612a5e565b92505060a0612e6389828a01612a06565b9150509295509295509295565b6000806000806000806000806000806101408b8d031215612e9457612e93613b5d565b5b60008b013567ffffffffffffffff811115612eb257612eb1613b58565b5b612ebe8d828e01612a30565b9a505060208b013567ffffffffffffffff811115612edf57612ede613b58565b5b612eeb8d828e01612a30565b9950506040612efc8d828e01612a5e565b98505060608b013567ffffffffffffffff811115612f1d57612f1c613b58565b5b612f298d828e01612a30565b97505060808b013567ffffffffffffffff811115612f4a57612f49613b58565b5b612f568d828e01612a30565b96505060a08b013567ffffffffffffffff811115612f7757612f76613b58565b5b612f838d828e01612a30565b95505060c08b013567ffffffffffffffff811115612fa457612fa3613b58565b5b612fb08d828e01612a30565b94505060e08b013567ffffffffffffffff811115612fd157612fd0613b58565b5b612fdd8d828e01612a30565b9350506101008b013567ffffffffffffffff811115612fff57612ffe613b58565b5b61300b8d828e01612a30565b92505061012061301d8d828e01612a06565b9150509295989b9194979a5092959850565b60008060008060008060c0878903121561304c5761304b613b5d565b5b600087013567ffffffffffffffff81111561306a57613069613b58565b5b61307689828a01612a30565b965050602087013567ffffffffffffffff81111561309757613096613b58565b5b6130a389828a01612a30565b95505060406130b489828a01612a5e565b945050606087013567ffffffffffffffff8111156130d5576130d4613b58565b5b6130e189828a01612a30565b93505060806130f289828a01612a5e565b92505060a087013567ffffffffffffffff81111561311357613112613b58565b5b61311f89828a01612a30565b9150509295509295509295565b60006131388383613261565b905092915050565b61314981613850565b82525050565b600061315a82613698565b61316481856136bb565b93508360208202850161317685613673565b8060005b858110156131b25784840389528151613193858261312c565b945061319e836136ae565b925060208a0199505060018101905061317a565b50829750879550505050505092915050565b6131cd81613874565b82525050565b600081546131e08161391e565b6131ea81866136cc565b94506001821660008114613205576001811461321657613249565b60ff19831686528186019350613249565b61321f85613683565b60005b8381101561324157815481890152600182019150602081019050613222565b838801955050505b50505092915050565b61325b816138ca565b82525050565b600061326c826136a3565b61327681856136d7565b93506132868185602086016138eb565b61328f81613b62565b840191505092915050565b60006132a5826136a3565b6132af81856136e8565b93506132bf8185602086016138eb565b6132c881613b62565b840191505092915050565b60006132de826136a3565b6132e881856136f9565b93506132f88185602086016138eb565b80840191505092915050565b6000613311601c836136e8565b915061331c82613b73565b602082019050919050565b60006133346021836136e8565b915061333f82613b9c565b604082019050919050565b6000613357601c836136e8565b915061336282613beb565b602082019050919050565b600061337a6032836136e8565b915061338582613c14565b604082019050919050565b613399816138b3565b82525050565b6133b06133ab826138b3565b6139ca565b82525050565b60006133c282846131d3565b915081905092915050565b60006133d982846132d3565b915081905092915050565b60006133f082876132d3565b91506133fc82866132d3565b915061340882856132d3565b9150613414828461339f565b60208201915081905095945050505050565b600060208201905061343b6000830184613140565b92915050565b600060a0820190506134566000830188613140565b6134636020830187613390565b61347060408301866131c4565b61347d6060830185613140565b61348a6080830184613252565b9695505050505050565b600060208201905081810360008301526134ae818461314f565b905092915050565b60006020820190506134cb60008301846131c4565b92915050565b60006101408201905081810360008301526134ec818d61329a565b90508181036020830152613500818c61329a565b90508181036040830152613514818b61329a565b9050613523606083018a613390565b6135306080830189613390565b61353d60a0830188613140565b61354a60c0830187613390565b61355760e08301866131c4565b613565610100830185613140565b613573610120830184613252565b9b9a5050505050505050505050565b6000602082019050818103600083015261359b81613304565b9050919050565b600060208201905081810360008301526135bb81613327565b9050919050565b600060208201905081810360008301526135db8161334a565b9050919050565b600060208201905081810360008301526135fb8161336d565b9050919050565b60006020820190506136176000830184613390565b92915050565b6000613627613638565b90506136338282613950565b919050565b6000604051905090565b600067ffffffffffffffff82111561365d5761365c613b1f565b5b61366682613b62565b9050602081019050919050565b6000819050602082019050919050565b60008190508160005260206000209050919050565b600081519050919050565b600081519050919050565b6000602082019050919050565b600082825260208201905092915050565b600081905092915050565b600082825260208201905092915050565b600082825260208201905092915050565b600081905092915050565b600061370f826138b3565b915061371a836138b3565b9250827fffffffffffffffffffffffffffffffffffffffffffffffffffffffffffffffff0382111561374f5761374e613a05565b5b828201905092915050565b6000613765826138bd565b9150613770836138bd565b92508260ff0382111561378657613785613a05565b5b828201905092915050565b600061379c826138b3565b91506137a7836138b3565b9250826137b7576137b6613a34565b5b828204905092915050565b60006137cd826138b3565b91506137d8836138b3565b9250817fffffffffffffffffffffffffffffffffffffffffffffffffffffffffffffffff048311821515161561381157613810613a05565b5b828202905092915050565b6000613827826138b3565b9150613832836138b3565b92508282101561384557613844613a05565b5b828203905092915050565b600061385b82613893565b9050919050565b600061386d82613893565b9050919050565b60008115159050919050565b600081905061388e82613c63565b919050565b600073ffffffffffffffffffffffffffffffffffffffff82169050919050565b6000819050919050565b600060ff82169050919050565b60006138d582613880565b9050919050565b82818337600083830152505050565b60005b838110156139095780820151818401526020810190506138ee565b83811115613918576000848401525b50505050565b6000600282049050600182168061393657607f821691505b6020821081141561394a57613949613a92565b5b50919050565b61395982613b62565b810181811067ffffffffffffffff8211171561397857613977613b1f565b5b80604052505050565b600061398c826138b3565b91507fffffffffffffffffffffffffffffffffffffffffffffffffffffffffffffffff8214156139bf576139be613a05565b5b600182019050919050565b6000819050919050565b60006139df826138b3565b91506139ea836138b3565b9250826139fa576139f9613a34565b5b828206905092915050565b7f4e487b7100000000000000000000000000000000000000000000000000000000600052601160045260246000fd5b7f4e487b7100000000000000000000000000000000000000000000000000000000600052601260045260246000fd5b7f4e487b7100000000000000000000000000000000000000000000000000000000600052602160045260246000fd5b7f4e487b7100000000000000000000000000000000000000000000000000000000600052602260045260246000fd5b7f4e487b7100000000000000000000000000000000000000000000000000000000600052603160045260246000fd5b7f4e487b7100000000000000000000000000000000000000000000000000000000600052603260045260246000fd5b7f4e487b7100000000000000000000000000000000000000000000000000000000600052604160045260246000fd5b600080fd5b600080fd5b600080fd5b600080fd5b6000601f19601f8301169050919050565b7f4e6f206c616e6420776974682074686973204944206578697374732e00000000600082015250565b7f4c616e642077697468207468697320494420616c72656164792065786973747360008201527f2e00000000000000000000000000000000000000000000000000000000000000602082015250565b7f54686973206163636f756e7420616c7265616479206578697374732e00000000600082015250565b7f4f6e6c792061646d696e732061726520616c6c6f77656420746f20706572666f60008201527f726d2074686973206f7065726174696f6e2e0000000000000000000000000000602082015250565b60048110613c7457613c73613a63565b5b50565b613c8081613850565b8114613c8b57600080fd5b50565b613c9781613862565b8114613ca257600080fd5b50565b60048110613cb257600080fd5b50565b613cbe816138b3565b8114613cc957600080fd5b5056fea264697066735822122004fd7254c7ce6371ee44e97f0d539a7eda4b8ac32a9b0d6a94ae5153fcd5246b64736f6c63430008060033",
  "immutableReferences": {},
  "source": "// SPDX-License-Identifier: MIT\r\n\r\npragma solidity >=0.5.1 <= 0.8.6;\r\n\r\ncontract LandReg{\r\n    address superAdmin;\r\n\r\n    struct landDetails{\r\n        string state;\r\n        string district;\r\n        string cadzone;\r\n        uint256 plotNumber;\r\n        uint256 plotSize;  // * 4 decimal places\r\n        address payable currentOwner;\r\n        // Land Documents\r\n        string cofo;\r\n        uint cofoDate;\r\n        string rofoHash;\r\n        uint rofoDate;\r\n        // Buy and sell\r\n        uint marketValue;\r\n        bool isAvailable;\r\n        address requester;\r\n        reqStatus requestStatus; \r\n        string id;\r\n    }\r\n\r\n    struct ownerDetails {\r\n        string name;\r\n        string gender;\r\n        uint dob;\r\n        string ownerAddress;\r\n        string phone1;\r\n        string phone2;\r\n        string NIN;\r\n        string email;\r\n        address payable wAddress;\r\n    }\r\n\r\n    struct adminDetails {\r\n        string name;\r\n        string state;\r\n        string district;\r\n    }\r\n    struct adminState {\r\n        address adminAddress;\r\n    }\r\n\r\n    //request status\r\n    enum reqStatus { Default, pending, reject, approved }\r\n\r\n    //profile of a client\r\n    struct profiles{\r\n        string[] assetList;   \r\n    }\r\n\r\n    struct landState {\r\n        string[] ids;\r\n    }\r\n\r\n    mapping(string => landDetails) lands;\r\n    mapping(string => landState) landStates; // Push land ids inside their respestive states\r\n    address owner;\r\n    mapping( address => adminDetails) admins;\r\n    mapping(string => adminState) adminStates;\r\n    mapping( address => profiles) profile;\r\n\r\n    mapping( address => ownerDetails ) owners;\r\n    \r\n    //contract owner\r\n    constructor() {\r\n        owner = msg.sender;\r\n        superAdmin = owner;\r\n    }\r\n\r\n    modifier onlyOwner {\r\n        require(msg.sender == owner);\r\n        _;\r\n    }\r\n    \r\n    //adding region admins\r\n    function addAdmin( address admin, string memory name, string memory state, string memory district ) onlyOwner public {\r\n        admins[admin].name = name;\r\n        admins[admin].state = state;\r\n        admins[admin].district = district;\r\n\r\n        adminStates[state].adminAddress = admin;\r\n    }\r\n\r\n    function getAdmin(string memory state) public view returns(address){\r\n        return adminStates[state].adminAddress;\r\n    }\r\n\r\n    //Registration of land details.\r\n    function registerLand(\r\n        string memory state,\r\n        string memory district,\r\n        string memory cadzone,\r\n        uint plotNumber,\r\n        uint plotSize,\r\n        address payable wAddress\r\n        ) public returns(bool) {\r\n        require(adminStates[state].adminAddress == msg.sender || owner == msg.sender, \"Only admins are allowed to perform this operation.\");\r\n        uint id_uint = computeId(state,district,cadzone,plotNumber);\r\n        string memory id = uint2str(id_uint);\r\n        // require(adminStates[state].adminAddress != msg.sender && owner != msg.sender, \"Only admins are allowed to perform this operation.\");\r\n        require(lands[id].plotSize == 0 && lands[id].plotNumber == 0, \"Land with this ID already exists.\");\r\n        lands[id].state = state;\r\n        lands[id].district = district;\r\n        lands[id].cadzone = cadzone;\r\n        \r\n        lands[id].plotNumber = plotNumber;\r\n        lands[id].plotSize = plotSize;\r\n        lands[id].currentOwner = wAddress;\r\n\r\n        lands[id].id = id;\r\n        landStates[state].ids.push(id);\r\n\r\n        profile[wAddress].assetList.push(id);\r\n        return true;\r\n    }\r\n\r\n    // function uint2str(uint _i) internal returns (string memory _uintAsString) {\r\n    //     if (_i == 0) {\r\n    //         return \"0\";\r\n    //     }\r\n    //     uint j = _i;\r\n    //     uint len;\r\n    //     while (j != 0) {\r\n    //         len++;\r\n    //         j /= 10;\r\n    //     }\r\n    //     bytes memory bstr = new bytes(len);\r\n    //     uint k = len - 1;\r\n    //     while (_i != 0) {\r\n    //         bstr[k--] = bytes1(uint8(48 + _i % 10));\r\n    //         _i /= 10;\r\n    //     }\r\n    //     return string(bstr);\r\n    // }\r\n\r\n    function uint2str(uint _i) internal pure returns (string memory _uintAsString) {\r\n        if (_i == 0) {\r\n            return \"0\";\r\n        }\r\n        uint j = _i;\r\n        uint len;\r\n        while (j != 0) {\r\n            len++;\r\n            j /= 10;\r\n        }\r\n        bytes memory bstr = new bytes(len);\r\n        uint k = len;\r\n        while (_i != 0) {\r\n            k = k-1;\r\n            uint8 temp = (48 + uint8(_i - _i / 10 * 10));\r\n            bytes1 b1 = bytes1(temp);\r\n            bstr[k] = b1;\r\n            _i /= 10;\r\n        }\r\n        return string(bstr);\r\n    }\r\n\r\n    function editLandDocuments(\r\n        string memory id,\r\n        string memory cofo,\r\n        uint cofoDate,\r\n        string memory rofoHash,\r\n        uint  rofoDate,\r\n        string memory stateOfAdmin\r\n    ) public returns (bool) {\r\n        require(adminStates[stateOfAdmin].adminAddress == msg.sender || owner == msg.sender, \"Only admins are allowed to perform this operation.\");\r\n        require(lands[id].plotSize != 0 && lands[id].plotNumber != 0, \"No land with this ID exists.\");\r\n\r\n        lands[id].cofo = cofo;\r\n        lands[id].cofoDate = cofoDate;\r\n        lands[id].rofoHash = rofoHash;\r\n        lands[id].rofoDate = rofoDate;\r\n\r\n        return true;\r\n    }\r\n\r\n    function registerOwner(\r\n        string memory name,\r\n        string memory gender,\r\n        uint dob,\r\n        string memory ownerAddress,\r\n        string memory phone1,\r\n        string memory phone2,\r\n        string memory NIN,\r\n        string memory email,\r\n        string memory stateOfAdmin,\r\n        address payable wAddress\r\n    ) onlyOwner public returns (bool){\r\n        require(adminStates[stateOfAdmin].adminAddress == msg.sender || owner == msg.sender, \"Only admins are allowed to perform this operation.\");\r\n        bytes32 emptyHash = keccak256(\"\");\r\n        require( keccak256(bytes(owners[wAddress].NIN)) == emptyHash || keccak256(bytes(owners[wAddress].email)) == emptyHash, \"This account already exists.\");\r\n\r\n        owners[wAddress].name = name;\r\n        owners[wAddress].gender = gender;\r\n        owners[wAddress].dob = dob;\r\n        owners[wAddress].ownerAddress = ownerAddress;\r\n        owners[wAddress].phone1 = phone1;\r\n        owners[wAddress].phone2 = phone2;\r\n        owners[wAddress].NIN = NIN;\r\n        owners[wAddress].email = email;\r\n        owners[wAddress].wAddress = wAddress;\r\n\r\n        return true;\r\n    }\r\n\r\n    //to view details of land for the owner\r\n    function landInfoFull(string memory id) public view returns(string memory,string memory,string memory,uint,uint,address,uint, bool,address,reqStatus){\r\n        landDetails memory lands_local = lands[id];\r\n        require(lands_local.plotSize != 0 && lands_local.plotNumber != 0, \"No land with this ID exists.\");\r\n        return(\r\n            lands_local.state,\r\n            lands_local.district,\r\n            lands_local.cadzone,\r\n            lands_local.plotNumber,\r\n            lands_local.plotSize,\r\n            lands_local.currentOwner,\r\n            lands_local.marketValue,\r\n            lands_local.isAvailable,\r\n            lands_local.requester,\r\n            lands_local.requestStatus\r\n            );\r\n    }\r\n\r\n    function landInfoStates(string memory state) public view returns(string[] memory state_ids){\r\n        state_ids = landStates[state].ids;\r\n    }\r\n    \r\n    //to view details of land for the buyer\r\n    function landInfoBuyer(string memory id) public view returns(address,uint,bool,address,reqStatus){\r\n        return(lands[id].currentOwner, lands[id].marketValue, lands[id].isAvailable, lands[id].requester, lands[id].requestStatus);\r\n    }\r\n\r\n    // to compute id for a land.\r\n    function computeId(string memory state, string memory district, string memory cadzone, uint plotNumber) public pure returns(uint){\r\n        return uint(keccak256(abi.encodePacked(state, district, cadzone, plotNumber)))%10000000000000;\r\n    }\r\n\r\n    // view the assets of the owner represented by this address\r\n    function viewAssets(address wAddress)public view returns(string[] memory){\r\n        return (profile[wAddress].assetList);\r\n    }\r\n\r\n    //push a request to the land owner\r\n    function requstToLandOwner(string memory id) public {\r\n        require(lands[id].isAvailable);\r\n        lands[id].requester = msg.sender;\r\n        lands[id].isAvailable = false;\r\n        lands[id].requestStatus = reqStatus.pending; //changes the status to pending.\r\n    }\r\n\r\n    //viewing request for the lands\r\n    function viewRequest(string memory property)public view returns(address){\r\n        return(lands[property].requester);\r\n    }\r\n    //processing request for the land by accepting or rejecting\r\n    function processRequest(string memory property,reqStatus status) public {\r\n        require(lands[property].currentOwner == msg.sender);\r\n        lands[property].requestStatus = status;\r\n        if(status == reqStatus.reject){\r\n            lands[property].requester = address(0);\r\n            lands[property].requestStatus = reqStatus.Default;\r\n        }\r\n    }\r\n    //availing lands for sale.\r\n    function makeAvailable(string memory property)public{\r\n        require(lands[property].currentOwner == msg.sender);\r\n        lands[property].isAvailable=true;\r\n    } \r\n\r\n    //buying the approved property\r\n    function buyProperty(string memory property)public payable{\r\n        require(lands[property].requestStatus == reqStatus.approved);\r\n        require(msg.value >= (lands[property].marketValue+((lands[property].marketValue)/10)));\r\n        lands[property].currentOwner.transfer(lands[property].marketValue);\r\n        removeOwnership(lands[property].currentOwner,property);\r\n        lands[property].currentOwner=payable(msg.sender);\r\n        lands[property].isAvailable=false;\r\n        lands[property].requester = address(0);\r\n        lands[property].requestStatus = reqStatus.Default;\r\n        profile[msg.sender].assetList.push(property); //adds the property to the asset list of the new owner.\r\n        \r\n    }\r\n    //removing the ownership of seller for the lands. and it is called by the buyProperty function\r\n    function removeOwnership(address previousOwner,string memory id)private{\r\n        uint index = findId(id,previousOwner);\r\n        profile[previousOwner].assetList[index]=profile[previousOwner].assetList[profile[previousOwner].assetList.length-1];\r\n        profile[previousOwner].assetList.pop();\r\n    }\r\n    //for finding the index of a perticular id\r\n    function findId(string memory id,address user)public view returns(uint){\r\n        uint i;\r\n        for(i=0;i<profile[user].assetList.length;i++){\r\n            // if(profile[user].assetList[i] == id)\r\n            if(compareStrings(profile[user].assetList[i], id))\r\n                return i;\r\n        }\r\n        return i;\r\n    }\r\n\r\n    function compareStrings(string memory a, string memory b) public pure returns (bool) {\r\n        return (keccak256(abi.encodePacked((a))) == keccak256(abi.encodePacked((b))));\r\n    }\r\n}",
  "sourcePath": "C:/Mine/Sources/eth/SanniMSc/begin-real/contracts/LandReg.sol",
  "compiler": {
    "name": "solc",
    "version": "0.8.6+commit.11564f7e.Emscripten.clang"
  },
  "schemaVersion": "3.4.1",
  "updatedAt": "2021-07-20T16:43:53.308Z",
  "networkType": "ethereum",
  "devdoc": {
    "kind": "dev",
    "methods": {},
    "version": 1
  },
  "userdoc": {
    "kind": "user",
    "methods": {},
    "version": 1
  }
}